:020000040800F2
:100000009006002045010008390900083109000860
:100010003509000805080008390F00080000000035
:100020000000000000000000000000005D0A000861
:1000300069080008000000009D0900085D01000833
:100040005F0100085F0100085F0100085F01000810
:100050005F0100085F0100085F0100085F01000800
:100060005F0100085F0100085F0100085F010008F0
:100070005F0100085F0100085F0100085F010008E0
:100080005F0100085F0100085F0100085F010008D0
:100090005F0100085F0100085F0100085F010008C0
:1000A0005F0100085F0100085F0100085F010008B0
:1000B0005F0100085F0100085F0100085F010008A0
:1000C0005F0100085F0100085F0100085F01000890
:1000D0005F0100082D0D0008690D00085F01000890
:1000E0005F0100085F0100085F0100085F01000870
:1000F0005F0100085F0100085F0100085F01000860
:100100005F0100085F0100085F0100085F0100084F
:100110005F0100085F0100085F0100085F0100083F
:100120005F0100085F0100085F0100085F0100082F
:10013000DFF80CD000F0C0FA00480047751900083D
:10014000900600200648804706480047FEE7FEE785
:10015000FEE7FEE7FEE7FEE7FEE7FEE7FEE7FEE777
:100160001D0C00083101000840EA01039B0703D081
:1001700009E008C9121F08C0042AFAD203E011F8E6
:10018000013B00F8013B521EF9D27047D2B201E0A8
:1001900000F8012B491EFBD270470022F6E710B58C
:1001A00013460A4604461946FFF7F0FF204610BDE5
:1001B00080EA010210B502F00043400022D04A005C
:1001C0001FD0010E01EB1261C0F35600C2F35602BC
:1001D00040F4000042F40002A0FB022000047F393A
:1001E000140400D0401C50EA124001D44000491EC3
:1001F000C2B20C0604EBD010401C4008802A02D08A
:1002000003E0002010BD20F00100002900DA0020EA
:10021000184310BDC10F80EAE0700844CA07962356
:10022000002100F063B800F0004230F000400AD036
:10023000C10D01F56071C0F3160042EA0151C20818
:1002400040071143704700200146704730B50B4608
:10025000014600202022012409E021FA02F59D42F6
:1002600005D303FA02F5491B04FA02F52844151ECA
:10027000A2F10102F1DC30BD2DE9F05F054600205E
:1002800092469B4688460646814640241BE0284607
:1002900041464746224600F036FA53465A46C01AAF
:1002A000914110D311461846224600F01DFA2D1A2E
:1002B00067EB01084F4622460120002100F014FAA6
:1002C00017EB00094E41201EA4F10104DFDC484673
:1002D00031462A464346BDE8F09F0029A8BF704733
:1002E000401C490008BF20F00100704710B4B0FA6C
:1002F00080FC00FA0CF050EA010404BF10BC704707
:1003000049B1CCF1200421FA04F411FA0CF118BF20
:10031000012121430843A3EB0C01CB1D4FEA0061EF
:100320004FEA102042BF002010BC704700EBC350C2
:1003300010440029A4BF10BC7047401C490008BFEE
:1003400020F0010010BC70472DE9FE4F804681EA85
:100350000300C00F0C46009021F0004123F000453F
:10036000B8EB0200A94105D24046214690461C4602
:100370000B46024623F00040104347D0270DC7F339
:100380000A00C3F30A510290401A019040286BDA28
:10039000C3F3130040F4801B0098924620B1002361
:1003A000D2EB030A63EB0B0B01985946C0F14002F4
:1003B000504600F099F906460D4650465946019AB6
:1003C00000F0B1F910EB08006141002487EA1152F6
:1003D00084EAE7731A4340D0009A62B3019A012A73
:1003E0004FEA075215DC001B61EB02014FF000429F
:1003F00002EA0752CDE90042001C41F58011324665
:100400002B4600F0B1F903B0BDE8F08F404621461D
:10041000F9E7001B61EB0201001C41F58013001895
:100420005B412018A2F5001747EB030140EAD570A5
:10043000B6196D4111E06D084FEA360645EAC07500
:100440004FEA0752001B61EB0201001C41F58011CD
:1004500049084FEA30000019514132462B4603B09B
:10046000BDE8F04F00F071B9009801224000002370
:10047000D0EB020263EBE073009821464FEAE07490
:10048000B8EB000061EB0401E9E783F000435BE7B0
:1004900081F0004158E72DE9FE4F81EA030404F0A2
:1004A000004421F0004100944FF0000B23F0004382
:1004B00050EA01045ED052EA03045BD0C3F30A544D
:1004C000C1F30A552C44A4F2F3340194A0FB025466
:1004D000C1F3130141F48011C3F3130343F48013F8
:1004E00001FB024400FB034E840A970A44EA81544C
:1004F00047EA8357A4FB076802958D0A05FB078529
:100500004FEA932C04FB0C542705029D4FEA065832
:1005100047EA1637B5EB08056EEB070C870E920E0F
:1005200047EA811742EA8312A7FB0201B6EB0B01EF
:1005300064EB00042B0D43EA0C335E1844EB1C50B3
:10054000DA465146E7FB0201C5F313044FEA0B33C9
:1005500043EA14534FEA0432019C43EA0603A4F130
:100560000C040294009CCDE900B400F0FDF803B047
:10057000BDE8F08F00200146F9E72DE9F04D81EA52
:10058000030404F0004B21F0004514464FF0000A2C
:1005900023F0004150EA050220D054EA01021DD0A8
:1005A000C5F30A570246C5F31303C1F31300C1F3A1
:1005B0000A5640F4801543F48013A7EB0608101B7D
:1005C000D64608F2FD3873EB050002D308F10108A6
:1005D00001E092185B41B8F1000F03DA00200146F8
:1005E000BDE8F08D00204FF48011064684460EE0F1
:1005F000171B73EB050705D3121B63EB05030643BB
:100600004CEA010C49084FEA300092185B4150EA6D
:100610000107EDD152EA030012D082EA040083EA16
:100620000501084305D0101BAB4106D2012200236F
:1006300006E000224FF0004302E06FF00102531089
:100640001AEB06004CEB085110EB0A0041EB0B01D2
:10065000BDE8F04D00F079B8C1F30A52C1F31301BF
:1006600040F2FF3341F480119A4202DA0020014641
:10067000704740F233439A42A2F2334202DC5242C4
:1006800000F041B800F030B830B5041E71F100043C
:1006900004DB4FF00044404264EB0101141E73F18F
:1006A000000405DB1C464FF00043524263EB040399
:1006B000994208BF904230BD1CB5094800900948D6
:1006C00001900546009C06E0E06840F0010394E8D4
:1006D000070098471034AC42F6D3FFF72DFD000019
:1006E0003C2B00085C2B0008202A04DB203A00FA8F
:1006F00002F1002070479140C2F1200320FA03F379
:10070000194390407047202A04DB203A21FA02F076
:100710000021704721FA02F3D040C2F1200291403B
:10072000084319467047202A06DBCB17203A41FAC6
:1007300002F043EAE07306E041FA02F3D040C2F16E
:100740002002914008431946704710B5141E73F1FA
:10075000000408DA401C41F1000192185B411A4381
:1007600001D120F0010010BD2DE9F04D92469B46CD
:1007700011B1B1FA81F202E0B0FA80F22032904673
:10078000FFF7B2FF04460F4640EA0A0041EA0B01B8
:1007900053465A46084313D0114653EA010019D074
:1007A000C8F140025046FFF7AEFF05460E465046E0
:1007B00059464246FFF798FF084305D0012004E060
:1007C00020463946BDE8F08D0020054346EAE07634
:1007D0002C4337430A986305E40AA0EB0800002283
:1007E000FD0A44EA47540A3002D500200146E9E7F1
:1007F000010510196941DDE9084500196941BDE8A5
:10080000F04DA2E7FEE7000010B540F24204C2F24C
:10081000000423780146581CC2B2207040F2100038
:10082000C2F20000032AC1541CD3322A24BF002183
:1008300021702178032938BF10BD417882780D29B5
:1008400008BF0A2A03D001704270022009E0017833
:1008500040F20802C2F2000211703221FFF79DFC43
:100860000020207010BD00007047000001F052B859
:10087000CA7802F00F0CD30644BF8B784CEA030C05
:100880002DE9F04709880B0625D082465AF8145BFB
:1008900000F1100E00264FF001094FF00F0800275D
:1008A00006E000BF1C600137082F06F1040611D0D6
:1008B00009FA07F40C42F6D008FA06F325EA030316
:1008C0000CFA06F51D43282A5346EBD0482AEAD1F4
:1008D0007346E7E70560B1F5807F38BFBDE8F08774
:1008E000436800F1100E00F1140A082500264FF0AD
:1008F00001094FF00F0805E027600135102D06F1C2
:10090000040610D009FA05F70F42F6D008FA06F4EB
:10091000A3430CFA06F42343282A5446ECD0482A71
:10092000EBD17446E8E74360BDE8F08701617047AA
:10093000FEE70000FEE700007047000010B5C17838
:1009400000294EF20011CEF200011AD04EF60C52E0
:10095000CEF200021268072323EA12220F23C2F10B
:10096000040C23FA02F24378847890F800E003FA4A
:100970000CF322401A43120101EB0E0383F800230B
:1009800000E080310078012300F01F0203FA02F238
:10099000C0F3421041F8202010BD00007047000055
:1009A000002941F21C01C4F202010A680CBF22EACC
:1009B0000000104308607047002941F21801C4F29A
:1009C00002010A680CBF22EA000010430860704769
:1009D00010B541F20404C4F20204226802F00C02D1
:1009E000082A41F20022C0F27A0212D12368D4F818
:1009F00000C0C3F3834E5FEACC330EF1020C02D584
:100A000023689B0303D540F60012C0F23D020CFBA5
:100A100002F20260226842F29C53C2F30312C0F653
:100A200000039A5C0168D14041602268C2F302224F
:100A30009A5C21FA02F282602268C2F3C2229A5CB6
:100A400042F29853D140C1602268C0F60003C2F35D
:100A500081329A5CB1FBF2F1016110BD7047000078
:100A6000002908BF704780B540F2801E3638C2F2B8
:100A7000000E0FF2280C00BF9EF80030092894BF2A
:100A80001CF8002080221A43013900F101008EF881
:100A90000020F1D1BDE88040704700BF0180800296
:100AA000808008808004000000F026BA80B542F6FD
:100AB000F820C0F6000001F0E3F842F2D470C0F66E
:100AC000000001F057FD42F6A810C0F6000001F04A
:100AD00051FD42F63320C0F6000001F04BFD42F616
:100AE0008110C0F6000001F045FD42F6D510C0F6B9
:100AF000000001F03FFD42F6BF00C0F6000001F02B
:100B000039FD42F6F100C0F6000001F033FD42F677
:100B1000FD10C0F6000001F02DFD0BA001F02AFD34
:100B200042F62110C0F6000001F024FD14A001F0EF
:100B300021FD20A001F01EFD42F66F00C0F600006E
:100B4000BDE8804001F016BD554152542053454E3A
:100B5000443A725C725C6E20202054686520726595
:100B60007475726E20726174652072656475637449
:100B7000696F6E20746F2031487A2E0D00000000DE
:100B8000554152542053454E443A635C725C6E208A
:100B9000202052657475726E20636F6E74656E747A
:100BA0003A20616363656C65726174696F6E2E0DC6
:100BB00000000000554152542053454E443A685CB1
:100BC000725C6E20202068656C702E0D00000000A5
:100BD0004EF21001CEF200010A68042822F004024D
:100BE00008BF04320A60704780B56FF00400FFF759
:100BF000EFFF40F20400C2F2000000684DF683618E
:100C0000C4F21B31A0FB0101480D4FF47A71484337
:100C100040F24401C2F20001088080BD82B041F27E
:100C20000400C4F2020050F8041C002241F001014B
:100C300040F8041C0168CFF6FF021140016050F833
:100C4000041C4FF6FF72CFF6F662114040F8041C08
:100C500050F8041C21F4802140F8041C016821F4A0
:100C6000FE0101604FF41F014160002101910091DC
:100C700050F8041C41F4803140F8041C50F8041C66
:100C800001F400310091019901310191009919B9E4
:100C90000199B1F5A06FF1D150F8041C890354BF3C
:100CA0000021012100910099012936D142F2000171
:100CB000C4F202010A6842F010020A600A6822F0D7
:100CC00003020A600A6842F002020A6001680160D9
:100CD00001680160016841F480610160016821F4EC
:100CE0007C110160016841F4E811016050F8041CB6
:100CF00041F0807140F8041C50F8041C8901FBD5B8
:100D0000016821F003010160016841F00201016006
:100D1000016801F00C010829FAD14EF60850CEF214
:100D200000004FF00061016002B0704710B543F65B
:100D30000004C4F20104204640F2255100F04AF8B4
:100D400050B1204600F0D0F8C0B2FFF75DFD20465C
:100D500040F2255100F026F8A4F574404FF4587184
:100D6000BDE8104000F01EB810B544F20044C4F2D3
:100D70000004204640F2255100F02CF8002808BF5E
:100D800010BD204600F0B0F8C0B200F08FFA204647
:100D900040F22551BDE8104000F004B8C94301807D
:100DA00070470000090A012202FA01F1C9430180DB
:100DB000704700008289002918BF012122F40052E7
:100DC00042EA4131818170470088084018BF012004
:100DD00070470000C1F342121423022A08BF1023F7
:100DE000012A08BF0C23C35A008801F01F02090A18
:100DF00023FA02F2C840104000F0010070470000E2
:100E0000C1F3421301F01F0C1421022B08BF102163
:100E1000012B4FF0010308BF0C21002A03FA0CF24A
:100E200043580CBF23EA02021A43425070470000A5
:100E300070B586B00446008A0D46C98820F440503B
:100E400008432082A0894EF6F3110840A9882A8918
:100E50006B89084310431843A081A08AA98920F414
:100E60004070084301AEA0823046FFF7B1FD43F663
:100E7000000106F10800C4F201018C4208BF06F12E
:100E80000C0000681922B4F90C1050432A680123A1
:100E9000B1F1FF3FC8BF022302FA03F1B0FBF1F04A
:100EA00048F21F51C5F2EB11A0FB01235A096FF064
:100EB000630302FB0300B4F90C300326B3F1FF3FD8
:100EC000C8BF042600FA06F000F13200A0FB0101C1
:100ED0004FF00700C8BF0F2000EA511040EA02108F
:100EE000208106B070BD000080886FF35F207047DE
:100EF0006FF35F2181807047F0B581B044F2004408
:100F0000C4F2000481B10D46064600272046802128
:100F1000FFF75AFF0028F9D016F8011B2046FFF70B
:100F2000E7FF0137AF42F1D120464021FFF74CFFE8
:100F30000028F9D001B0F0BDFEE70000F0B587B0A1
:100F4000064644F204000121FFF736FD43F6000493
:100F500040F20020C4F20104C1F60300A4F540559C
:100F600006AF069028463946FFF782FC4FF48060B2
:100F7000ADF8180004208DF81B0028463946FFF70D
:100F800077FC40F22530C0F2031001AD01902846F5
:100F9000FFF7D4FC00204FF4402103900491ADF8FA
:100FA000140002A920460296FFF742FF204640F2B5
:100FB00027710022FFF724FF204640F2255101222D
:100FC000FFF71EFF20464021FFF7E8FE20460121E3
:100FD000FFF7F0FE40F22510C0F2071001902846FE
:100FE000FFF7ACFC07B0F0BDF0B587B004460420B5
:100FF00001210427FFF7E0FC4FF400300121FFF747
:10100000CFFC022040F60005C1F20300C4F2010546
:1010100006AE069028463146FFF72AFC28460221F4
:10102000FFF784FC0420C1F60300069028463146F1
:10103000FFF71EFC0820ADF81800284631468DF851
:101040001B70FFF715FC029400204FF44021A5F51A
:10105000444403900491ADF8140002A92046FFF720
:10106000E7FE204640F225510122FFF7C9FE204647
:101070000121FFF79FFE40F22610C0F208100190F8
:1010800001A8FFF75BFC07B0F0BD000000280FBF10
:101090006FF0050040F24C01C2F20001086018BF79
:1010A00000207047062884BF6FF00500704740F2AB
:1010B0008422C2F20002106040F20900C2F2000075
:1010C000017040F28C21C2F20001002008607047DC
:1010D0002DE9F04182B00A188F2A02D96FF005027B
:1010E000D3E040F28422C2F2000213686FF00502DE
:1010F000DFE803F074044465CB04440040F25C0272
:10110000C2F200021268002A00F0BD804FF6FC73A4
:1011100003EA4103FB2B5ED840F20903C2F200034D
:101120001B7880468DF8003003238DF80130030AC8
:101130008DF80300080A42F2AC5642F2AC648DF816
:1011400002308DF804008DF80510FF2000216B4659
:10115000C0F60006C0F60004FF2700BF5D5CC0B209
:101160004540705D01317840675D0629F6D18DF804
:101170000600684608218DF8077047E0032900F251
:10118000848040F24801C2F200010B68002B7AD043
:101190004AF6FF21ADF8001027218DF80210010A50
:1011A0008DF8041040F20901C2F200010A7880466D
:1011B0008DF80300694610460522984727E040F263
:1011C0005002C2F200021668002E5CD04A0093B2B0
:1011D000B3F5807F23D96FF0030256E0042954D879
:1011E00040F25C01C2F200010A68002A4BD04AF6C4
:1011F000FF21ADF8001027218DF803008046000A7A
:101200008DF802108DF8040068460521904740F2E1
:101210008820C2F200000022C0F8008035E00F46AE
:1012200040F20901C2F20001097840F284144A0038
:10123000C2F200048046C1B2D0B22246B0470128B3
:10124000E5D140F25800C2F20000D0F800C0BCF175
:10125000000F18D0404639469FB140F26003002786
:10126000C2F20003002604EB47056D7814F817203E
:10127000013642EA05223D18B7B28F4223F8152005
:10128000F1D3E047C3E76FF00402104602B0BDE8B7
:10129000F081000000280FBF6FF0050040F25801F8
:1012A000C2F20001086018BF002070472DE9F04F1E
:1012B00083B040F25805C2F200052C68002C00F003
:1012C000118140F2842340F28C28C2F20003C2F262
:1012D00000081B68D8F800200127014640F284105E
:1012E00007FA03F3561CC2F2000013F04C0FC8F8C3
:1012F0000060815440F0EB8013F0110F3AD0017878
:10130000552940F089800B2EC0F0E480431E002157
:101310000A2700BF13F8016F013F3144FAD1837AE5
:10132000C9B2994240F0788041884268ADF8041013
:101330004178CDF806200289A1F150000F280092D3
:10134000ADF80A2000F2C38034274FF000090326CD
:101350004FF0400B4FF0000ADFE800F008976A807A
:10136000846C787C918D66B9B9B9B9704FF0000B77
:10137000302787E0032EC0F0AD804378032B4BD19C
:1013800090F802E00EF105039E42C0F0AB80531EC0
:10139000C75C9EB241EA072CD6B142F2AC5942F288
:1013A000AC6A451EFF21C0F60009C0F6000AFF2303
:1013B00015F8017FC9B24F4019F80710013E81EAC4
:1013C00003011AF80730F3D1C9B243EA012101E061
:1013D0004FF6FF718C451FD140F288225FEA5E0113
:1013E000C2F2000215D0136840F26007C2F2000793
:1013F00007EB4303023B02380F4600BFB0F805601D
:10140000013F36BA4FEA164623F8026F00F1020098
:10141000F4D11068A0475AE0411CC8F8002003B07E
:10142000BDE8F04FFEF7A0BE4FF0000B552729E0B6
:10143000372718E04FF0000B412723E040F28820C7
:10144000C2F2000007684FF0000B1BE04FF0000BEA
:10145000452717E04FF0000B492713E03D274FF0D9
:101460002E0B12E03A274FF0010904264FF0000B33
:101470004FF0010A09E04FF0000B512702E04FF056
:10148000000B4D274FF00109042640F26000C2F224
:101490000000BAF1000F18BF032600EB47007200EE
:1014A00001A9FEF761FE38463146A047B9F1000FA9
:1014B00008BFBAF1000F0AD1009840F260032A6811
:1014C000C2F2000323F81B00584601219047002078
:1014D000C8F80000D8F80000B0F5807F04BF0020F5
:1014E000C8F8000003B0BDE8F08F000000280FBF6F
:1014F0006FF0050040F25C01C2F20001086018BF05
:101500000020704740F28421C2F2000109680429DA
:1015100004BF6FF00500704710B584B2062C84BF7D
:101520006FF0050010BD40F24C00C2F200000168EF
:1015300051B1142088471F20214600F051F900289E
:1015400018BF6FF0020010BD6FF0040010BD000066
:1015500040F28421C2F200010968042905D0A0F5F7
:10156000805189B2B1F5704F02D86FF00500704715
:1015700010B5044669204BF2885100F031F900287B
:101580001CBF6FF0020010BD40F24C00C2F2000020
:10159000016851B114208847A1B2022000F020F95F
:1015A000002818BF6FF0020010BD6FF0040010BDDE
:1015B00040F28421C2F200010968042906D0A0F19A
:1015C0000E0189B24FF6F372914202D26FF005001C
:1015D000704710B5044669204BF2885100F000F9BD
:1015E00000281CBF6FF0020010BD40F24C00C2F298
:1015F0000000016851B114208847A1B2032000F017
:10160000EFF8002818BF6FF0020010BD6FF0040063
:1016100010BD000010B582B0A0F1080189B24FF6EC
:10162000F972914203D26FF0050002B010BD40F292
:101630008421C2F200010968042913D140F0040199
:101640000629F0D140F25C01C2F200010A6832B30F
:101650004AF6FF210628ADF8051024D0022825D12E
:10166000642021E0044669204BF2885100F0B8F86C
:1016700018B16FF0020002B010BD40F24C00C2F28F
:101680000000016859B114208847A1B2042000F07D
:10169000A7F8002818BF6FF0020002B010BD6FF06D
:1016A000040002B010BD63208DF807000DF10500A5
:1016B00003219047002002B010BD000080B582B029
:1016C00040F28420C2F200000068042813D140F2E6
:1016D0005C00C2F2000002684AB34AF6FF20ADF88F
:1016E000050067208DF807000DF1050003219047E4
:1016F000002002B080BD69204BF2885100F070F8E4
:1017000018B16FF0020002B080BD40F24C00C2F28E
:101710000000016859B1142088470120012100F020
:101720005FF8002818BF6FF0020002B080BD6FF0B4
:10173000040002B080BD000040F28420C2F200002C
:101740000068042804BF6FF00500704780B5692069
:101750004BF2885100F044F800281CBF6FF00200E3
:1017600080BD40F24C00C2F20000016851B114206B
:1017700088470120072100F033F8002818BF6FF0D8
:10178000020080BD6FF0040080BD000040F28420A4
:10179000C2F200000068042804BF6FF00500704723
:1017A00080B569204BF2885100F01AF800281CBF60
:1017B0006FF0020080BD40F24C00C2F200000168F0
:1017C00051B1142088470120002100F009F80028B9
:1017D00018BF6FF0020080BD6FF0040080BD0000F4
:1017E000B0B582B08F2802D96FF005028FE040F2C9
:1017F0008422C2F2000213686FF00502DFE803F0F2
:101800006F043C5787043C0040F25C02C2F20002C5
:10181000D2F800C0BCF1000F77D040F20902C2F24A
:10182000000212788DF803008DF800200622ADF832
:101830000120080A42F2AC5242F2AC638DF8040077
:101840008DF80510FF200021EE46C0F60002C0F61C
:101850000003FF241EF80150C0B24540505D013125
:1018600060405C5D0629F5D18DF8060068460821C8
:101870008DF80740E04746E040F24802C2F200021D
:101880001368002B41D08DF8020040F20900C2F22B
:1018900000004AF6FF228DF80310090A0078ADF81F
:1018A00000208DF804106946052298472BE040F28D
:1018B0005402C2F2000214683CB340F20902C2F2C0
:1018C00000021278ADF800105200C1B2D0B26A46E0
:1018D0000223A047012816D06FF0020217E040F261
:1018E0005C02C2F2000212687AB18DF80200080AA6
:1018F0004AF6FF238DF803108DF804006846052191
:10190000ADF800309047002201E06FF0040210466D
:1019100002B0B0BD40F24401C2F200010A884EF2AA
:101920001001CEF200015043486000208860086832
:1019300040F00100086000BF086800F001100128B5
:10194000FAD0086820F00100086000208860704725
:10195000B0B543F600050446C4F2010528468021CF
:10196000FFF732FA0028F9D0A1B22846FFF7C0FAF3
:101970002046B0BD8AB0FFF7DFFEFFF735F94FF420
:10198000E130FFF7DBFA4FF41650FFF72DFB002094
:1019900050210025FFF786FB40F6A920C0F6000085
:1019A000FFF7A4FD40F66120C0F60000FFF772FCCF
:1019B00040F66D00C0F60000FFF768FB42F621001C
:1019C000C0F6000000F0D6FD42F2AC7840F280197B
:1019D0000126C0F60008C2F2000958F82640204649
:1019E000FFF702FB002700BF3420032189F80050D5
:1019F000FFF76EFB6420FFF78DFF99F8000068B9D0
:101A0000F8074FF00107EFD001360A2EE5D184A088
:101A100000F0B0FD88A000F0ADFD05E07AA0214601
:101A200000F02EF9FFF742F840F2600040F208089B
:101A3000C2F200000024C2F200084FF0FF0A00F1D9
:101A4000780BC4F2343407ADCDF814B098F8000028
:101A50004238332800F27280DFE800F01A3C7070E0
:101A60007070707070707070707070702370704DE6
:101A70007070707070707070707070582F3E704918
:101A8000707069707070705F707070702170703AF3
:101A90000620FFF7BFFDA0B94FF4E1304CE0032072
:101AA00000E00620FFF784FD002847D042F6BA2068
:101AB000C0F6000000F05EFD40E00220FFF7AAFD46
:101AC000C0B342F6A820C0F6000000F053FD35E098
:101AD000062011E01E2000E00220FFF739FD68B368
:101AE00042F69720C0F6000000F044FD26E0FFF724
:101AF0004DFEA8B922E00020FFF704FDF0B142F648
:101B0000CC20C0F6000000F035FD17E0FFF7D6FD51
:101B1000A0B151A000F02EFD10E0FFF70DFE68B15E
:101B200042F6E320C0F6000000F024FD06E0FEF7D8
:101B3000BDFF03E04FF41650FFF756FA88F800A0F7
:101B400099F8000000283FF481AF00265F4600BFEF
:101B500037F9020FFEF75EFB4FF06051FEF728FBEE
:101B60002146FEF725FBA85104360C2EF0D199F83A
:101B70000000C00705D099F8000000F0FE0089F8C9
:101B8000000099F80000800705D599F8000000F0E2
:101B9000FD0089F8000099F80000400728D5DDE92C
:101BA000070AC146DDF82480FEF73DFB069050464B
:101BB0008B464FF0FF0AFEF736FB074640460E46BF
:101BC000C846FEF730FB069A029029A040F2801921
:101BD0005B46DDF814B0CDE90076C2F2000903914E
:101BE00000F04EF899F8000000F0FB0089F80000C2
:101BF00099F8000000077FF529AF99F8000000F080
:101C0000F70089F8000021E72564206261756420EF
:101C100066696E642073656E736F720D0A0D0A003B
:101C200063616E206E6F742066696E642073656EEA
:101C3000736F720D00000000706C65617365206346
:101C40006865636B20796F757220636F6E6E656374
:101C500074696F6E0D0000000D0A536574204163B6
:101C60006343616C69204572726F720D0000000061
:101C7000252E33662C252E33662C252E33660A003E
:101C80000FB4054B10B503A9044A029800F0DAF826
:101C900010BC5DF814FB0000511900080000002082
:101CA00002E008C8121F08C1002AFAD17047704725
:101CB000002001E001C1121F002AFBD17047000083
:101CC0002DE9FF5F82B00021DDE90430020DDDF86F
:101CD00040B0034318D044F61050A2F2FF32424302
:101CE0001514119801281FD0A5EB0B00401C5FEACA
:101CF000000A4FF000064E4FDFF83891B0465046CC
:101D000015D5CAF1000413E0119801244AA3012853
:101D100001D16FEA0B010298119AC0E90031C0E9C4
:101D2000024206B0BDE8F09FCBF10000DFE70446B9
:101D30000021404A491842EB0450CDE9001012E05E
:101D4000E00707D032463B4640464946FEF7A3FB34
:101D50008046894632463B4610461946FEF79BFBB5
:101D600006460F466410002CEAD1DDE90401DDE9E6
:101D70000023BAF1000F06DAFEF78DFB42464B4610
:101D8000FEF789FB05E0FEF7F8FB42464B46FEF7FF
:101D9000F4FB04460E460022284BFEF775FC03D8E0
:101DA0004FF0FF30014607E00022254B2046314628
:101DB000FEF7CAFAFEF750FC102409E0002C0ADBFB
:101DC0000A220023FEF758FA039B30321A55641E8C
:101DD00050EA0102F2D1641C039AC4F111031444C5
:101DE000119A012A03D0012208430DD10AE00843C9
:101DF00004D000204FF0110B119072E7A3EB0B05FC
:101E00006D1E0DE05B4504DD4FF0000205F101059C
:101E100004E003DA4FF00002A5F10105002AECD03E
:101E200002981199C0E90231C0E9004579E7000044
:101E3000000014400000F03F300000000000F043BC
:101E40000000E03F2DE9FF4F95B09B4689460646CE
:101E500000250FE2252877D100242746F84A0121E2
:101E6000059400E0044316F8013F203B01FA03F01B
:101E70001042F7D130782A2811D06FF02F03307834
:101E8000A0F13002092A16D8059A44F0020402EBA8
:101E9000820203EB42021044761C0590EFE759F8EA
:101EA000042B0592002A03DA504244F400540590B2
:101EB00044F00204761C30782E2816D116F8010F53
:101EC00044F004042A280DD06FF02F023078A0F1DE
:101ED0003003092B09D807EB870302EB4303C7182C
:101EE000761CF3E759F8047B761C30786C280FD009
:101EF00006DC4C2817D068280DD06A2814D104E0DD
:101F0000742810D07A280FD10DE044F400140AE0B0
:101F100044F4801401E044F440147278824202D107
:101F200004F58014761C761C307866280BD013DC00
:101F3000582877D009DC002875D04528F6D04628E7
:101F4000F4D047281AD19DE118E0632835D06428E1
:101F500079D0652812D195E1702873D008DC672804
:101F6000F1D069286FD06E280DD06F2806D1B5E06A
:101F700073282CD0752875D0782874D05A461799B4
:101F800090476D1C75E1C4F30250022809D0032864
:101F90000DD0D9F8001004280DD00D6009F1040906
:101FA00067E1D9F80010EA17C1E90052F6E7D9F85D
:101FB00000100D80F2E70D70F0E719F8041B8DF8A2
:101FC000001000208DF80100EA46012003E059F8D6
:101FD00004AB4FF0FF3061074FF0000102D40DE079
:101FE00008F101018846B9420FDA8045F8DB1AF89A
:101FF00008100029F4D108E008F101018846814267
:10200000FADB1AF808100029F6D105985B46A0EB18
:10201000080721463846179A00F094FA284400EB46
:10202000080507E04DE029E10DE01AF8010B5A46DA
:1020300017999047B8F10108F7D25B462146384618
:10204000179A13E142E00A220092C4F302524FF0C1
:10205000000A022A08D059F804CB032A4FEAEC718F
:102060000AD00DE029E02AE009F1070121F007027A
:10207000F2E802C1914609E00FFA8CFC4FEAEC71DC
:10208000042A03D14FFA8CFC4FEAEC71002907DADD
:102090000A460021DCF1000C61EB02012D2202E076
:1020A000220504D52B228DF80420012203E0E2074B
:1020B00001D02022F7E7904659E00A2102E01022E1
:1020C0000DE010214FF0000A00910BE010224FF0BC
:1020D000000A44F004040827009203E008224FF0AD
:1020E000000A0092C4F30252022A05D059F804CB28
:1020F0000021032A08D009E009F1070121F00702B5
:10210000F2E802C1914605E01FFA8CFC042A01D1D5
:102110000CF0FF0C4FF00008220728D5702806D0DD
:10212000009B83F0100353EA0A0305D00EE040221F
:102130008DF80420012208E05CEA010206D030227A
:102140008DF804208DF8050002229046009B83F054
:10215000080353EA0A030AD15CEA010201D16207CB
:1021600005D530228DF804204FF001087F1E582835
:1021700004D034A003900EA802900DE036A0F9E739
:1021800053466046009AFEF777F884460398825CCF
:102190000298401E029002705CEA0100F0D10298A1
:1021A00006A9081A00F1200A600702D524F4803439
:1021B00000E00127574502DDA7EB0A0000E0002000
:1021C00000EB0A01009005984144401A0590E00395
:1021D00006D45B462146179A059800F0B3F90544EA
:1021E000002706E001A85A46C05D179990476D1C6C
:1021F0007F1C4745F6DBE0030CD55B462146179A6A
:10220000059800F09FF9054404E030205A461799DC
:1022100090476D1C0099481E00900029F5DC08E0ED
:10222000029802995A460078491C029117999047E2
:102230006D1CBAF10001AAF1010AF1DC65E10000B0
:10224000092801003031323334353637383961628C
:102250006364656600000000303132333435363750
:1022600038394142434445460000000000F058F927
:102270000544761C307800287FF4ECAD19B0284670
:10228000BDE8F08F620700D4062709F1070222F0AB
:10229000070CFCE80223E14603F000485FEA080C63
:1022A00002D00FF2702C0DE05FEA045C02D50FF251
:1022B000682C07E05FEAC47C02D00FF2602C01E0DA
:1022C000AFF2700C4FF0FF3823F00043CDF850C050
:1022D00065280CD006DC452809D046281DD04728A3
:1022E0003DD13DE0662818D067287ED138E0002136
:1022F000112F01DB112000E0781CCDE9000106A9B7
:102300000EA8FFF7DDFCDDE90F010E9A0391002115
:10231000009207F1010A04914DE04FF00040009750
:10232000CDE9011006A90EA8FFF7CAFCDDE90F02EE
:1023300003920E9B11990022DDF80CA000930492E9
:1023400011B9791C00EB010AB7EB0A0004D4C0F103
:10235000FF3007F1010A0490AAEB0700019044E066
:10236000012F00DA01270021112F01DD112000E0EB
:102370003846CDE9000106A90EA8FFF7A1FCDDE96A
:102380000F010E9A0391002104910092BA46210791
:102390000CD40399514500DA8A46BAF1010F05DDE4
:1023A000009AAAF10101515C302908D0B84202DA42
:1023B00010F1040F06DA0121CDE9011015E0AAF1B0
:1023C0000101E9E7002805DC049901440491AAEB26
:1023D000000102E0411C514500DD8A460499401A83
:1023E000401C01904FF000400290200704D4019857
:1023F000504501DBCDF8048000208DF84F00029895
:102400000DF14F07B0F1004F25D02B200E90029810
:102410004FF0020800280CDA404202902D200E9066
:1024200007E00A210298FDF711FF3031029007F80A
:10243000011DB8F10001A8F10108F2DC02980028A2
:10244000EFD1791E0E980870307800F0200040F02F
:10245000450007F8020D12A8C01B00F107081498E8
:10246000007800B1012000EB0A01019801EBE07156
:1024700005984144401A401E0590E00306D45B468F
:102480002146179A059800F05DF8054414980078E5
:1024900018B15A46179990476D1CE00324D55B4646
:1024A0002146179A059800F04DF805441CE0049861
:1024B000002807DBDDE90301884203DD0098405C6A
:1024C000179901E0179930205A469047049805F172
:1024D0000105401C04900198401E019004D12E205B
:1024E0005A46179990476D1CBAF10001AAF1010AEA
:1024F000DDDC05E017F8010B5A46179990476D1C73
:10250000B8F10001A8F10108F4DC5B462146179AF6
:102510000598ABE62D0000002B0000002000000015
:102520002DE9F041044600251E461746880404D4D0
:1025300005E039462020B0476D1C641EF9D52846B9
:10254000BDE8F0812DE9F041044600251E46904685
:10255000C80301D5302700E02027880404D505E012
:1025600041463846B0476D1C641EF9D52846BDE883
:10257000F081000010B5044601E0FFF7E9F914F816
:10258000010B04490028F8D1BDE810400A20FFF7EC
:10259000DFB900000000002002040608000000006F
:1025A00001020304010203040607080900C1814077
:1025B00001C0804101C0804100C1814001C0804113
:1025C00000C1814000C1814001C0804101C0804103
:1025D00000C1814000C1814001C0804100C18140F3
:1025E00001C0804101C0804100C1814001C08041E3
:1025F00000C1814000C1814001C0804100C18140D3
:1026000001C0804101C0804100C1814000C18140C2
:1026100001C0804101C0804100C1814001C08041B2
:1026200000C1814000C1814001C0804101C08041A2
:1026300000C1814000C1814001C0804100C1814092
:1026400001C0804101C0804100C1814000C1814082
:1026500001C0804101C0804100C1814001C0804172
:1026600000C1814000C1814001C0804100C1814062
:1026700001C0804101C0804100C1814001C0804152
:1026800000C1814000C1814001C0804101C0804142
:1026900000C1814000C1814001C0804100C1814032
:1026A00001C0804101C0804100C1814000C0C10122
:1026B000C30302C2C60607C705C5C404CC0C0DCDB2
:1026C0000FCFCE0E0ACACB0BC90908C8D81819D922
:1026D0001BDBDA1A1EDEDF1FDD1D1CDC14D4D51552
:1026E000D71716D6D21213D311D1D010F03031F142
:1026F00033F3F23236F6F737F53534F43CFCFD3D72
:10270000FF3F3EFEFA3A3BFB39F9F83828E8E92961
:10271000EB2B2AEAEE2E2FEF2DEDEC2CE42425E511
:1027200027E7E62622E2E323E12120E0A06061A181
:1027300063A3A26266A6A767A56564A46CACAD6D31
:10274000AF6F6EAEAA6A6BAB69A9A86878B8B979A1
:10275000BB7B7ABABE7E7FBF7DBDBC7CB47475B5D1
:1027600077B7B67672B2B373B17170B050909151C1
:102770009353529296565797559594549C5C5D9DF1
:102780005F9F9E5E5A9A9B5B9959589888484989E1
:102790004B8B8A4A4E8E8F4F8D4D4C8C4484854591
:1027A0008747468682424383418180400000000083
:1027B000C012000080250000004B000000960000C1
:1027C00000E1000000C201000084030000080700CF
:1027D00000100E000D0A2A2A2A2A2A2A2A2A2A2A20
:1027E0002A2A2A2A2A2A2A2A2A2A2A2A2A2A20205D
:1027F000202020202020202048454C502020202030
:10280000202020202020202A2A2A2A2A2A2A2A2A6E
:102810002A2A2A2A2A2A2A2A2A2A2A2A2A2A2A0D35
:10282000000D0A2A2A2A2A2A2A2A2A2A2A2A2A2A6F
:102830002A2A2A2A2A2A2A2A2A207769742D6D6FA1
:1028400074696F6E206E6F726D616C206578616D5A
:10285000706C6520202A2A2A2A2A2A2A2A2A2A2A29
:102860002A2A2A2A2A2A2A2A2A2A2A2A2A0D002A0F
:102870002A2A2A2A2A2A2A2A2A2A2A2A2A2A2A2AB8
:102880002A2A2A2A2A2A2A2A2A2A2A2A2A2A2A2AA8
:102890002A2A2A2A2A2A2A2A2A2A2A2A2A2A2A2A98
:1028A0002A2A2A2A2A2A2A2A2A2A2A2A2A2A2A2A88
:1028B0002A2A2A2A2A2A2A2A2A2A2A2A2A0D005594
:1028C0004152542053454E443A425C725C6E202083
:1028D0002042617564207261746520696E6372655F
:1028E0006173656420746F203131353230302E0DC4
:1028F00000554152542053454E443A625C725C6E1E
:1029000020202042617564207261746520726564C4
:10291000756374696F6E20746F20393630302E0DF8
:1029200000554152542053454E443A435C725C6E0C
:1029300020202042617369632072657475726E2075
:10294000636F6E74656E743A20616363656C657263
:102950006174696F6E2C20616E67756C6172207690
:10296000656C6F636974792C20616E676C652C20CF
:102970006D61676E65746963206669656C642E0DB0
:1029800000554152542053454E443A555C725C6E9A
:1029900020202042616E64776964746820696E63E8
:1029A00072656173652E0D00554152542053454E9A
:1029B000443A615C725C6E202020416363656C6503
:1029C000726174696F6E2063616C696272617469AF
:1029D0006F6E2E0D00554152542053454E443A75AA
:1029E0005C725C6E20202042616E6477696474685A
:1029F00020726564756374696F6E2E0D00554152C7
:102A0000542053454E443A525C725C6E2020205450
:102A100068652072657475726E20726174652069D4
:102A20006E6372656173657320746F203130487A0C
:102A30002E0D00554152542053454E443A6D5C7260
:102A40005C6E2020204D61676E6574696320666945
:102A5000656C642063616C6962726174696F6E2C6D
:102A600041667465722063616C6962726174696F3A
:102A70006E2073656E643A202020655C725C6E2067
:102A80002020746F20696E646963617465207468C6
:102A90006520656E640D000D0A536574205253570E
:102AA000204572726F720D000D0A536574204261E9
:102AB0007564204572726F720D000D0A53657420A3
:102AC00052617465204572726F720D000D0A536574
:102AD000742042616E647769647468204572726F15
:102AE000720D000D0A536574204D616743616C6976
:102AF000204572726F720D000D0A2A2A2A2A2A2A8C
:102B00002A2A2A2A2A2A2A2A2A2A2A2A2A2A2A2A25
:102B10002A2A09205749545F53444B5F44454D4F7F
:102B2000092A2A2A2A2A2A2A2A2A2A2A2A2A2A2A26
:102B30002A2A2A2A2A2A2A2A2A000000602B000888
:102B40000000002010000000A01C0008702B0008EE
:102B50001000002080060000B01C000800000000EB
:102B60000000000000A24A04FFFF00000000000077
:0400000508000131BD
:00000001FF
