:020000040800F2
:1000000000000824CD4800089542000897420008E7
:10001000994200089B4200089D4200080000000031
:100020000000000000000000000000009F420008E7
:10003000A142000800000000A3420008A5420008F9
:1000400021490008214900082149000821490008E8
:1000500021490008214900082149000821490008D8
:1000600021490008214900082149000821490008C8
:1000700021490008214900082149000821490008B8
:1000800021490008214900082149000821490008A8
:100090002149000821490008214900082149000898
:1000A0002149000821490008214900082149000888
:1000B0002149000821490008214900082149000878
:1000C0002149000821490008214900082149000868
:1000D0002149000821490008214900082149000858
:1000E00021490008214900080000000021490008BA
:1000F0002149000821490008214900082149000838
:100100002149000821490008214900082149000827
:100110002149000821490008214900082149000817
:100120002149000821490008214900082149000807
:1001300021490008214900082149000821490008F7
:1001400000000000000000000000000000000000AF
:1001500021490008214900082149000821490008D7
:1001600021490008214900082149000821490008C7
:1001700021490008214900082149000821490008B7
:1001800021490008214900082149000821490008A7
:100190002149000821490008214900082149000897
:1001A0002149000821490008214900082149000887
:1001B0002149000821490008214900082149000877
:1001C0002149000821490008214900082149000867
:1001D0002149000821490008214900082149000857
:1001E0002149000821490008214900082149000847
:1001F0002149000821490008214900082149000837
:100200002149000821490008214900082149000826
:100210002149000821490008AD4200082149000891
:100220002149000821490008214900080000000078
:100230002149000821490008000000002149000868
:1002400021490008214900082149000821490008E6
:1002500021490008214900082149000821490008D6
:1002600021490008214900082149000821490008C6
:100270002149000821490008214900080000000028
:100280002149000821490008214900080000000018
:080290000000000021490008F4
:1002980080F0004002E000BF81F0004142001FBF33
:1002A8005FEA410392EA030F7FEA226C7FEA236C3C
:1002B8006AD04FEA1262D2EB1363C1BFD218414031
:1002C80048404140B8BF5B42192B88BF704710F0C7
:1002D800004F40F4000020F07F4018BF404211F06A
:1002E800004F41F4000121F07F4118BF494292EAD2
:1002F800030F3FD0A2F1010241FA03FC10EB0C00FE
:10030800C3F1200301FA03F100F0004302D549428A
:1003180060EB4000B0F5000F13D3B0F1807F06D337
:1003280040084FEA310102F10102FE2A51D2B1F12F
:10033800004F40EBC25008BF20F0010040EA030024
:100348007047490040EB0000013A28BFB0F5000FA4
:10035800EDD2B0FA80FCACF1080CB2EB0C0200FA5A
:100368000CF0AABF00EBC25052421843BCBFD040A9
:100378001843704792F0000F81F4000106BF80F423
:1003880000000132013BB5E74FEA41037FEA226CE6
:1003980018BF7FEA236C21D092EA030F04D092F0B1
:1003A800000F08BF0846704790EA010F1CBF0020E5
:1003B800704712F07F4F04D1400028BF40F0004042
:1003C800704712F100723CBF00F50000704700F062
:1003D800004343F0FE4040F4000070477FEA226289
:1003E80016BF08467FEA23630146420206BF5FEA5A
:1003F800412390EA010F40F4800070474FF000035A
:1004080004E000BF10F0004348BF40425FEA000C20
:1004180008BF704743F0964301464FF000001CE0C8
:1004280050EA010208BF70474FF000030AE000BF1E
:1004380050EA010208BF704711F0004302D540425C
:1004480061EB41015FEA010C02BF844601460020CE
:1004580043F0B64308BFA3F18053A3F50003BCFAE9
:100468008CF2083AA3EBC25310DB01FA02FC634496
:1004780000FA02FCC2F12002BCF1004F20FA02F29D
:1004880043EB020008BF20F00100704702F1200290
:1004980001FA02FCC2F1200250EA4C0021FA02F2F1
:1004A80043EB020008BF20EADC7070474FF0FF0CF6
:1004B8001CEAD0521EBF1CEAD15392EA0C0F93EAF1
:1004C8000C0F6FD01A4480EA010C400218BF5FEA93
:1004D80041211ED04FF0006343EA501043EA511106
:1004E800A0FB01310CF00040B1F5000F3EBF490000
:1004F80041EAD3715B0040EA010062F17F02FD2A04
:100508001DD8B3F1004F40EBC25008BF20F00100E6
:10051800704790F0000F0CF0004C08BF49024CEAFD
:10052800502040EA51207F3AC2BFD2F1FF0340EA8F
:10053800C250704740F400004FF00003013A5DDC00
:1005480012F1190FDCBF00F000407047C2F1000241
:10055800410021FA02F1C2F1200200FA02FC5FEA2E
:10056800310040F1000053EA4C0308BF20EADC7078
:10057800704792F0000F00F0004C02BF400010F4EA
:10058800000F013AF9D040EA0C0093F0000F01F097
:10059800004C02BF490011F4000F013BF9D041EAB9
:1005A8000C018FE70CEAD15392EA0C0F18BF93EABB
:1005B8000C0F0AD030F0004C18BF31F0004CD8D1E5
:1005C80080EA010000F00040704790F0000F17BF6C
:1005D80090F0004F084691F0000F91F0004F14D0B2
:1005E80092EA0C0F01D142020FD193EA0C0F03D10A
:1005F8004B0218BF084608D180EA010000F000400D
:1006080040F0FE4040F40000704740F0FE4040F4E7
:10061800400070474FF0FF0C1CEAD0521EBF1CEA86
:10062800D15392EA0C0F93EA0C0F69D0A2EB0302A4
:1006380080EA010C49024FEA402037D04FF080533E
:1006480043EA111143EA10130CF000408B4238BF03
:100658005B0042F17D024FF4000C8B4224BF5B1A11
:1006680040EA0C00B3EB510F24BFA3EB510340EA5F
:100678005C00B3EB910F24BFA3EB910340EA9C000D
:10068800B3EBD10F24BFA3EBD10340EADC001B017D
:1006980018BF5FEA1C1CE0D1FD2A3FF650AF8B4221
:1006A80040EBC25008BF20F0010070470CF0004C2E
:1006B8004CEA50207F32C2BFD2F1FF0340EAC25059
:1006C800704740F400004FF00003013A37E792F01A
:1006D800000F00F0004C02BF400010F4000F013A78
:1006E800F9D040EA0C0093F0000F01F0004C02BF73
:1006F800490011F4000F013BF9D041EA0C0195E7DC
:100708000CEAD15392EA0C0F08D142027FF47DAF74
:1007180093EA0C0F7FF470AF084676E793EA0C0F64
:1007280004D14B023FF44CAF08466EE730F0004C62
:1007380018BF31F0004CCAD130F000427FF45CAFF2
:1007480031F000437FF43CAF5FE700BF42000ED2B8
:10075800B2F1FE4F0BD34FF09E03B3EB126209D4F4
:100768004FEA002343F0004323FA02F070474FF0AA
:100778000000704712F1610F01D1420202D14FF01F
:10078800FF3070474FF00000704700BF53B94AB9B7
:10079800002908BF00281CBF4FF0FF314FF0FF3081
:1007A80000F00CB8ADF1080C6DE904CE04F0B6F811
:1007B800DDF804E0DDE9022304B07047704700BFAC
:1007C8000348044B834202D0034B03B118477047D8
:1007D8001400002414000024000000000548064B03
:1007E8001B1AD90F01EBA301491002D0034B03B127
:1007F800184770471400002414000024000000006B
:1008080010B5064C237843B9FFF7DAFF044B13B150
:100818000448AFF300800123237010BD14000024A6
:1008280000000000A44D000808B5054B1BB10549A0
:100838000548AFF30080BDE80840FFF7CFBF00BF11
:100848000000000018000024A44D0008104B1B787D
:100858000BB90120704710B504464FF47A70B0FB0D
:10086800F3F30C4A1068B0FBF3F000F0C3F868B972
:100878000F2C01D901200AE0002221464FF0FF3059
:1008880000F0A4F8044B1C60002000E0012010BD1B
:10089800000000240C0000240400002410B50320EC
:1008A80000F082F800F09AFD0F498B69C3F3032327
:1008B8000E4AD35C03F01F03D8408B6903F00F0383
:1008C800D35C03F01F0320FA03F3094A1360094BB2
:1008D80018600F20FFF7BAFF10B10124204610BDA1
:1008E800044603F0C1FCF9E700440258E44D00084F
:1008F800080000240C000024034B1B78034A1168ED
:100908000B441360704700BF00000024300000242F
:10091800014B1868704700BF30000024014B18686D
:10092800000C70470010005C002807DB00F01F0275
:10093800400901239340024A42F82030704700BF23
:1009480000E100E0002804DB0901C9B2044B195496
:10095800704700F00F000901C9B2024B19547047E3
:1009680000E400E014ED00E000B500F00700C0F17D
:10097800070CBCF1040F28BF4FF0040C031D062B15
:100988000FD9C31E4FF0FF3E0EFA0CF021EA00010A
:1009980099400EFA03FE22EA0E0241EA02005DF8CF
:1009A80004FB0023EEE700000649CB6823F4E0636C
:1009B8001B041B0C000200F4E0600343024A1A43C4
:1009C800CA60704700ED00E00000FA0510B5044663
:1009D800054BD868C0F30220FFF7C6FF0146204642
:1009E800FFF7B0FF10BD00BF00ED00E008B5FFF74E
:1009F8009BFF08BD0138B0F1807F0BD24FF0E02398
:100A08005861054AF02182F82310002098610722D6
:100A18001A6170470120704700ED00E0BFF35F8F57
:100A2800044B5A6A22F480325A620022C3F8942096
:100A3800704700BF00ED00E040F00100054BC3F82F
:100A480094005A6A42F480325A62BFF34F8FBFF360
:100A58006F8F704700ED00E04378144AC2F8983071
:100A6800D2F8A03023F00103C2F8A0304368C2F8DE
:100A78009C30017BC37A1B0643EA0173817A43EAFF
:100A8800C143417B43EA8143817B43EA4143C17BC4
:100A980043EA0143417A43EA0123017A43EA4103E5
:100AA80001780B43C2F8A030704700BF00ED00E0AA
:100AB80070B582B000236EE085685E000324B44000
:100AC80025EA0405CC68B4402C438460456825EACF
:100AD8000C054C68C4F300149C402C4344606DE042
:100AE800DD08083550F8254003F0070C4FEA8C0C58
:100AF8004FF00F0E0EFA0CFE24EA0E0E0C6904FAE3
:100B08000CF444EA0E0440F825406FE0092400E0A4
:100B1800002404FA0EF42C430CF1020C6B4D45F83A
:100B28002C404FF0B0442568D44325EA0206D1F89A
:100B380004C01CF4801F01D042EA05064FF0B045FE
:100B48002E606D6804EA0506D1F804C01CF4001F85
:100B580001D042EA05064FF0B0456E60D5F88450E2
:100B680004EA0506D1F804C01CF4003F01D042EAAB
:100B780005064FF0B045C5F88460D5F880502C4084
:100B88004E6816F4803F01D042EA05044FF0B042A7
:100B9800C2F8804001330A6832FA03F400F0938007
:100BA8004FF0010C0CFA03FC1CEA0202F2D04C686C
:100BB80004F00304013C012C7FF67EAF4C6804F07E
:100BC8000304032C0CD0C4685D004FF0030C0CFA2E
:100BD80005FC24EA0C0C8C68AC4044EA0C04C460A4
:100BE8004C6804F00304022C3FF47AAF04684FEA1F
:100BF800430E4FF0030C0CFA0EFC24EA0C0C4C6864
:100C080004F0030404FA0EF444EA0C0404604C688B
:100C180014F4403FBED02E4CD4F8F45045F00205F1
:100C2800C4F8F450D4F8F44004F002040194019C90
:100C38004FEA930C0CF10205244C54F8255003F0AC
:100C4800030E4FEA8E0E0F2404FA0EF425EA04056B
:100C5800204CA0423FF45CAF04F58064A04222D04F
:100C680004F58064A04220D004F58064A0421ED020
:100C780004F58064A0421CD004F58064A0421AD018
:100C880004F58064A04218D004F58064A04216D010
:100C980004F58064A04214D004F58064A0423FF4B7
:100CA80035AF0A2435E7012433E7022431E703246A
:100CB8002FE704242DE705242BE7062429E707243A
:100CC80027E7082425E702B070BD00BF00040058DC
:100CD8000044025800000258134BDB6813F0040F5D
:100CE80007D1114BDB6803F0070383421AD00120B8
:100CF800704710B50C4AD36823F007030343D36049
:100D0800FFF706FE0446084B5B6813F4005F07D143
:100D1800FFF7FEFD001BB0F57A7FF4D9012000E053
:100D2800002010BD0020704700480258002800F03D
:100D3800398338B50446036813F0010F25D0944A67
:100D4800136903F03803926A102B15D0182B0FD0B3
:100D58006368B3F5803F3FD0002B53D18C4B1A68A2
:100D680022F480321A601A6822F480221A6038E06D
:100D780002F00302022AEBD1854B1B6813F4003FF3
:100D880003D06368002B00F00F83236813F0020F71
:100D980000F0A1807E4A1369926A13F038035AD092
:100DA800182B55D0E368002B00F0DE8078490A68DC
:100DB80022F0190213430B60FFF7AAFD0546744B96
:100DC8001B6813F0040F40F0AD80FFF7A1FD401B36
:100DD8000228F4D90320EEE26D4A136843F4803305
:100DE800136063682BB3FFF793FD0546684B1B68D8
:100DF80013F4003FC9D1FFF78BFD401B6428F5D9D8
:100E08000320D8E2B3F5A02F09D0614B1A6822F469
:100E180080321A601A6822F480221A60E1E75C4B7B
:100E28001A6842F480221A601A6842F480321A6002
:100E3800D7E7FFF76DFD0546554B1B6813F4003FD8
:100E4800A3D0FFF765FD401B6428F5D90320B2E263
:100E580012F0030FA6D14E4B1B6813F0040F03D0FA
:100E6800E368002B00F0A282494A136823F01903B3
:100E7800E1680B431360FFF74BFD0546444B1B68C5
:100E880013F0040F06D1FFF743FD401B0228F5D9E4
:100E9800032090E2FFF742FD41F20303984212D883
:100EA8002269402A07D03A494B6823F47C3343EA45
:100EB80002334B600FE0364A536823F47C3343F423
:100EC8000033536007E0324A536823F0FE43216938
:100ED80043EA01635360236813F0100F00F0888021
:100EE8002B4A136903F03803926A082B56D0182B43
:100EF80050D0E369002B00F0B880254A136843F00E
:100F080080031360FFF704FD0546214B1B6813F4AB
:100F1800807F40F08880FFF7FBFC401B0228F4D953
:100F2800032048E2FFF7FAFC41F20303984212D883
:100F38002269402A07D016494B6823F47C3343EAD8
:100F480002334B60C7E7124A536823F47C3343F4F7
:100F580000335360BFE70E4A536823F0FE4321690C
:100F680043EA01635360B6E7094A136823F00103B3
:100F78001360FFF7CDFC0546054B1B6813F0040F03
:100F8800A9D0FFF7C5FC401B0228F5D9032012E2BF
:100F98000044025802F00302012AAAD1A14B1B689F
:100FA80013F4807F03D0E369802B40F00182FFF7C0
:100FB800B5FC41F20303984212D8226A202A07D0CE
:100FC80098494B6823F0F84343EA82634B600FE08B
:100FD800944A536823F0F84343F08043536007E092
:100FE800904AD36823F07C53216A43EA0163D360B3
:100FF800236813F0080F60D06369002B49D0894A31
:10100800536F43F001035367FFF782FC0546854B96
:101018005B6F13F0020F50D1FFF77AFC401B0228D8
:10102800F5D90320C7E1FFF779FC41F203039842A1
:1010380012D8226A202A07D07A494B6823F0F8434D
:1010480043EA82634B60D3E7764A536823F0F84358
:1010580043F080435360CBE7724AD36823F07C5354
:10106800216A43EA0163D360C2E76E4A136823F03A
:1010780080031360FFF74CFC05466A4B1B6813F4AA
:10108800807FB5D0FFF744FC401B0228F5D9032028
:1010980091E1644A536F23F001035367FFF738FC6B
:1010A8000546604B5B6F13F0020F06D0FFF730FC6C
:1010B800401B0228F5D903207DE1236813F0200F97
:1010C80029D0A3699BB1574A136843F4805313602E
:1010D800FFF71EFC0546534B1B6813F4005F1AD13B
:1010E800FFF716FC401B0228F5D9032063E14D4A9F
:1010F800136823F480531360FFF70AFC0546494B35
:101108001B6813F4005F06D0FFF702FC401B02289F
:10111800F5D903204FE1236813F0040F21D1636A46
:10112800002B00F047813F4A126902F03802182A62
:1011380000F0EE80022B79D03A4A136823F08073CE
:101148001360FFF7E5FB0446364B1B6813F0007F7E
:1011580000F0DC80FFF7DCFB001B0228F4D9032039
:1011680029E1314A136843F480731360FFF7D0FB19
:1011780005462D4B1B6813F4807F06D1FFF7C8FB8B
:10118800401B6428F5D9032015E1A368012B0AD078
:101198000BBB244B1A6F22F001021A671A6F22F058
:1011A80004021A6704E01F4A136F43F00103136730
:1011B800A36833B3FFF7ACFB05461A4B1B6F13F05C
:1011C800020FACD1FFF7A4FB401B41F288339842D1
:1011D800F3D90320EFE0052B09D0124B1A6F22F048
:1011E80001021A671A6F22F004021A67E0E70D4B32
:1011F8001A6F42F004021A671A6F42F001021A6766
:10120800D6E7FFF785FB0546064B1B6F13F0020F69
:1012180085D0FFF77DFB401B41F288339842F3D914
:101228000320C8E00044025800480258694A13687D
:1012380023F080731360FFF76BFB0546654B1B6853
:1012480013F0007F06D0FFF763FB401B0228F5D997
:101258000320B0E05F4B996A5F4A0A40A16AE06ADE
:1012680041EA00110A439A62226B013AC2F308026A
:10127800616B0139490289B20A43A16B013909043A
:1012880001F4FE010A43E16B0139090601F0FE4150
:101298000A431A63DA6A22F00102DA625A6B6FF3C0
:1012A800CF02A16C42EAC1025A63DA6A22F00C0248
:1012B800216C0A43DA62DA6A22F00202616C0A439C
:1012C800DA62DA6A42F48032DA62DA6A42F40032C6
:1012D800DA62DA6A42F48022DA62DA6A42F00102F9
:1012E800DA621A6842F080721A60FFF711FB04464E
:1012F800384B1B6813F0007F06D1FFF709FB001B72
:101308000228F5D9032056E0002054E0002052E0DE
:10131800304A916A106B012B4ED001F00303A26A88
:1013280093424BD1C1F30511E36A994248D1C0F306
:101338000802236B013B9A4244D1C0F34622636BF7
:10134800013B9A4240D1C0F30642A36B013B9A424B
:101358003CD1C0F30660E36B013B984238D11D4B8A
:101368005B6BC3F3CC03A26C9A4201D1002022E04C
:10137800184AD36A23F00103D362FFF7C9FA054676
:10138800FFF7C6FAA842FBD0124A536B6FF3CF039C
:10139800A16C43EAC1035363D36A43F00103D362E8
:1013A800002008E001207047012004E0012002E04D
:1013B800012000E0002038BD0120FCE70120FAE709
:1013C8000120F8E70120F6E70120F4E70120F2E721
:1013D8000120F0E7004402580CFCFFFFF8B5814BF0
:1013E8001B6903F03803102B00F0F480182B0FD082
:1013F800002B40F0F2807B4B1B6813F0200F00F0AD
:10140800EE80784B1B68C3F3C103774CDC40E2E005
:10141800744B9D6A05F003059C6AC4F30514D86AE9
:1014280000F001005B6BC3F3CC0303FB00F0FEF795
:10143800E5FF0646002C00F0CE80012D56D0022D87
:1014480000F08480002D40F0A380664B1B6813F0E9
:10145800200F29D0634F3B68C3F3C1036248D840CB
:10146800FEF7CCFF05462046FEF7C8FF0146284692
:10147800FFF7D0F80446386BC0F30800FEF7BEFF4C
:1014880005464FF064513046FFF710F801462846EC
:10149800FEF704FF4FF07E51FEF700FF014620469D
:1014A800FFF704F8044642E02046FEF7A7FF01468E
:1014B8004E48FFF7AFF804464A4B186BC0F30800D4
:1014C800FEF79CFF05464FF064513046FEF7EEFFED
:1014D80001462846FEF7E2FE4FF07E51FEF7DEFE9B
:1014E80001462046FEF7E2FF044620E02046FEF7CC
:1014F80085FF01463E48FFF78DF80446394B186BC7
:10150800C0F30800FEF77AFF05464FF064513046F5
:10151800FEF7CCFF01462846FEF7C0FE4FF07E518D
:10152800FEF7BCFE01462046FEF7C0FF04462D4BE1
:101538001B6BC3F34623581CFEF760FF0146204689
:10154800FFF768F8FFF702F9044644E02046FEF783
:1015580055FF01462748FFF75DF80446214B186BF5
:10156800C0F30800FEF74AFF05464FF064513046C5
:10157800FEF79CFF01462846FEF790FE4FF07E518D
:10158800FEF78CFE01462046FEF790FF0446CEE7A4
:101598002046FEF733FF01461548FFF73BF804469F
:1015A800104B186BC0F30800FEF728FF05464FF0F4
:1015B80064513046FEF77AFF01462846FEF76EFE74
:1015C8004FF07E51FEF76AFE01462046FEF76EFF99
:1015D8000446ACE7084C2046F8BD084CFBE7024C33
:1015E800F9E700BF004402580090D0030024744C6F
:1015F8000024744A20BCBE4B40787D0100093D00A0
:10160800002800F0328170B50D4604469B4B1B68DC
:1016180003F00F038B420BD2984A136823F00F0391
:101628000B431360136803F00F038B4240F01F81D4
:10163800236813F0040F0CD02269914B9B6903F0C7
:1016480070039A4205D98E498B6923F070031A43B7
:101658008A61236813F0080F0CD06269884BDB6934
:1016680003F070039A4205D98549CB6923F07003CA
:101678001A43CA61236813F0100F0CD0A269804B7B
:10168800DB6903F4E0639A4205D97D49CB6923F409
:10169800E0631A43CA61236813F0200F0CD0E26993
:1016A800774B1B6A03F070039A4205D974490B6A99
:1016B80023F070031A430A62236813F0020F0CD058
:1016C800E2686F4B9B6903F00F039A4205D96C4996
:1016D8008B6923F00F031A438A61236813F0010F03
:1016E80041D0674A936923F47063A1680B439361FF
:1016F8006368022B0AD0032B27D0012B2CD0604A19
:10170800126812F0040F06D10120ADE0126812F43D
:10171800003F00F0AE805A490A6922F007021343DD
:101728000B61FFF7F5F80646554B1B6903F03803C4
:101738006268B3EBC20F16D0FFF7EAF8801B41F2DC
:1017480088339842F0D903208EE04D4A126812F08F
:10175800007FE0D1012087E0494A126812F4807FB7
:10176800D9D1012080E0236813F0020F0CD0E26881
:10177800434B9B6903F00F039A4205D240498B699A
:1017880023F00F031A438A613C4B1B6803F00F03D5
:10179800AB420AD9394A136823F00F032B4313606D
:1017A800136803F00F03AB4265D1236813F0040FED
:1017B8000CD02269324B9B6903F070039A4205D220
:1017C8002F498B6923F070031A438A61236813F049
:1017D800080F0CD062692A4BDB6903F070039A4248
:1017E80005D22749CB6923F070031A43CA612368DD
:1017F80013F0100F0CD0A269214BDB6903F4E063EE
:101808009A4205D21E49CB6923F4E0631A43CA61A0
:10181800236813F0200F0CD0E269194B1B6A03F000
:1018280070039A4205D216490B6A23F070031A43D3
:101838000A62FFF7D3FD12498B69C3F30323114AE8
:10184800D35C03F01F03D8408B6903F00F03D35C0C
:1018580003F01F0320FA03F30B4A13600B4B1860C5
:101868000B4B1868FEF7F2FF70BD0120704701208E
:10187800FAE70120F8E70120F6E700BF0020005250
:1018880000440258E44D0008080000240C0000241D
:101898000400002408B5FFF7A1FD0B4A9369C3F3C0
:1018A80003230A49CB5C03F01F0320FA03F3926970
:1018B80002F00F02885C00F01F0023FA00F0044ACF
:1018C8001060044A136008BD00440258E44D000843
:1018D800080000240C00002408B5FFF7DBFF054BC7
:1018E800DB69C3F30213044AD35C03F01F03D84037
:1018F80008BD00BF00440258E44D000808B5FFF7D2
:10190800C9FF054BDB69C3F30223044AD35C03F028
:101918001F03D84008BD00BF00440258E44D00082A
:10192800404B9B6A03F00303032B79D070B505463F
:101938000E463C4A136823F080631360FEF7E8FF05
:101948000446384B1B6813F0006F06D0FEF7E0FF23
:10195800031B022BF5D9032070BD324B9A6A22F47F
:101968007C32296842EA01329A626A68013AC2F313
:101978000802A9680139490289B20A43E9680139AC
:10198800090401F4FE010A4329690139090601F035
:10199800FE410A439A63DA6A22F0C00269690A437F
:1019A800DA62DA6A22F02002A9690A43DA62DA6A9C
:1019B80022F01002DA62DA6B6FF3CF02E96942EAC9
:1019C800C102DA63DA6A42F01002DA62C6B91A466C
:1019D800DB6A43F40023D362124A136843F080633E
:1019E8001360FEF795FF04460E4B1B6813F0006F5B
:1019F80014D1FEF78DFF001B0228F5D90320ABE7B1
:101A0800012E05D0074AD36A43F40013D362E3E7F3
:101A1800044AD36A43F48013D362DDE700209BE7CE
:101A28000120704700440258404B9B6A03F00303AF
:101A3800032B79D070B505460E463C4A136823F04F
:101A480080531360FEF764FF0446384B1B6813F09D
:101A5800005F06D0FEF75CFF031B022BF5D90320BD
:101A680070BD324B9A6A22F07C72296842EA0152B0
:101A78009A626A68013AC2F30802A9680139490200
:101A880089B20A43E9680139090401F4FE010A43ED
:101A980029690139090601F0FE410A431A64DA6A24
:101AA80022F4406269690A43DA62DA6A22F400724F
:101AB800A9690A43DA62DA6A22F48072DA625A6C35
:101AC8006FF3CF02E96942EAC1025A64DA6A42F462
:101AD8008072DA62C6B91A46DB6A43F48003D362BD
:101AE800124A136843F080531360FEF711FF04464F
:101AF8000E4B1B6813F0005F14D1FEF709FF001BA3
:101B08000228F5D90320ABE7012E05D0074AD36A8E
:101B180043F08073D362E3E7044AD36A43F40003D3
:101B2800D362DDE700209BE701207047004402589C
:101B3800F8B50446036813F0006F30D0836EB3F530
:101B4800001F26D00ED8ABB1B3F5801F07D10221F4
:101B58000830FFF7E5FE054695B12E4621E001263F
:101B680035461EE0B3F5401F01D1002508E00126E7
:101B7800354616E0984AD36A43F40033D362002509
:101B8800954A136D23F44013A16E0B431365002689
:101B980007E002212830FFF747FF0546DCE700266B
:101BA8003546236813F4807F14D0A36D042B31D8F5
:101BB800DFE803F0032229080800874AD36A43F4C0
:101BC8000033D3624DBB844A136D23F00703A16D24
:101BD8000B431365236813F4007F38D0E36D802B23
:101BE8004AD01FD833B3402B19D1002104F1080083
:101BF800FFF796FE054622E0002104F10800FFF7F2
:101C08008FFE0546DEE7002104F12800FFF70CFFF0
:101C18000546D7E701263546DCE72E46DAE70126F2
:101C2800354614E0C02B0AD0B3F5807F07D00126D3
:101C380035460CE0684AD36A43F40033D36215BBD7
:101C4800654A136D23F4E073E16D0B431365236854
:101C580013F4806F3CD0D4F8A830B3F5800F2FD0A0
:101C680016D8F3B1B3F5001F0FD1002104F1080015
:101C7800FFF756FE054619E0002104F12800FFF79A
:101C8800D3FE0546DBE72E46E1E7012635461FE091
:101C9800B3F5C00F0AD0B3F5000F07D001263546BB
:101CA80016E04D4AD36A43F40033D3627DB94A4AF9
:101CB800936D23F46003D4F8A8100B43936507E0F1
:101CC800002104F12800FFF7AFFE0546EEE72E4697
:101CD800236813F4006F2BD0D4F8AC30B3F1007F35
:101CE80053D00DD8ABB1B3F1807F06D1002104F1F8
:101CF8000800FFF715FE054610E00126354617E0F7
:101D0800B3F1407F0AD0B3F1806F07D00126354682
:101D18000EE0314AD36A43F40033D362002D3BD13D
:101D28002D4A936D23F0E063D4F8AC100B43936510
:101D3800236813F0007F13D0E36C202B36D030D803
:101D480033B1102B2AD1244AD36A43F40033D36227
:101D58009DBB214AD36C23F03003E16C0B43D36461
:101D6800236813F4805F47D0236EB3F5005F00F05B
:101D78008D8027D893B3B3F5805F20D1002104F17B
:101D88000800FFF7CDFD05462DE0002104F12800ED
:101D9800FFF74AFE0546C1E72E46C9E70126354644
:101DA800DEE7302BD4D001263546D9E7022104F1ED
:101DB8000800FFF7B5FD0546CAE72E46D0E701261D
:101DC800354619E0B3F5405F0DD0B3F5804F0AD022
:101DD8000126354610E000BF00440258774AD36A0E
:101DE80043F40033D362002D57D1744A136D23F4A2
:101DF800E043216E0B431365236813F4005F17D08B
:101E0800636EB3F5003F59D04CD843B1B3F5803F6A
:101E180045D1012104F10800FFF782FD0546002D98
:101E280053D1664A136D23F4E023616E0B431365A7
:101E3800236813F4804F19D0D4F8B030B3F1005FA1
:101E480054D047D843B1B3F1805F40D1012104F1A8
:101E58000800FFF765FD0546002D4ED1574A936DE2
:101E680023F0E043D4F8B0100B439365236813F4D0
:101E7800004F51D0236FB3F1805F40D0B3F1005FC2
:101E880055D0002B40D00126354645E0002104F10D
:101E98002800FFF7C9FD0546A5E72E46ACE7012651
:101EA8003546C5E7B3F5802FB9D0B3F5A02FB6D026
:101EB800B3F5403FB3D001263546B9E7012104F117
:101EC8002800FFF7B1FD0546A9E72E46B0E7012631
:101ED8003546CBE7B3F1804FBED0B3F1A04FBBD0AE
:101EE800B3F1405FB8D001263546BFE7012104F1C0
:101EF8002800FFF799FD0546AEE72E46B6E72F4ABC
:101F0800D36A43F40033D362C5B92C4A136D23F066
:101F18004053216F0B431365236813F0807F1CD057
:101F2800A36C032B44D8DFE803F0100B3C1001210D
:101F380004F10800FFF7F4FC0546E5E72E46EBE759
:101F48001E4AD36A43F40033D362A5BB1B4AD36C41
:101F580023F00303A16C0B43D364236813F4800FAD
:101F68002ED1236813F0010F00F0A680E36F282B11
:101F780000F2A080DFE803F08E9E9E9E9E9E9E9EAD
:101F8800889E9E9E9E9E9E9E979E9E9E9E9E9E9E86
:101F98008E9E9E9E9E9E9E9E8E9E9E9E9E9E9E9E79
:101FA8008E00022104F10800FFF7BAFC0546CCE7D1
:101FB80001263546D1E72E46CFE700BF0044025838
:101FC800584A136843F480731360FEF7A1FC074670
:101FD800544B1B6813F4807F05D1FEF799FCC01B96
:101FE8006428F5D90325002D4AD14F4B1B6FD4F82F
:101FF800B420534013F4407F0CD04B4B1A6F22F49B
:102008004072196F41F480311967196F21F48031DA
:1020180019671A67D4F8B430B3F5807F15D08DBB33
:10202800D4F8B43003F44072B2F5407F1ED03E4A73
:10203800136923F47C5313613B490B6FD4F8B42024
:10204800C2F30B0213430B678BE7FEF761FC0746ED
:10205800354B1B6F13F0020FE1D1FEF759FCC01B83
:1020680041F288339842F3D90325D8E72E4802690C
:1020780022F47C522D4901EA131313430361DBE771
:102088002E466EE72E466CE7012104F10800FFF7A3
:1020980047FC0546E5B9244A536D23F03803E16F40
:1020A8000B43536508E0012104F12800FFF7BCFC4D
:1020B8000546EFE701263546236813F0020F17D0CF
:1020C800A36F052B29D8DFE803F00B05210B0B0BB9
:1020D8002E46F1E7012104F10800FFF721FC05462F
:1020E800F5B9114A536D23F00703A16F0B435365EC
:1020F800236813F0040F2CD0D4F89430052B00F289
:10210800DC80DFE803F01B15D31B1B1B012104F146
:102118002800FFF789FC0546E2E701263546E7E790
:102128002E46E5E70048025800440258CFFFFF005A
:10213800012104F10800FFF7F3FB0546002D40F0EC
:10214800BF80B34A936D23F00703D4F894100B4370
:102158009365236813F0200F1DD0D4F89030B3F1A5
:10216800005F00F0C18000F2B0804BB1B3F1805F36
:1021780040F0A880002104F10800FFF7D1FB0546D4
:10218800002D40F0B880A24A536D23F0E043D4F804
:1021980090100B435365236813F0400F1DD0D4F8FB
:1021A8009C30B3F5006F00F0BA8000F2A9804BB103
:1021B800B3F5806F40F0A180002104F10800FFF71B
:1021C800AFFB0546002D40F0B180914A936D23F492
:1021D800E053D4F89C100B439365236813F0800FE9
:1021E8001DD0D4F8A030B3F5804F00F0B38000F2D2
:1021F800A2804BB1B3F5005F40F09A80002104F152
:102208000800FFF78DFB0546002D40F0AA80804AA4
:10221800936D23F46043D4F8A0100B4393652368AF
:1022280013F0080F0DD0D4F88430B3F5805F00F0B8
:102238009A80774A536D23F44053D4F884100B43A3
:102248005365236813F0100F0DD0D4F89830B3F508
:10225800807F00F092806E4A936D23F44073D4F827
:1022680098100B439365236813F4002F00F09A80AD
:10227800D4F8A430B3F5803F00F08980B3F5003F6F
:1022880008D0002B40F08A80002104F10800FFF7F5
:1022980047FB0546002D40F084805D4A936D23F48A
:1022A8004033D4F8A4100B4393657BE0012104F17B
:1022B8002800FFF7B9FB054640E70126354648E701
:1022C8002E4646E70126354665E7B3F1804F3FF4D1
:1022D80057AFB3F1A04F3FF453AFB3F1405F3FF4B2
:1022E8004FAF0126354656E7022104F12800FFF7D3
:1022F8009BFB054644E72E464DE7012635466CE72D
:10230800B3F5805F3FF45EAFB3F5A05F3FF45AAF1B
:10231800B3F5406F3FF456AF012635465DE702211D
:1023280004F12800FFF780FB05464BE72E4654E7EB
:102338000126354673E7B3F5004F3FF465AFB3F5B3
:10234800204F3FF461AFB3F5C04F3FF45DAF0126B6
:10235800354664E7022104F12800FFF765FB0546CE
:1023680052E72E465BE7022104F12800FFF75CFBE9
:1023780000283FF45EAF01265BE7022104F1280044
:10238800FFF752FB00283FF466AF012663E70221FE
:1023980004F12800FFF748FB05467BE70126354690
:1023A80000E02E46236813F4802F18D0D4F8883024
:1023B800B3F5001F1FD0B3F5401F07D0B3F5801F3A
:1023C80020D1134AD36A43F40033D362EDB9104ADB
:1023D800536D23F44013D4F888100B4353652368D6
:1023E80013F4803F2CD0236DA3B1B3F5803F1FD0E9
:1023F8000126354624E0012104F12800FFF714FBEB
:102408000546E3E701263546E9E72E46E7E700BF3C
:1024180000440258704AD36A43F40033D36275B952
:102428006D4AD36C23F48033216D0B43D36407E0EA
:10243800022104F10800FFF773FA0546EFE72E467C
:10244800236813F0005F11D1236813F4003F28D0EC
:10245800D4F88030B3F5807F14D010D9B3F5007F5D
:1024680015D0B3F5407F12D001261AE0022104F1FD
:102478002800FFF7D9FA0028E6D00126E4E733B1AF
:1024880001260EE0544AD36A43F40033D362002D88
:1024980069D1514A536D23F44073D4F880100B432B
:1024A8005365236813F4801F06D04B4A136D23F03D
:1024B8000043616F0B431365236813F0805F07D0F7
:1024C800454A136923F48043D4F8B8100B431361C9
:1024D800236813F4001F06D03F4A136D23F080735E
:1024E800E16E0B431365236813F0804F09D03A4B14
:1024F8001A6922F400421A611A69D4F8BC100A4316
:102508001A612368002B06DA334AD36C23F0405350
:10251800616D0B43D364236813F4000F07D02E4A70
:10252800536D23F44003D4F88C100B435365636850
:1025380013F0010F19D1636813F0020F1ED16368FD
:1025480013F0040F23D1636813F0080F28D16368D0
:1025580013F0100F2DD1636813F0200F32D106B19C
:1025680001263046F8BD2E469BE7002104F10800FD
:10257800FFF7D6F90028DED00646DCE7012104F192
:102588000800FFF7CDF90028D9D00646D7E7022181
:1025980004F10800FFF7C4F90028D4D00646D2E7B2
:1025A800002104F12800FFF73FFA0028CFD00646A3
:1025B800CDE7012104F12800FFF736FA0028CAD038
:1025C8000646C8E7022104F12800FFF72DFA002883
:1025D800C5D00126C5E700BF0044025808B5FFF77B
:1025E80059F9054B1B6AC3F30213044AD35C03F081
:1025F8001F03D84008BD00BF00440258E44D00083E
:102608002DE9F0410446874B9E6A9D6AC5F305355E
:10261800D86AC0F30010DB6BC3F3CC0303FB00F0F4
:10262800FDF7ECFE002D00F0F78006F003060746E4
:10263800012E59D0022E00F0AB80002E40F0CA8047
:10264800784B1B6813F0200F2CD0DFF8D881D8F80E
:102658000030C3F3C1037448D840FDF7CFFE0646E7
:102668002846FDF7CBFE01463046FDF7D3FF054669
:10267800D8F83800C0F30800FDF7C0FE06464FF052
:1026880064513846FDF712FF01463046FDF706FE55
:102698004FF07E51FDF702FE01462846FDF706FF82
:1026A800054642E02846FDF7A9FE01465F48FDF7CA
:1026B800B1FF05465B4B986BC0F30800FDF79EFE23
:1026C80006464FF064513846FDF7F0FE01463046A5
:1026D800FDF7E4FD4FF07E51FDF7E0FD0146284689
:1026E800FDF7E4FE054620E02846FDF787FE014693
:1026F8004F48FDF78FFF05464A4B986BC0F308001B
:10270800FDF77CFE06464FF064513846FDF7CEFED5
:1027180001463046FDF7C2FD4FF07E51FDF7BEFD84
:1027280001462846FDF7C2FE05463E4EB06BC0F393
:102738004620FDF763FE4FF07E51FDF7AFFD0146E1
:102748002846FDF767FFFEF701F82060B06BC0F37D
:102758000640FDF753FE4FF07E51FDF79FFD014601
:102768002846FDF757FFFDF7F1FF6060B06BC0F337
:102778000660FDF743FE4FF07E51FDF78FFD0146E1
:102788002846FDF747FFFDF7E1FFA060BDE8F081AF
:102798002846FDF733FE01462648FDF73BFF054670
:1027A800204B986BC0F30800FDF728FE06464FF053
:1027B80064513846FDF77AFE01463046FDF76EFD56
:1027C8004FF07E51FDF76AFD01462846FDF76EFE83
:1027D8000546AAE72846FDF711FE01461448FDF70D
:1027E80019FF05460F4B986BC0F30800FDF706FE6E
:1027F80006464FF064513846FDF758FE014630460C
:10280800FDF74CFD4FF07E51FDF748FD0146284687
:10281800FDF74CFE054688E7002323606360A3604C
:10282800B4E700BF004402580090D0030024744C61
:102838000024744A20BCBE4B2DE9F0410446874B66
:102848009E6A9D6AC5F30555D86AC0F300205B6C83
:10285800C3F3CC0303FB00F0FDF7D0FD002D00F01F
:10286800F78006F003060746012E59D0022E00F025
:10287800AB80002E40F0CA80784B1B6813F0200F05
:102888002CD0DFF8D881D8F80030C3F3C1037448DE
:10289800D840FDF7B3FD06462846FDF7AFFD0146D3
:1028A8003046FDF7B7FE0546D8F84000C0F30800EB
:1028B800FDF7A4FD06464FF064513846FDF7F6FDD6
:1028C80001463046FDF7EAFC4FF07E51FDF7E6FC85
:1028D80001462846FDF7EAFD054642E02846FDF791
:1028E8008DFD01465F48FDF795FE05465B4B186C6C
:1028F800C0F30800FDF782FD06464FF064513846E4
:10290800FDF7D4FD01463046FDF7C8FC4FF07E5177
:10291800FDF7C4FC01462846FDF7C8FD054620E042
:102928002846FDF76BFD01464F48FDF773FE054647
:102938004A4B186CC0F30800FDF760FD06464FF0DF
:1029480064513846FDF7B2FD01463046FDF7A6FC56
:102958004FF07E51FDF7A2FC01462846FDF7A6FD83
:1029680005463E4E306CC0F34620FDF747FD4FF05C
:102978007E51FDF793FC01462846FDF74BFEFDF717
:10298800E5FE2060306CC0F30640FDF737FD4FF0E0
:102998007E51FDF783FC01462846FDF73BFEFDF717
:1029A800D5FE6060306CC0F30660FDF727FD4FF080
:1029B8007E51FDF773FC01462846FDF72BFEFDF717
:1029C800C5FEA060BDE8F0812846FDF717FD014669
:1029D8002648FDF71FFE0546204B186CC0F308007B
:1029E800FDF70CFD06464FF064513846FDF75EFDD5
:1029F80001463046FDF752FC4FF07E51FDF74EFC84
:102A080001462846FDF752FD0546AAE72846FDF788
:102A1800F5FC01461448FDF7FDFD05460F4B186C03
:102A2800C0F30800FDF7EAFC06464FF0645138464B
:102A3800FDF73CFD01463046FDF730FC4FF07E5176
:102A4800FDF72CFC01462846FDF730FD054688E7D2
:102A5800002323606360A360B4E700BF004402580A
:102A68000090D0030024744C0024744A20BCBE4B50
:102A7800F0B4026A036A23F00103036246688469BA
:102A88001E4B23400D681D4322F002028B6813433E
:102A98001B4A1C4CA04218BF90420CBF01220022C6
:102AA8000CD004F58044A04214BF00240124164F22
:102AB800B84203D014B9154CA04205D123F008033D
:102AC800CC68234323F004035AB9114A904214BF37
:102AD800002201220C4CA04203D012B90B4A9042AA
:102AE80005D126F440764A6932438E69164346601A
:102AF80085614A6842630362F0BC70478CFFFEFF41
:102B0800000001400004014000400140004801402D
:102B18000044014070B4036A026A22F480720262BF
:102B28004568C4691A4A22400E68164323F40073A4
:102B38008A6843EA0223174A174CA04218BF9042FA
:102B48000CBF0122002206D123F40063CC6843EABB
:102B5800042323F480635AB9104A904214BF002218
:102B680001220F4CA04203D012B90E4A904207D15D
:102B780025F440524C6942EA04128C6942EA041571
:102B88004560C6614A68C263036270BC704700BF93
:102B98008CFFFEFF0000014000040140004401409A
:102BA800004001400048014070B4036A026A22F400
:102BB800805202624468C569144A2A400D6842EA94
:102BC800052223F400538D6843EA0533104E114D56
:102BD800A84218BFB0420DD005F58045A84214BFE1
:102BE8000025012506F58046B04203D015B90A4DE7
:102BF800A84204D124F480444D6944EA8514446011
:102C0800C2614A680264036270BC7047FF8CFFFEB1
:102C180000000140000401400048014070B4036A0C
:102C2800026A22F4803202624268456D144E2E40D8
:102C38000D682E4323F400338C6843EA0443114D96
:102C4800114CA04218BFA8420DD004F58044A04200
:102C580014BF0024012405F58045A84203D014B907
:102C68000A4CA04204D122F480324C6942EA042280
:102C7800426046654A688265036270BC704700BF5F
:102C88008FFFFEFF000001400004014000480140A2
:102C980070B4036A026A22F4801202624468456DC5
:102CA800144A2A400D6842EA052223F400138D686D
:102CB80043EA0553104E114DA84218BFB0420DD03B
:102CC80005F58045A84214BF0025012506F5804674
:102CD800B04203D015B90A4DA84204D124F4802487
:102CE8004D6944EA8524446042654A68C2650362C6
:102CF80070BC7047FF8FFFFE0000014000040140D8
:102D08000048014090F83D30DBB2012B3AD1022354
:102D180080F83D300268D36843F00103D36003684C
:102D28001A4AB3F1804F18BF93421DD0A2F57C42D6
:102D3800934219D002F58062934215D002F5806261
:102D4800934211D002F5784293420DD0A2F56C421D
:102D5800934209D002F59432934205D01A6842F0A2
:102D680001021A60002070479968094A0A40062A39
:102D780018BFB2F5803F07D01A6842F001021A6006
:102D88000020704701207047002070470000014074
:102D9800070001007047704770477047704770B56B
:102DA80004460368DE681D6915F0020F10D016F09E
:102DB800020F0DD06FF002021A6101230377036836
:102DC8009B6913F0030F64D0FFF7E6FF0023237716
:102DD80015F0040F12D016F0040F0FD023686FF00F
:102DE80004021A610223237723689B6913F4407F46
:102DF80055D02046FFF7D0FF0023237715F0080FA2
:102E080012D016F0080F0FD023686FF008021A616D
:102E1800042323772368DB6913F0030F46D0204689
:102E2800FFF7BAFF0023237715F0100F12D016F022
:102E3800100F0FD023686FF010021A610823237750
:102E48002368DB6913F4407F37D02046FFF7A4FFDF
:102E58000023237715F0010F02D016F0010F33D1AC
:102E680015F4025F02D016F0800F35D115F4807F7B
:102E780002D016F0800F37D115F0400F02D016F0AF
:102E8800400F39D115F0200F02D016F0200F3BD19A
:102E980070BDFFF780FF2046FFF77FFF96E72046CB
:102EA800FFF779FF2046FFF778FFA5E72046FFF7F1
:102EB80072FF2046FFF771FFB4E72046FFF76BFF6C
:102EC8002046FFF76AFFC3E723686FF001021A6123
:102ED8002046FFF75FFFC3E723686FF402521A61C9
:102EE800204600F0BAFBC1E723686FF480721A61CC
:102EF800204600F0B3FBBFE723686FF040021A6179
:102F08002046FFF74BFFBDE723686FF020021A61E8
:102F1800204600F0A1FBBBE770B40368394A904231
:102F280014BF00220122B0F1804F14BF144642F0B2
:102F38000104ACB9344DA84214BF00250125334E15
:102F4800B0420DD065B905F1804505F58235A84236
:102F580014BF0025012506F50066B04200D01DB15A
:102F680023F070034D682B4314BB274CA04214BFB9
:102F780000240124254DA8421AD0CCB904F180447C
:102F880004F58234A04214BF0024012405F500652D
:102F9800A8420DD064B91E4CA04214BF00240124DD
:102FA80005F59A35A84203D014B91A4CA04203D1AA
:102FB80023F44073CC68234323F080034C692343F4
:102FC8008C68C4620C688462134CA04208BF42F04B
:102FD800010262B90E4A904214BF0022012204F590
:102FE8007054A04203D012B90A4A904201D10A692A
:102FF8000263026842F00402026001224261036037
:1030080070BC704700000140000800400004004008
:1030180000440140004801400004014060B310B57D
:10302800044690F83D3013B3022384F83D3021461E
:1030380051F8040BFFF770FF012384F8483084F837
:103048003E3084F83F3084F8403084F8413084F8CA
:10305800423084F8433084F8443084F8453084F8AA
:10306800463084F8473084F83D30002010BD80F8A1
:103078003C3001F09DFAD7E70120704760B310B5E6
:10308800044690F83D3013B3022384F83D302146BE
:1030980051F8040BFFF740FF012384F8483084F807
:1030A8003E3084F83F3084F8403084F8413084F86A
:1030B800423084F8433084F8443084F8453084F84A
:1030C800463084F8473084F83D30002010BD80F841
:1030D8003C3001F053FAD7E701207047002850D060
:1030E80070B50D46044690F83D30002B44D00223BD
:1030F80084F83D3022689168234B0B409360214649
:1031080051F8040BFFF708FF21688A688B690E6A7B
:10311800286810431D4A1A40AB68D5F818C043EA1E
:103128000C2313431A4A1A40EB68D5F81CC043EA2B
:103138000C231A432B6A1B03D5F810C043EA0C135F
:10314800134326F0AA066A686D6942EA05123243FB
:10315800886021688B6123681A62012384F84830EB
:1031680084F83E3084F83F3084F8443084F84530A1
:1031780084F83D30002070BD80F83C3001F09AF9A9
:10318800B5E70120704700BFF8BFFEFFFCFCFFFF5A
:103198000303FFFF70B4036A026A22F0100202629E
:1031A800456884691A4E26400C6846EA042623F0CE
:1031B80020038A6843EA0213164A174CA04218BF34
:1031C80090420CBF0122002206D123F08003CC6874
:1031D80043EA041323F040035AB9104A904214BF3B
:1031E800002201220E4CA04203D012B90D4A90428F
:1031F80007D125F4406C4A694CEA820C8A694CEA8A
:103208008205456086614A688263036270BC7047C4
:10321800FF8CFFFE00000140000401400044014013
:10322800004001400048014038B590F83C30012B7F
:1032380000F0958004460D46012380F83C30142A9E
:1032480000F28880DFE802F00B8686861F86868675
:1032580034868686488686865D86868671000068FE
:10326800FFF706FC2268936943F00803936122681C
:10327800936923F0040393612268936929690B43D6
:103288009361002067E00068FFF784FF2268936974
:1032980043F4006393612268936923F48063936124
:1032A80022689369296943EA01239361002052E067
:1032B8000068FFF72FFC2268D36943F00803D36145
:1032C8002268D36923F00403D3612268D36929698A
:1032D8000B43D36100203EE00068FFF765FC2268DD
:1032E800D36943F40063D3612268D36923F480630C
:1032F800D3612268D369296943EA0123D361002095
:1033080029E00068FFF78AFC2268536D43F0080340
:1033180053652268536D23F0040353652268536D87
:1033280029690B435365002015E00068FFF7B0FCDE
:103338002268536D43F4006353652268536D23F488
:10334800806353652268536D296943EA01235365F5
:10335800002000E00120002384F83C3038BD022022
:10336800FCE701F01F014FF0010C0CFA01FC036AA5
:1033780023EA0C030362036A8A401343036270471B
:1033880010B5044610293DD8DFE801F0093C3C3C63
:10339800203C3C3C273C3C3C2E3C3C3C350090F8D7
:1033A8003E30DBB2013B18BF0123002B40F0968072
:1033B800102900F28180DFE801F02C7F7F7F6F7F8A
:1033C8007F7F737F7F7F777F7F7F7B0090F83F30A1
:1033D800DBB2013B18BF0123E7E790F84030DBB2CE
:1033E800013B18BF0123E0E790F84130DBB2013B15
:1033F80018BF0123D9E790F84230DBB2013B18BF70
:103408000123D2E790F84330DBB2013B18BF012318
:10341800CBE7022384F83E3001222068FFF7A1FFA2
:1034280023683049304A934218BF8B420BD002F5CB
:103438007052934207D002F58062934203D002F59E
:103448008062934203D15A6C42F400425A64236862
:10345800244AB3F1804F18BF934231D0A2F57C4281
:1034680093422DD002F58062934229D002F5806202
:10347800934225D002F57842934221D0A2F56C42BE
:1034880093421DD002F59432934219D01A6842F043
:1034980001021A60002022E0022384F83F30BBE7D3
:1034A800022384F84030B7E7022384F84130B3E7B9
:1034B800022384F84230AFE7022384F84330ABE7B5
:1034C80099680A4A0A40062A18BFB2F5803F07D011
:1034D8001A6842F001021A60002000E0012010BDC5
:1034E8000020FCE700000140000401400700010043
:1034F80038B5044690F83E30DBB290F83F205FFACA
:1035080082FC90F84420D0B294F845200D46B1B919
:10351800012808BF012B47D1022384F83E3084F8E4
:1035280044307DB3042D39D0012200212068FFF7F3
:1035380018FF012204212068FFF713FF27E0D2B209
:10354800042914D0BCF1010F08BF012B30D1013A76
:1035580018BF012201282DD162BB022384F83E3016
:1035680084F83F3084F8443084F84530D9E7012A9C
:1035780008BFBCF1010F19D1022384F83F3084F849
:103588004530CEE7012200212068FFF7EAFE2268D5
:10359800136843F001031360002038BD01220421A1
:1035A8002068FFF7DEFEF2E70120F6E70120F4E7E6
:1035B8000120F2E70120F0E790F83C20012A45D0ED
:1035C80070B40346012280F83C20022280F83D2096
:1035D8000268506894681E4E1E4DAA4218BFB24237
:1035E80003D120F470004D68284320F070000D6866
:1035F800284350601A681648B2F1804F18BF8242BB
:1036080017D0A0F57C40824213D000F5806082423A
:103618000FD000F5806082420BD000F578408242DE
:1036280007D0A0F56C40824203D000F59430824266
:1036380004D124F08004896821439160012283F831
:103648003D20002083F83C0070BC70470220704782
:1036580000000140000401407047704770470000B7
:10366800026852E8003F23F4907342E800310029D1
:10367800F6D1026802F1080353E8001F0D4B0B4016
:10368800083242E800310029F3D1C36E012B06D07D
:103698002023C0F88C300023C36643677047026854
:1036A80052E8003F23F0100342E800310029F6D128
:1036B800EEE700BFFEFFFFEF70B586B004468368F3
:1036C8000269134342691343C269134301680868D6
:1036D800884A02401A430A602268536823F4405318
:1036E800E1680B435360A1692268834B9A4201D079
:1036F800236A19439068814B03400B439360226807
:10370800D36A23F00F03616A0B43D36223687C4AB0
:10371800934221D07B4A934200F08C807A4A9342AC
:1037280000F0A280794A934200F0B580784A93422B
:1037380000F0C880774A934200F0F480764A9342BA
:1037480000F01981754A934200F02C816A4A93422D
:1037580000F03F81802233E0714A526D02F0380256
:10376800282A65D8DFE812F02900640064006400A4
:1037780064006400640064004D0164006400640037
:1037880064006400640064002B006400640064004A
:1037980064006400640064005E0064006400640007
:1037A80064006400640064006000640064006400F5
:1037B80064006400640064006200012200E00822E2
:1037C8004D498B4200F02F81E069B0F5004F00F0C1
:1037D800AF81202A00F20682202A00F25382DFE815
:1037E80012F008022202510251022502510251022E
:1037F80051022A0251025102510251025102510250
:1038080051022F025102510251025102510251023A
:103818005102510251025102510251025102510208
:1038280051023B021022CBE72022C9E74022C7E71A
:103838008022C5E73A4A526D02F00702052A11D8DC
:10384800DFE812F00600E10008000A000C000E0094
:103858000022B5E70822B3E71022B1E72022AFE73C
:103868004022ADE78022ABE72D4A526D02F00702F5
:10387800052A0ED8DFE802F003C90507090B002264
:103888009EE708229CE710229AE7202298E7402228
:1038980096E7802294E7224A526D02F00702052A31
:1038A8000ED8DFE802F003B40507090B002287E70A
:1038B800082285E7102283E7202281E740227FE75C
:1038C80080227DE7164A526D02F00702052A0ED8BB
:1038D800DFE802F0039F0507090B002270E70822C2
:1038E8006EE710226CE720226AE7402268E7802210
:1038F80066E700BFF369FFCF000C0058FFF4FF1123
:10390800001001400044004000480040004C0040C6
:10391800005000400014014000780040007C004046
:10392800004402587D4A526D02F03802282A20D8F5
:10393800DFE802F0151F1F1F1F1F1F1F711F1F1F0A
:103948001F1F1F1F171F1F1F1F1F1F1F191F1F1F8D
:103958001F1F1F1F1B1F1F1F1F1F1F1F1D000122AF
:103968002EE708222CE710222AE7202228E7402207
:1039780026E7802224E7694A526D02F00702052AE9
:103988000ED8DFE802F0034A0507090B002217E703
:10399800082215E7102213E7202211E740220FE73B
:1039A80080220DE75D4A526D02F00702052A0ED803
:1039B800DFE802F003350507090B002200E70822BB
:1039C800FEE61022FCE62022FAE64022F8E68022F3
:1039D800F6E602F50E32926D02F00702052A0ED8BD
:1039E800DFE802F0031F0507090B0222E8E60822B8
:1039F800E6E61022E4E62022E2E64022E0E6802223
:103A0800DEE60422DCE60422DAE60422D8E6042212
:103A1800D6E60422D4E60422D2E60422D0E6042222
:103A2800CEE60422CCE6202A27D8022AC0F0188144
:103A3800023A1E2A00F21681DFE812F0260014016D
:103A480056001401140114015B001401140114013F
:103A5800140114011401140160001401140114016B
:103A680014011401140114011401140114011401A6
:103A780014011401140114016C00402A02D14FF4FE
:103A8800004006E00120FEE0FEF7A8FD002800F057
:103A9800EB80626A224B33F81220B0FBF2F36568C0
:103AA80005EB4501994200F2E180B3EB053F00F2D6
:103AB800DF80002633463146FCF768FE090241EAFA
:103AC800106100026B08C0182A46334641F1000114
:103AD800FCF75CFEA0F54072124B9A4200F2CA80D5
:103AE8002368D8603046CEE003A8FEF789FD049825
:103AF800CCE76846FEF7A0FE0198C7E7074B1B68AE
:103B080013F0200F08D0054B1B68C3F3C103064808
:103B1800D840BEE70548BCE70348BAE70044025866
:103B2800BC4D0008FFFC0F000090D00300093D00C9
:103B3800202A15D8202A00F29F80DFE802F01536E7
:103B48009D9D399D9D9D3E9D9D9D9D9D9D9D439DBA
:103B58009D9D9D9D9D9D9D9D9D9D9D9D9D9D4F0078
:103B6800402A06D001208EE0FDF7B6FE002800F0BE
:103B78008580626A4B4B33F81230B0FBF3F0626811
:103B8800530803EB4003B3FBF2F3A3F110014FF624
:103B9800EF72914274D89AB222F00F02C3F3420333
:103BA80013432268D36000206DE0FDF7A7FEDDE730
:103BB80003A8FEF725FD0498D8E76846FEF73CFE03
:103BC8000198D3E7384B1B6813F0200F08D0364B09
:103BD8001B68C3F3C1033548D840CAE73448C8E76F
:103BE8003248C6E7402A02D14FF4004005E00120E0
:103BF80049E0FDF771FE00284FD0626A294B33F87F
:103C08001230B0FBF3F0636800EB5300B0FBF3F045
:103C1800A0F110024FF6EF739A4240D8236880B2A1
:103C2800D86000202FE0FDF769FEE4E703A8FEF75F
:103C3800E7FC0498DFE76846FEF7FEFD0198DAE73F
:103C4800194B1B6813F0200F08D0174B1B68C3F3E0
:103C5800C1031648D840D0E71548CEE71348CCE74B
:103C6800012010E001200EE000200CE001200AE015
:103C7800012008E0012006E0012004E0002002E025
:103C8800012000E001200123A4F86A30A4F868307C
:103C980000236367A36706B070BD0020F3E7012027
:103CA800F1E700BFBC4D0008004402580090D00363
:103CB80000093D00836A13F0080F06D002685368B4
:103CC80023F40043816B0B435360836A13F0010FA5
:103CD80006D00268536823F40033C16A0B4353606B
:103CE800836A13F0020F06D00268536823F4803306
:103CF800016B0B435360836A13F0040F06D002680C
:103D0800536823F48023416B0B435360836A13F099
:103D1800100F06D00268936823F48053C16B0B43DD
:103D28009360836A13F0200F06D00268936823F427
:103D38000053016C0B439360836A13F0400F0AD061
:103D48000268536823F48013416C0B435360436C3F
:103D5800B3F5801F0BD0836A13F0800F06D002687A
:103D6800536823F40023C16C0B4353607047026807
:103D7800536823F4C003816C0B435360EBE72DE9D0
:103D8800F84305460E4617469946DDF820802B680D
:103D9800DC6936EA04040CBF01240024BC423AD191
:103DA800B8F1FF3FF3D0FCF7B3FDA0EB09004045A5
:103DB80034D8B8F1000F33D02B681A6812F0040F0A
:103DC800E5D0B6F1400218BF0122802EDFD0002ACC
:103DD800DDD0DA6912F0080F11D1DA6912F4006F38
:103DE800D5D04FF400621A622846FFF739FC202329
:103DF800C5F89030002385F8843003200CE00824AF
:103E08001C622846FFF72CFCC5F89040002385F873
:103E18008430012000E00020BDE8F8830320FBE7A0
:103E28000320F9E730B583B004460023C0F890308A
:103E3800FCF76EFD05462268126812F0080F10D1D3
:103E480023681B6813F0040F28D12023C4F8883096
:103E5800C4F88C300020E066206784F8840003B042
:103E680030BD6FF07E430093034600224FF40011EB
:103E78002046FFF784FF0028E2D0226852E8003F7E
:103E880023F0800342E800310029F6D12023C4F84A
:103E98008830002384F884300320E0E76FF07E4305
:103EA80000932B4600224FF480012046FFF767FF5E
:103EB8000028CAD0226852E8003F23F4907342E8F1
:103EC80000310029F6D1226802F1080353E8003FC7
:103ED80023F00103083242E800310029F3D12023FE
:103EE800C4F88C30002384F884300320B7E778B313
:103EF80010B50446D0F888300BB32423C4F88830B2
:103F08002268136823F001031360A36AE3B920460B
:103F1800FFF7D2FB012811D02268536823F490439D
:103F280053602268936823F02A0393602268136819
:103F380043F0010313602046FFF774FF10BD80F8BB
:103F4800843000F039FCD8E72046FFF7B3FEDEE7FF
:103F580001207047436E2BB90123A0F86A30A0F8FE
:103F68006830704730B403689A68C2F3426299684F
:103F7800490F094D6B5C1B01084C615C93FBF1F325
:103F8800A0F86A30AB5C1B01A25C93FBF2F3A0F8CB
:103F9800683030BC704700BFDC4D0008D44D0008C5
:103FA80090F88430012B18D0012380F88430242322
:103FB800C0F8883003681A68196821F0010119608F
:103FC80022F000520023436601680A602022C0F8EC
:103FD800882080F88430184670470220704738B52A
:103FE80090F88430012B1DD00446012380F88430DA
:103FF8002423C0F8883003681D681A6822F001027B
:104008001A600268936823F0604319439160FFF7D0
:10401800A1FF23681D602023C4F88830002084F89D
:10402800840038BD0220FCE738B590F88430012BB5
:104038001DD00446012380F884302423C0F888303A
:1040480003681D681A6822F001021A600268936802
:1040580023F0606319439160FFF77CFF23681D60BC
:104068002023C4F88830002084F8840038BD02205A
:10407800FCE7000084B0194BD3F8E02042F080023E
:10408800C3F8E020D3F8E02002F080020092009A02
:10409800D3F8E02042F00102C3F8E020D3F8E02092
:1040A80002F001020192019AD3F8E02042F00202E4
:1040B800C3F8E020D3F8E02002F002020292029A4C
:1040C800D3F8E02042F01002C3F8E020D3F8E03043
:1040D80003F010030393039B04B070470044025895
:1040E80010B584B000240094019402940394FCF762
:1040F80095FC01238DF800308DF8014001941F22B2
:104108008DF8082087228DF809208DF80A408DF84F
:104118000B408DF80C308DF80D308DF80E408DF871
:104128000F406846FCF798FC0420FCF785FC04B0B7
:1041380010BD72B6FEE7000000B59DB04C2200210C
:1041480009A800F049FD2022002101A800F044FD43
:104158000220FCF7C1FD00230093264B9A6942F424
:1041680040429A619B6903F440430093224BDA6A08
:1041780042F00102DA62DB6A03F001030093009B5C
:104188001C4B9B6913F4005FFAD0012309934FF489
:1041980080330A9302231293139305221492C022A8
:1041A80015921693179318930823199300231A93BB
:1041B8001B9309A8FCF7BAFDB8B93F230193032361
:1041C8000293002303930823049340230593069343
:1041D8004FF480620792089304210DEB0100FDF76C
:1041E8000FFA20B91DB05DF804FBFFF7A2FFFFF737
:1041F800A0FF00BF004802580004005808B5FFF7A8
:104208006FFFFCF74BFBFFF797FFFFF733FF00F05B
:10421800CDF800F01DFA00F067FA00F099FA00F006
:1042280031F900F0FBF80C4C2046FEF7F7FE0821A8
:104238002046FFF7A5F80C212046FFF7A1F83C21FE
:104248000648FFF755F93C210548FFF751F905489D
:10425800FEF758FDFEE700BF800000241801002487
:10426800CC0000243400002482B0074BD3F8F4209B
:1042780042F00202C3F8F420D3F8F43003F002034A
:104288000193019B02B0704700440258FEE7FEE725
:10429800FEE7FEE7FEE770477047704708B5FCF792
:1042A8002BFB08BD08B50248FEF779FD08BD00BF25
:1042B800340000242D4B1B6803F00F03062B06D88F
:1042C8002A4A136823F00F0343F007031360284BAF
:1042D8001A6842F001021A6000221A611968254A18
:1042E8000A401A60214B1B6813F0080F06D01F4ABA
:1042F800136823F00F0343F0070313601C4B0022DD
:104308009A61DA611A621C4999621C49D9621C498E
:1043180019635A639963DA6319645A64196821F452
:10432800802119601A66174B1B686FF30F03B3F1EE
:10433800005F03D2144B0122C3F808210C4BD3F8B9
:10434800D43013F4805F10D1094BD3F8D42042F451
:104358008052C3F8D4200D4A43F2D2011160D3F839
:10436800D42022F48052C3F8D42070470020005291
:10437800004402587FEDF6EA000202020000FF0145
:10438800800201010010005C0080005100400052D2
:10439800054AD36843F00203D360034B5B6813F408
:1043A800005FFAD0704700BF0048025800B58DB0D2
:1043B8002422002103A800F00FFC0023009301939E
:1043C80002931448144A026040F2DF12426083608C
:1043D8004FF6FF72C2600361436183610323039355
:1043E80001230593099303A9FEF778FE58B9002322
:1043F80000930193029369460648FFF7DDF828B950
:104408000DB05DF804FBFFF794FEF0E7FFF791FEAF
:10441800F6E700BF180100240000014000B58DB088
:104428002422002103A800F0D7FB00230093019366
:10443800029313484FF08042026040F2DF1242605C
:1044480083604FF6FF72C2600361836103230393A5
:1044580001230593099303A9FEF740FE50B90023F1
:104468000093029369460648FFF7A6F828B90DB0ED
:104478005DF804FBFFF75DFEF1E7FFF75AFEF6E78C
:10448800CC00002408B50948094B036000234360A9
:1044980083604FF6FF72C260036143618361FEF778
:1044A800BDFD00B908BDFFF744FEFBE7340000245A
:1044B8000048014000B58BB000230593069307938D
:1044C800089309930368294A934205D0B3F1804FB2
:1044D80027D00BB05DF804FB254BD3F8F02042F051
:1044E8000102C3F8F020D3F8F02002F00102019293
:1044F800019AD3F8E02042F01002C3F8E020D3F884
:10450800E03003F010030293029B4FF420630593FD
:10451800022306930123099305A91648FCF7C8FA54
:10452800D7E7134BD3F8E82042F00102C3F8E8209C
:10453800D3F8E82002F001020392039AD3F8E020AE
:1045480042F00102C3F8E020D3F8E03003F00103A1
:104558000493049B032305930223069301230993E1
:1045680005A90548FCF7A4FAB3E700BF000001401D
:1045780000440258001002580000025802680A4B12
:104588009A4200D0704782B0084BD3F8E82042F036
:104598000202C3F8E820D3F8E83003F002030193DD
:1045A800019B02B0704700BF00040040004402585D
:1045B80002680F4B9A4200D0704700B583B00D4B8C
:1045C800D3F8F02042F48022C3F8F020D3F8F0307A
:1045D80003F480230193019B002211467620FCF707
:1045E800F5F97620FCF702FA03B05DF804FB00BF8A
:1045F800004801400044025800B587B000230193E9
:10460800029303930493059302680E4B9A4202D0D7
:1046180007B05DF804FB0C4BD3F8E02042F002022F
:10462800C3F8E020D3F8E03003F002030093009BC6
:104638000323019302230293059301A90348FCF77E
:1046480037FAE5E700040040004402580004025825
:1046580000B58BB000230793089309930093019347
:10466800029303930493059306931D481D4A026021
:10467800EF22426083604FF6FF72C260036183617C
:10468800FEF7FCFCF8B900230793099307A914481F
:10469800FEF792FFD0B960230093002301930293A1
:1046A8000493082269460E48FEF7BEFD88B90C221D
:1046B80069460B48FEF7B8FD70B90948FFF79CFF3B
:1046C8000BB05DF804FBFFF734FDDCE7FFF731FDC5
:1046D800E1E7FFF72EFDEAE7FFF72BFDEDE700BF67
:1046E800800000240004004008B51748174B0360F9
:1046F8004FF4E133436000238360C36003610C22FD
:1047080042618361C361036243628362FFF7EFFB27
:1047180070B900210C48FFF762FC60B900210A4813
:10472800FFF782FC50B90848FFF73AFC48B908BDC2
:10473800FFF7FFFCEDE7FFF7FCFCEFE7FFF7F9FCFD
:10474800F1E7FFF7F6FCF2E7F8010024001001405A
:1047580008B51748174B03604FF4E1334360002353
:104768008360C36003610C2242618361C361036299
:1047780043628362FFF7BBFB70B900210C48FFF767
:104788002EFC60B900210A48FFF74EFC50B90848D2
:10479800FFF706FC48B908BDFFF7CBFCEDE7FFF7CC
:1047A800C8FCEFE7FFF7C5FCF1E7FFF7C2FCF2E74B
:1047B800640100240044004010B5BAB0044600214A
:1047C80035913691379138913991C02204A800F07B
:1047D80003FA2368364A934204D0364A934234D0C7
:1047E8003AB010BD01220023CDE9042304A8FDF747
:1047F8009FF938BB304BD3F8F02042F01002C3F8D1
:10480800F020D3F8F02002F010020092009AD3F8BA
:10481800E02042F00202C3F8E020D3F8E03003F0D1
:1048280002030193019B4FF44043359302233693CF
:104838000023379338930423399335A91F48FCF78D
:1048480037F9CDE7FFF775FCD4E702220023CDE95D
:10485800042304A8FDF76CF930BB174BD3F8E82004
:1048680042F40032C3F8E820D3F8E82002F400321A
:104878000292029AD3F8E02042F00102C3F8E02045
:10488800D3F8E03003F001030393039B0C23359323
:10489800022336930023379338930723399335A996
:1048A8000748FCF705F99BE7FFF743FCD5E700BF8E
:1048B800001001400044004000440258000402581F
:1048C80000000258DFF838D0FFF762FDFFF7F2FC6E
:1048D8000C480D490D4A002302E0D458C450043353
:1048E800C4188C42F9D30A4A0A4C002301E0136029
:1048F8000432A242FBD300F0C1F9FFF77FFC7047F6
:10490800000008240000002414000024084E0008B9
:104918001400002424040024FEE700002DE9F047D9
:10492800089D0E4604460F46002B4AD194468C45F6
:10493800B2FA82F260D942B1C2F12003974020FA5C
:1049480003F30CFA02FC1F4394404FEA1C4E1FFA73
:104958008CF6B7FBFEF1230C0EFB117743EA0743F5
:1049680001FB06F098420AD91CEB030301F1FF375B
:1049780080F01581984240F21281023963441B1A73
:10498800A4B2B3FBFEF00EFB103344EA034400FB71
:1049980006F6A6420AD91CEB040400F1FF3380F0A6
:1049A8000081A64240F2FD806444023840EA01409A
:1049B800A41B00211DB1D4400023C5E90043BDE874
:1049C800F0878B4205D90DB1C5E9000100210846E1
:1049D800F5E7B3FA83F1002946D1B34202D3824204
:1049E80000F2F580841A66EB030201201746002DB9
:1049F800E5D0C5E90047E2E7002A40F09380A1EB43
:104A08000C034FEA1C471FFA8CFE0121B3FBF7F693
:104A180007FB1630230C43EA00430EFB06F09842CE
:104A280008D91CEB030306F1FF3802D2984200F2C2
:104A3800D08046461B1AA4B2B3FBF7F007FB10332D
:104A480044EA03440EFB00FEA64508D91CEB040407
:104A580000F1FF3302D2A64500F2B6801846A4EB57
:104A68000E0440EA0640A5E7C1F120078B4022FA70
:104A780007FC4CEA030C06FA01FE20FA07F426FAB2
:104A880007F344EA0E0400FA01F84FEA1C404FEA23
:104A98001449B3FBF0FE1FFA8CF600FB1E3349EAFB
:104AA80003430EFB06F9994502FA01F20BD91CEBF8
:104AB80003030EF1FF3A80F08580994540F2828029
:104AC800AEF1020E6344A3EB0909A4B2B9FBF0F3FB
:104AD80000FB139944EA094403FB06F6A64208D9E9
:104AE8001CEB040403F1FF3068D2A64266D9023BEE
:104AF800644443EA0E40A41BA0FB02E6B44273469A
:104B0800B14652D34FD05DB1B8EB030264EB090450
:104B180004FA07F722FA01F31F43CC40C5E90074F1
:104B280000214CE7C2F1200120FA01F30CFA02FC43
:104B380026FA01F1964033434FEA1C471FFA8CFED0
:104B4800B1FBF7F007FB1016190C41EA064100FB10
:104B58000EF68E4204FA02F408D91CEB010100F1AA
:104B6800FF382DD28E422BD902386144891B9BB263
:104B7800B1FBF7F607FB161143EA014306FB0EF1FA
:104B8800994208D91CEB030306F1FF3814D2994265
:104B980012D9023E63445B1A46EA004136E73946B9
:104BA800EDE6184602E7F045ADD2BEEB020366EB30
:104BB8000C060138B146A6E74646ECE7034698E7F7
:104BC8004046D3E7D6467EE76444023847E70846BE
:104BD8000DE7023E63442DE7830730B547D0541EE6
:104BE800002A3ED0CAB2034601E0013C39D303F89B
:104BF800012B9D07F9D1032C2CD9CDB205EB052546
:104C08000F2C05EB054535D9A4F1100222F00F0C45
:104C180003F1100EE6444FEA121C1A46C2E9005589
:104C2800C2E9025510327245F8D10CF1010214F0B4
:104C38000C0F03EB021204F00F0C13D0ACF10403B9
:104C480023F003030433134442F8045B9342FBD17B
:104C58000CF003042CB1C9B21C4403F8011BA34295
:104C6800FBD130BD64461346002CF4D1F9E7034666
:104C78001446C0E71A46A446E0E700BF70B50F4BDC
:104C88000F4DAB42A3EB050607D0B610002455F82C
:104C9800043B01349847A642F9D800F07FF8094D43
:104CA800094B5E1BAB424FEAA60606D0002455F816
:104CB800043B01349847A642F9D870BDFC4D000862
:104CC800FC4D0008FC4D0008044E0008704700BF6A
:104CD800704700BF024B13B1024800F005B8704797
:104CE80000000000FD4C0008002301461A46184643
:104CF80000F014B838B5074D074C2C1BA41005D08C
:104D0800013C55F8043D9847002CF9D1BDE83840DE
:104D180000F04AB8084E0008044E00082DE9F84390
:104D28001B4D0646286898460F469146FFF7CEFF6A
:104D3800184B1C681CB3286865681F2D22DC4EB907
:104D48006B1C0235636044F82570FFF7C1FF002033
:104D5800BDE8F88304EB85010123C1F88890D4F8F5
:104D68008821AB401A43022EC4F88821C1F8088173
:104D7800E6D1D4F88C211A43C4F88C21E0E7064C1C
:104D88001C60D8E7FFF7A4FF4FF0FF30E0E700BF53
:104D9800100000249002002494020024F8B500BFFB
:104DA800F8BC08BC9E467047F8B500BFF8BC08BC04
:044DB8009E4670475C
:104DBC00010002000400060008000A000C001000AC
:104DCC0020004000800000010804020408010101D9
:104DDC0001010103070100000000000001020304AF
:084DEC00010203040607080997
:084DF40030FBFF7F010000000D
:084DFC00DD4C0008310800083D
:044E04000908000891
:104E080001000000100000000090D0030090D003C3
:044E18008C020024E4
:04000005080048CDDA
:00000001FF
