:020000040800F2
:10000000500E0024FD030008475700085751000810
:1000100045570008FB050008F969000800000000CA
:10002000000000000000000000000000390300088C
:10003000BD0A00080000000095030008915900085F
:100040001B0400081B0400081B0400081B04000814
:100050001B0400081B0400081B0400081B04000804
:100060001B0400081B0400081B040008FD05000811
:100070000906000815060008210600081B040008F0
:100080001B0400081B0400081B0400081B040008D4
:100090001B0400081B0400081B0400081B040008C4
:1000A0001B0400081B0400081B0400081B040008B4
:1000B0001B0400081B0400081B0400081B040008A4
:1000C0001B0400081B0400081B0400081B04000894
:1000D0001B040008216900082D6900081B040008A2
:1000E0001B0400081B040008000000001B0400089B
:1000F0001B0400081B0400081B0400081B04000864
:100100001B0400081B040008495B00081B040008CE
:100110001B0400081B0400081B0400081B04000843
:100120001B0400081B0400081B0400081B04000833
:100130001B0400081B0400081B0400081B04000823
:1001400000000000000000000000000000000000AF
:100150001B0400081B0400081B0400081B04000803
:100160001B0400081B0400081B0400081B040008F3
:100170001B0400081B0400081B0400081B040008E3
:100180001B0400081B0400081B0400081B040008D3
:100190001B0400081B0400081B0400081B040008C3
:1001A0001B0400081B0400081B0400081B040008B3
:1001B0001B0400081B0400081B0400081B040008A3
:1001C0001B0400081B0400081B0400081B04000893
:1001D0001B0400081B0400081B0400081B04000883
:1001E0001B0400081B0400081B0400081B04000873
:1001F0001B0400081B0400081B0400081B04000863
:100200001B0400081B0400081B0400081B04000852
:100210001B0400081B0400083D5B00081B040008C9
:100220001B0400081B0400081B0400080000000059
:100230001B0400081B040008000000001B04000849
:100240001B0400081B0400081B0400081B04000812
:100250001B0400081B0400081B0400081B04000802
:100260001B0400081B0400081B0400081B040008F2
:100270001B0400081B0400081B0400080000000009
:100280001B0400081B0400081B04000800000000F9
:10029000000000001B04000800F002F800F03CF829
:1002A0000AA090E8000C82448344AAF10107DA45D1
:1002B00001D100F031F8AFF2090EBAE80F0013F0E7
:1002C000010F18BFFB1A43F001031847306A000002
:1002D000506A0000103A24BF78C878C1FAD8520793
:1002E00024BF30C830C144BF04680C6070470000B0
:1002F0000023002400250026103A28BF78C1FBD82F
:10030000520728BF30C148BF0B6070471FB506F0C9
:10031000CFFC1FBD10B510BD00F035F91146FFF739
:10032000F5FF06F07BFB00F053F903B4FFF7F2FF93
:1003300003BC00F05BF900002D4B19680868B0E8B9
:10034000F04F80F30988BFF36F8F4FF0000080F308
:10035000118870470000000008480068006880F3BA
:1003600008884FF0000080F3148862B661B6BFF3CE
:100370004F8FBFF36F8F00DF00BF00BF08ED00E0BD
:10038000DFF80C00016841F470010160704700BFA4
:1003900088ED00E0EFF30980BFF36F8F144B1A680C
:1003A0001EF0100F08BF20ED108A20E9F04F1060FA
:1003B00009B44FF0500072B680F31188BFF34F8F2D
:1003C000BFF36F8F62B606F081FB4FF0000080F341
:1003D000118809BC19680868B0E8F04F1EF0100FCA
:1003E00008BFB0EC108A80F30988BFF36F8F7047A5
:1003F00014000024EFF30580704700000A4880478E
:100400000A4880470A480047FEE7FEE7FEE7FEE7A6
:10041000FEE7FEE7FEE7FEE7FEE7FEE705480649E2
:10042000064A074B70470000C50A0008495A0008F1
:100430009902000850080024500E0024500A00249D
:10044000500A002453EA020C00F069802DE9F04BB9
:100450004FF00006002B1FBFB3FA83F503FA05F433
:1004600024FA05F65E4012BF1643B2FA82F502FA8C
:1004700005F4C5F120051EBF22FA05FC44EA0C0470
:10048000203556EA044C4FEA144418BF641C4FF060
:1004900000084FF00009904271EB030C39D300299A
:1004A00019BFB1FA81F701FA07F6B0FA80F700FA3E
:1004B00007F6C7F120071EBF20FA07FC46EA0C0624
:1004C0002037B6FBF4FCA7EB0507103F07F01F0B26
:1004D000CBF120060CFA0BFB2CFA06F644BFB34610
:1004E0000026202FA4BF5E464FF0000B5BEA060CEF
:1004F00008BF4FF0010B19EB0B09ABFB027C48EB7B
:100500000608C01B06FB02CC0BFB03CC71EB0C01F5
:10051000C1E70B46024641464846BDE8F08B13B59D
:100520004FF000004FF00001AFF30080BDE81C4029
:1005300070474FF0000200B51346944696462039A6
:1005400022BFA0E80C50A0E80C50B1F12001BFF48C
:10055000F7AF090728BFA0E80C5048BF0CC05DF8F2
:1005600004EB890028BF40F8042B08BF704748BF40
:1005700020F8022B11F0804F18BF00F8012B7047B4
:10058000704770477047754600F02CF8AE4605007E
:100590006946534620F00700854618B020B5FFF79E
:1005A0003DFFBDE820404FF000064FF000074FF040
:1005B00000084FF0000B21F00701AC46ACE8C00981
:1005C000ACE8C009ACE8C009ACE8C0098D4670478A
:1005D00010B50446AFF300802046BDE81040FFF799
:1005E000A4BE000000487047F0070024014918200D
:1005F000ABBEFEE7260002007047FEE7014800F0B0
:1006000085BD0000D8050024014800F07FBD000032
:1006100050060024014800F079BD0000C8060024FF
:10062000014800F073BD00006005002410B52C4A9D
:10063000016891423AD02A4A1832914236D0284A6B
:100640003032914232D0264A483291422ED0244A4A
:10065000603291422AD0224A7832914226D0204AF2
:100660009032914222D01E4AA83291421ED01D4A99
:1006700091421BD01B4A1832914217D0194A30328E
:10068000914213D0174A483291420FD0154A603236
:1006900091420BD0134A7832914207D0114A9032DE
:1006A000914203D00F4AA832914214D1CAB2103AF3
:1006B0001823B2FBF3F20C4C02F00703E35CC365B2
:1006C000032A04D96FF30901091D816506E06FF360
:1006D0000901816502E021F0FF018165806D10BD97
:1006E0001000024010040240BA6C000810B5016806
:1006F0000123224CCAB2A1421BD0204C1434A14287
:1007000017D01E4C2834A14213D01C4C3C34A142BB
:100710000FD01A4C5034A1420BD0184C6434A14273
:1007200007D0164C7834A14203D0144C8C34A1422B
:100730000FD1083A1421B2FBF1F1114A02EB810208
:1007400002660F4A8032426601F01F018B408366C9
:1007500010BD103A1824B2FBF4F20A4C2144A82927
:1007600000D80832084901EB820101660649803150
:10077000416602F01F018B40836610BD0854025889
:1007800000580258F0FBFDBF000802400279521EDB
:10079000072A31D8194B016899421BD0174B1433E3
:1007A000994217D0154B2833994213D0134B3C3341
:1007B00099420FD0114B503399420BD00F4B6433F9
:1007C000994207D00D4B7833994203D00B4B8C33B1
:1007D000994207D10A4901EB8201C16608494031BB
:1007E000016706E0074901EB8201C1660549403116
:1007F0000167012191404167704700000854025889
:100800000059025800090240014610B500208B69CA
:100810004FF0C0748A6A002B0ED0B3F5005F1AD077
:1008200062B3012A2AD0022A28D0032A03D1C96A36
:10083000C90100D5012010BD1AB1012A06D0022A33
:10084000F9D1C96AC901F6D5012010BDC96AA14212
:10085000FBD1012010BD52B1012A0AD0022A06D0D4
:10086000032AF7D1C96AA142F4D1012010BD0120A9
:1008700010BDC96AC901FBD5012010BD012010BD02
:100880002DE9F04F856D8A4E894FDFF824C2A836D6
:10089000DFF81C82DFF818920CF1180CDFF810A2B8
:1008A00008F13008DFF808B209F1480904680AF1D4
:1008B000600A0BF1780BBC426DD064456BD04445A7
:1008C00069D04C4567D0544565D05C4563D0DFF8AE
:1008D000E0E10EF1900E74455DD0B4425BD0DFF8DC
:1008E000D4E1744557D0DFF8CCE10EF1180E744511
:1008F00051D0DFF8C0E10EF1300E74454BD0DFF877
:10090000B4E10EF1480E744545D0DFF8A8E10EF1D0
:10091000600E74453FD0DFF89CE10EF1780E74450F
:1009200039D0DFF890E10EF1900E744533D0DFF846
:1009300084E10EF1A80E74452DD0DFF87CE17445FA
:1009400029D0DFF874E10EF1140E744523D0DFF8DE
:1009500068E10EF1280E74451DD0DFF85CE10EF160
:100960003C0E744517D0DFF850E10EF1500E74457F
:1009700011D0DFF844E10EF1640E74450BD0DFF8BE
:1009800038E10EF1780E744505D0DFF82CE10EF158
:100990008C0E744509D1D0E919E4CEF80440C46E38
:1009A0001CB1D0E91CE4CEF804400468BC422ED04F
:1009B00064452CD044452AD04C4528D0544526D0F7
:1009C0005C4524D03A4F9037BC4220D0B4421ED070
:1009D000384EB4421BD0374E1836B44217D0354E7D
:1009E0003036B44213D0334E4836B4420FD0314E75
:1009F0006036B4420BD02F4E7836B44207D02D4E1D
:100A00009036B44203D02B4EA836B4421BD190F896
:100A10005C4004F01F063F24B440AC6004682568C5
:100A200025F480252560046863608368402B05D029
:100A3000036899600068C260BDE8F08F03689A603F
:100A40000068C160F8E71C4EB4421BD01A4E143641
:100A5000B44217D0184E2836B44213D0164E3C3646
:100A6000B4420FD0144E5036B4420BD0124E6436FE
:100A7000B44207D0104E7836B44203D00E4E8C36B6
:100A8000B442D9D190F85C4004F01F060124B44070
:100A90006C60046863608368402B04D003689960CD
:100AA0000068C260C8E703689A600068C160C3E775
:100AB000100002401004024008540258704772B6F9
:100AC000FEE700000548016841F0020101600348AB
:100AD000083801688904FCD5704700000C480258AA
:100AE0002DE9F84F044601F079FB00905CB194F8D1
:100AF0003500022809D080206065002084F8340089
:100B00000120BDE8F88F0120FBE7D14ED04FD0493E
:100B10001836DFF83C833037DFF83493DFF830A342
:100B200008F14808DFF828B309F1600920680AF1E4
:100B3000780A0BF1900B88422ED0B0422CD0B842EC
:100B40002AD0404528D0484526D0504524D0584585
:100B500022D0BF4AA83290421ED0BE4A90421BD03B
:100B6000BC4A1832904217D0BA4A3032904213D061
:100B7000B84A483290420FD0B64A603290420BD009
:100B8000B44A7832904207D0B24A9032904203D0B1
:100B9000B04AA83290420AD1026822F01E020260D6
:100BA0002068426922F080024261256804E0026800
:100BB00022F00E0202602568206888424DD0B042C3
:100BC0004BD0B84249D0404547D0484545D0504524
:100BD00043D0584541D09E4AA83290423DD09D4ACC
:100BE00090423AD09B4A1832904236D0994A3032DD
:100BF000904232D0974A483290422ED0954A603285
:100C000090422AD0934A7832904226D0914A90322C
:100C1000904222D08F4AA83290421ED08E4A9042F3
:100C20001BD08D4A1432904217D08B4A2832904202
:100C300013D0894A3C3290420FD0874A50329042BA
:100C40000BD0854A6432904207D0834A7832904272
:100C500003D0814A8C32904204D1206E026822F483
:100C6000807202607A49206888422ED0B0422CD02F
:100C7000B8422AD0404528D0484526D0504524D0F7
:100C8000584522D07249A83188421ED07149884205
:100C90001BD070491831884217D06E4930318842D4
:100CA00013D06C49483188420FD06A49603188427C
:100CB0000BD068497831884207D066499031884224
:100CC00003D06449A831884204D1016821F00101B0
:100CD000016013E0016821F0010101600EE001F004
:100CE0007DFA0099401A052808D920203434206262
:100CF0000320607000202070012002E72868C007F0
:100D0000EDD1534A0121206890422ED0B0422CD020
:100D1000B8422AD0404528D0484526D0504524D056
:100D2000584522D04A4BA83398421ED0494B98428E
:100D30001BD0484B1833984217D0464B303398425B
:100D400013D0444B483398420FD0424B6033984203
:100D50000BD0404B7833984207D03E4B90339842AB
:100D600003D03C4BA833984208D1A06D94F85C3076
:100D700003F01F053F23AB40836007E0A06D94F8AC
:100D80005C3003F01F0301FA03F3436020689042D4
:100D90004DD0B0424BD0B84249D0404547D04845ED
:100DA00045D0504543D0584541D0294AA8329042B9
:100DB0003DD0284A90423AD0264A1832904236D046
:100DC000244A3032904232D0224A483290422ED0C9
:100DD000204A603290422AD01E4A7832904226D071
:100DE0001C4A9032904222D01A4AA83290421ED019
:100DF000194A90421BD0184A1432904217D0164A12
:100E00002832904213D0144A3C3290420FD0124AFA
:100E1000503290420BD0104A6432904207D00E4AB2
:100E20007832904203D00C4A8C3290420BD1D4E9F4
:100E300019205060E06E30B1026822F480720260C6
:100E4000D4E91C205060343461700020207058E6D2
:100E50001000024010040240085402582DE9F05FCF
:100E6000002808D090F83510022906D0802141656D
:100E70000120BDE8F09F0120FBE7A14AA04BA04C58
:100E800018329F4D30339E4E4834DFF874B26035CF
:100E9000DFF870C27836DFF86C82DFF868920CF108
:100EA000300CDFF860A208F16008016809F17809E8
:100EB000944F0AF1900A594531D091422FD099426E
:100EC0002DD0A1422BD0A94229D0B14227D0DFF8A2
:100ED00030E20EF1900E714521D0DFF824E20EF1E0
:100EE000A80E71451BD0DFF81CE2AEF1180E71455B
:100EF00015D0B94213D0DFF80CE20EF1180E71458F
:100F00000DD061450BD0DFF8FCE10EF1480E7145C4
:100F100005D0414503D0494501D0514537D14FF067
:100F2000040E80F835E0594527D0914225D09942EA
:100F300023D0A14221D0A9421FD0B1421DD0704878
:100F40009030814219D06E48A830814215D06D484A
:100F50001838814211D0B9420FD06A481830814206
:100F60000BD0614509D067484830814205D04145E2
:100F700003D0494501D0514504D1086820F0010053
:100F80000860BAE0086820F001000860B5E0D1F818
:100F900000E02EF00E0EC1F800E00168DE46594573
:100FA00031D091422FD099422DD0A1422BD0A942CD
:100FB00029D0B14227D0DFF848B10BF1900B594549
:100FC00021D0DFF83CB10BF1A80B59451BD0DFF85D
:100FD00034B1ABF1180B594515D0B94213D0DFF835
:100FE00024B10BF1180B59450DD061450BD0DFF83A
:100FF00014B10BF1480B594505D0414503D0494583
:1010000001D0514506D1D1F800B02BF0010BC1F849
:1010100000B005E0D1F800B02BF0010BC1F800B032
:1010200001684FF0010B714546D0914244D099427E
:1010300042D0A14240D0A9423ED0B1423CD0304A39
:101040009032914238D02E4AA832914234D02D4A63
:10105000183A914230D0B9422ED02A4A18329142E1
:101060002AD0614528D0274A4832914224D04145B0
:1010700022D0494520D051451ED0234A91421BD051
:10108000214A1432914217D01F4A2832914213D07C
:101090001D4A3C3291420FD01B4A503291420BD034
:1010A000194A6432914207D0174A7832914203D0EC
:1010B000154A8C32914218D1016E0A6822F480726E
:1010C0000A60816D90F85C2002F01F020BFA02F2B8
:1010D0004A60D0E919215160C16E31B10A6822F429
:1010E00080720A60D0E91C21516080F835B000217F
:1010F00080F83410016D01B188470020B9E6000086
:101100001000024028040240085402582DE9FF5FF5
:101110000446002001904FF41651FD480068B0FBD2
:10112000F1F00090A56D2E682968FA4FDFF8E4B35E
:10113000DFF8E083DFF8DC930BF1180BDFF8D4A3C2
:1011400008F13008206809F148090AF1600AB8423C
:101150003BD05A46904238D0404536D0484534D0EE
:10116000504532D0EB4A783290422ED0E94A903244
:1011700090422AD0E74AA832904226D0E64A9042CE
:1011800023D0E54A183290421FD0E34B30339842C7
:101190001BD0E14B4833984217D0DFF87CC30CF1E9
:1011A000600C604511D0DFF870C30CF1780C60451D
:1011B0000BD0DFF864C30CF1900C604505D0DFF86C
:1011C00058E30EF1A80E70457ED194F85C10082308
:1011D00001F01F0103FA01F232424BD0B84232D083
:1011E000584530D040452ED048452CD050452AD0C7
:1011F000C8497831884226D0C6499031884222D0E9
:10120000C449A83188421ED0C34988421BD0C24974
:101210001831884217D0C0493031884213D0BE49B6
:10122000483188420FD0BC49603188420BD0BA495E
:101230007831884207D0B8499031884203D0B64906
:10124000A831884203D1016801F0040102E001687D
:1012500001F0080171B1016821F00401016094F806
:101260005C0000F01F0003FA00F2AA60606D40F01D
:101270000100606594F85C00012100F01F008140CE
:10128000314240D02068B84234D0584532D0404531
:1012900030D048452ED050452CD09E4A78329042CE
:1012A00028D09C4A9032904224D09A4AA832904248
:1012B00020D0994A90421DD0974A1832904219D0B6
:1012C000954A3032904200E0D2E113D0924A48323F
:1012D00090420FD0904A603290420BD08E4A7832C2
:1012E000904207D08C4A9032904203D08A4AA8326A
:1012F00090427DD1406910F0800F04D0A960606DEC
:1013000040F00200606594F85C00042100F01F00CA
:10131000814031423ED02068B84232D0584530D06A
:1013200040452ED048452CD050452AD0794A7832B5
:10133000904226D0774A9032904222D0754AA83205
:1013400090421ED0744A90421BD0734A1832904289
:1013500017D0714A3032904213D06F4A48329042CF
:101360000FD06D4A603290420BD06B4A7832904277
:1013700007D0694A9032904203D0674AA83290421F
:101380004ED1006810F0020F04D0A960606D40F0EB
:101390000400606594F85C00102100F01F0081409B
:1013A000314260D02068B84234D0584532D04045F0
:1013B00030D048452ED050452CD0564A78329042F5
:1013C00028D0544A9032904224D0524AA8329042B7
:1013D00020D0514A90421DD04F4A1832904219D025
:1013E0004D4A3032904215D04B4A4832904200E08C
:1013F00014E00FD0484A603290420BD0464A78320F
:10140000904207D0444A9032904203D0424AA832D8
:10141000904207D1006800F0080006E0006872E71B
:101420000068B7E7006800F0040058B1A9602068C0
:10143000016849030CD50068000304D4216C09B18C
:10144000204688470FE0A16C69B1204688470AE032
:101450000168C90503D4016821F008010160216C0D
:1014600009B12046884794F85C00202100F01F0055
:10147000814031427BD02068B84232D0584530D0CC
:1014800040452ED048452CD050452AD0214A7832AC
:10149000904226D01F4A9032904222D01D4AA83254
:1014A00090421ED01C4A90421BD01B4A18329042D8
:1014B00017D0194A3032904213D0174A483290421E
:1014C0000FD0154A603290420BD0134A78329042C6
:1014D00007D0114A9032904203D00F4AA83290426E
:1014E00003D1006800F0100002E0006800F0020084
:1014F000E8B3A96094F83500042812D02068016888
:1015000049033DD50068000335D4616C79B305E02B
:101510000C000024100002401004024020468847BE
:101520003FE02068016821F01601016020684169F0
:1015300021F080014161206C08B9A06C20B12068C5
:10154000016821F00801016094F85C0000F01F01BF
:101550003F208840A860012084F83500002084F8EE
:101560003400216D002974D004B0204600E018E05A
:10157000BDE8F05F0847E16B99B12046884710E06D
:101580000168C90509D4016821F01001016001203A
:1015900084F83500002084F83400E16B09B120465E
:1015A0008847606D002854D0606DC00758D0042073
:1015B00084F835002068B84231D058452FD04045D6
:1015C0002DD048452BD0504529D0B749884226D048
:1015D000B5491831884222D0B349303188421ED0F3
:1015E000B24988421BD0B1491831884217D0AF495F
:1015F0003031884213D0AD49483188420FD0AB49D1
:10160000603188420BD0A9497831884207D0A74978
:101610009031884203D0A549A831884204D101689D
:1016200021F00101016003E0016821F00101016086
:1016300021680198009A401C0190904202D80868E5
:10164000C007F6D10868C00704D0032084F835002D
:1016500003E087E0012084F83500002084F834009E
:10166000E16C00297ED004B02046BDE8F05F084759
:101670008F4EB0421BD08E4E1436B04217D08C4ED7
:101680002836B04213D08A4E3C36B0420FD0884E36
:101690005036B0420BD0864E6436B04207D0844EEE
:1016A0007836B04203D0824E8C36B0425AD10668AA
:1016B0004FF0040E94F85CB00BF01F0B0EFA0BFE0B
:1016C0001EEA010FCDF80CE05ED05FEA467E5BD5E6
:1016D00003986860300411D5F00307D4A16C002989
:1016E00040D004B02046BDE8F05F0847216C0029D7
:1016F00038D004B02046BDE8F05F0847B0063BD4C0
:101700002068B8422DD068496039884229D04045C8
:1017100027D0484525D0504523D06349884220D062
:101720006149183188421CD05F493031884218D055
:101730005E49884215D0904213D05C4930318842CE
:101740000FD098420DD059496031884209D057498D
:101750007831884205D0604503D05449A831884289
:1017600006D100E07CE0016821F00801016003E09F
:10177000016821F004010160216C002970D004B0DF
:101780002046BDE8F05F08474FF0020E0EFA0BFE50
:101790001EEA010FCDF808E063D05FEA867E60D5CF
:1017A00002986860300411D5F00307D4616C0029F9
:1017B00078D004B02046BDE8F05F0847E16B00290F
:1017C00070D004B02046BDE8F05F0847B0063FD4B3
:1017D0002068B8422DD034496039884229D040452C
:1017E00027D0484525D0504523D02F49884220D0C6
:1017F0002D49183188421CD02B493031884218D0ED
:101800002A49884215D0904213D028493031884265
:101810000FD098420DD025496031884209D0234924
:101820007831884205D0604503D02049A8318842EC
:1018300004D1016821F01401016003E0016821F086
:101840000A010160012084F83500002084F834008A
:10185000E16B002926D004B02046BDE8F05F0847C0
:1018600020E0082202FA0BF20A421BD0310719D5F8
:10187000016821F00E01016094F85C0000F01F0186
:10188000012000FA01F16960606584F835000020EC
:1018900084F83400E16C002904D004B02046BDE88F
:1018A000F05F0847BDE8FF9F880002401004024037
:1018B000085402582DE9F05F044600F08FFC0646FC
:1018C000002C7DD0F44F0222DFF8CC830025DFF816
:1018D000C893DFF8C4A308F13008DFF8BCB309F1FE
:1018E000480920680AF1600A0BF1780BB84232D03F
:1018F000E949183188422ED040452CD048452AD09D
:10190000504528D0584526D0E3499031884222D00E
:10191000E149A83188421ED0E04988421BD0DF4906
:101920001831884217D0DD493031884213D0DB4965
:10193000483188420FD0D949603188420BD0D7490D
:101940007831884207D0D5499031884203D0D349B5
:10195000A83188427ED184F8352084F83450B842CA
:1019600034D0CD491831884230D040452ED048453A
:101970002CD050452AD0584528D0C74990318842AC
:1019800024D0C549A831884220D0C44988421DD0FE
:10199000C2491831884219D0C0493031884215D027
:1019A000BE494831884211D0BC49603188420DD0CF
:1019B000BA497831884209D0B8499031884200E06C
:1019C00009E003D0B549A831884207D1016821F068
:1019D0000101016013E00120BDE8F09F016821F0E2
:1019E000010101600BE000F0F9FB801B052806D91E
:1019F00020206065032084F835000120ECE7206892
:101A00000068C007EFD122681168A5480140D4E9F9
:101A100002031843D4E9043633431843A369184337
:101A2000E3691843236A18430843616A042903D110
:101A3000D4E90B13194308439A4909686FF30F015E
:101A4000B1F1005F11D36168A1F12903052B0AD917
:101A5000163B00E02EE0032B05D9083B012B02D9F1
:101A60004F39032901D840F4801010602068406984
:101A700020F00701606A40EA010604280DD1A06A3F
:101A80000643E06A48B12046FEF7BEFE28B140207A
:101A90006065012084F835009EE720684661204695
:101AA000FEF7C4FD94F85C1001F01F023F21914045
:101AB000816066E07C4988421BD07B4B143398429E
:101AC00017D0794B2833984213D0774B3C33984248
:101AD0000FD0754B503398420BD0734B6433984200
:101AE00007D0714B7833984203D06F4B8C339842B8
:101AF0007ED1884211D06C49143188420DD06A4998
:101B00002831884209D068493C31884205D066496D
:101B10005031884201D06449643184F8352084F81A
:101B20003450026861490A40A16840297ED080296A
:101B30007DD00021E36841EAD301236941EAD30162
:101B4000636941EAD301A36941EAD301E36941EA48
:101B5000D301236A41EA13111143016052492068FD
:101B6000494208441421B0FBF1F08000E0652046B2
:101B7000FEF75CFD94F85C1001F01F02012191401A
:101B800041602068B84256D043491831884252D04B
:101B9000404550D048454ED050454CD058454AD08D
:101BA0003D499031884246D03B49A831884242D0D5
:101BB0003A4988423FD03949183188423BD03749A9
:101BC0003031884237D035494831884233D03349A3
:101BD000603188422FD03149783188422BD02F494B
:101BE0009031884227D02D49A831884223D000E087
:101BF0002DE02D4988421ED02B49143188421AD03D
:101C000029492831884216D027493C31884212D0D0
:101C10002549503188420ED02349643188420AD088
:101C200021497831884206D01F4901E00AE00BE0E3
:101C30008C31884229D12046FEF758FDA0688028C3
:101C40000CD00CE0102175E74FF4804172E7402082
:101C50006065032084F835000120BDE66560216ED3
:101C600020790860D4E9191048606068401E072890
:101C700008D82046FEF78AFDE06E0560D4E91C1006
:101C8000486002E0E566256765676565012084F8C0
:101C900035000020A0E600001000024010040240C1
:101CA0003F8010FE0010005C085402580F00FEFF39
:101CB0002DE9F84F044600200090002C15D094F830
:101CC0003400012813D0012084F8340094F83550F2
:101CD0000020012D0DD04FF40061616584F83400BF
:101CE000012000900098BDE8F88F0120FBE702205A
:101CF000F9E7022584F835506065A54DA44EA44F40
:101D00001835DFF88CC23036DFF884824837DFF8C8
:101D10008092DFF87CA208F16008DFF874B209F164
:101D2000780920680AF1900A0BF1A80B60453BD0B6
:101D3000A84239D0B04237D0B84235D0404533D030
:101D4000484531D050452FD058452DD0DFF844C2FA
:101D5000604529D0DFF83CC20CF1180C604523D057
:101D6000DFF830C20CF1300C60451DD0DFF824C222
:101D70000CF1480C604517D0DFF818C20CF1600C6C
:101D8000604511D0DFF80CC20CF1780C60450BD027
:101D9000DFF800C20CF1900C604505D0DFF8F4C10B
:101DA0000CF1A80C604506D1D0F800C02CF0010C55
:101DB000C0F800C005E0D0F800C02CF0010CC0F85D
:101DC00000C02046FEF75CFD7149206888422CD097
:101DD000A8422AD0B04228D0B84226D0404524D0CC
:101DE000484522D0504520D058451ED0694A9042DF
:101DF0001BD0684A1832904217D0664A303290425F
:101E000013D0644A483290420FD0624A6032904206
:101E10000BD0604A7832904207D05E4A90329042AE
:101E200003D05C4AA83290420DD1026822F01E0213
:101E300042F016020260206C90B12068026842F005
:101E4000080202600CE0026822F00E0242F00A0270
:101E50000260206C20B12068026842F00402026037
:101E6000206888424BD0A84249D0B04247D0B842FF
:101E700045D0404543D0484541D050453FD05845D6
:101E80003DD0444A90423AD0424A1832904236D02D
:101E9000404A3032904232D03E4A483290422ED0B0
:101EA0003C4A603290422AD03A4A7832904226D058
:101EB000384A9032904222D0364AA83290421ED000
:101EC000354A90421BD0344A1432904217D0324ADD
:101ED0002832904213D0304A3C3290420FD02E4AE2
:101EE000503290420BD02C4A6432904207D02A4A9A
:101EF0007832904203D0284A8C3290420DD1206E25
:101F00000268D20303D5026842F480720260E06E78
:101F100018B1026842F480720260206888422CD0B6
:101F2000A8422AD0B04228D0B84226D0404524D07A
:101F3000484522D0504520D058451ED015498842EA
:101F40001BD014491831884217D0124930318842C9
:101F500013D01049483188420FD00E496031884271
:101F60000BD00C497831884207D00A499031884219
:101F700003D00849A831884204D1016841F0010129
:101F80000160AFE6016841F001010160AAE60000CE
:101F90001000024010040240085402582DE9F84F86
:101FA00000227B4D03264FF001080F274FF0B04C65
:101FB000E6E008FA02F31C409A46002C7ED00B792A
:101FC00003F00303012B01D0022B1BD1D0F80890A2
:101FD000530006FA03FB29EA0B09D1F80CB00BFAFF
:101FE00003FB4BEA090BC0F808B0436823EA0A0375
:101FF00091F80490C9F3001909FA02F949EA0309B2
:10200000C0F804900B79DB439B070ED0D0F80C90FE
:10201000530006FA03FA29EA0A09D1F808A00AFAD5
:1020200003FA4AEA090AC0F80CA00B7903F003038B
:10203000022B14D1D30800EB8303D3F820A04FEA7E
:1020400042794FEAD96907FA09FB2AEA0B0AD1F863
:1020500010B00BFA09FB4BEA0A0BC3F820B0D0F81A
:102060000090530006FA03FA29EA0A0991F804A03D
:102070000AF0030A0AFA03FA4AEA090AC0F800A0B9
:102080004B6813F4403F7AD0424BD3F8009049F0AC
:102090000209C3F800901B6803F00203009322F0CA
:1020A000030909F1B049D9F808B493074FEA137A44
:1020B00007FA0AF32BEA030B374B00E05FE0984284
:1020C00001D100232DE0354B984201D1012328E0B6
:1020D000334B984201D1022323E0324B984201D185
:1020E00003231EE0304B984201D1042319E02F4B0B
:1020F000984201D1052314E02D4B984201D10623CB
:102100000FE02C4B984201D107230AE02A4B98425A
:1021100001D1082305E0294B984201D1092300E0B1
:102120000A2303FA0AF343EA0B03C9F80834DCF87C
:102130000030A343D1F804905FEAC92900D52343B6
:10214000CCF80030DCF80430A343D1F804905FEA07
:10215000892900D52343CCF804306B68A343D1F818
:1021600004905FEA893900D523436B602B68A34351
:10217000D1F804905FEAC93900D523432B60521C83
:102180000C6834FA02F37FF414AFBDE8F88F000056
:1021900080000058F444025800000258000402581D
:1021A00000080258000C025800100258001402588F
:1021B00000180258001C025800200258002402583F
:1021C000002A01D0816170470904816170470000D5
:1021D00001480068000C70470010005C01488068EE
:1021E0007047000000000024024881680278114412
:1021F000816070470000002410B5032000F000F952
:1022000001F0C4F90F490A68C2F303230E4AD35CF4
:1022100003F01F03D840096801F00F01515C0B4A1D
:1022200001F01F0120FA01F111600949086007203F
:1022300000F010F808B1012010BD00F09DF800205A
:1022400010BD000018440258EA6C00081000002479
:102250000C00002410B58AB00446102C2FD20022A6
:102260002146322000F0ACF8322000F09BF81848EC
:1022700004601848016841F008010160006800F03E
:102280000800009001A902A801F00AF90798C0B15E
:1022900001F058F940001049B0FBF1F1491E104817
:1022A0000E4A026040F2E732C260416000210161E3
:1022B000816001F0DBFD38B101200AB010BD0120C2
:1022C000FBE701F03FF9E6E7054801F03FFEF4E7E0
:1022D00004000024E844025840420F00000C004073
:1022E00040070024134A41781160124908310A68F6
:1022F00022F001020A600B1F42681A60027BC37A57
:10230000120742EA0362837A42EAC342437B42EA0B
:102310008342837B42EA4342C37B42EA0342437ADD
:1023200042EA0322037A007842EA430202430A6047
:102330007047000098ED00E0BFF35F8F044801682C
:1023400021F480310160024900207031086070473B
:1023500024ED00E0074940F00100086005487038AE
:10236000016841F480310160BFF34F8FBFF36F8F7D
:102370007047000094ED00E008B50948016841F09D
:1023800002010160006800F002000090042000F0EB
:1023900037F800220721BDE80840901E00F010B871
:1023A000F4440258002809DB012100F01F0291408B
:1023B0004009800000F1E020C0F8001170470000E3
:1023C000F0B40D460D4B1B68C3F30223C3F10704A1
:1023D000042C00D90424191D072901D2002300E090
:1023E000DB1E012606FA04F1491E294099409E4051
:1023F000761E16403143F0BC04F0FFBA0CED00E04D
:1024000000F00701054A10684FF6FF03184040EA44
:102410000120034908431060704700000CED00E004
:102420000000FA0570B514490A68D243520708D56E
:10243000096801F00701814201D0012070BD002030
:1024400070BD0A6822F0070202430A60FFF7C6FE69
:102450000446094D4FF47A76083D06E0FFF7BEFECC
:10246000001BB04201D9012070BD2868C043800420
:10247000F4D4002070BD00000C48025810B501F0E3
:102480003FF805490968054AC1F30211515C01F0A2
:102490001F01C84010BD000020440258EA6C00082B
:1024A00010B569490A6802F003020968C1F30531F1
:1024B000654B1B1D1B68C3F30013634C1434246865
:1024C000C4F3CC0414FB03F300EE103AB8EE400A58
:1024D000002971D09FED5D1A5B4BF7EE000A1033B7
:1024E000F2B39FED5B2A012A7FD0022A7CD001EE55
:1024F000901A1968F8EE611AC2EE212AC1F3080198
:1025000001EE901AF8EE611A40EE011A31EEA00ABF
:1025100022EE800A1968C1F3462101EE101AB8EEC6
:10252000411A31EE201AC0EE011ABCEEE11A80ED1C
:10253000001A1968C1F3064101EE101AB8EE411AEB
:1025400031EE201AC0EE011ABCEEE11A80ED011A3C
:102550001968C1F3066101EE101AB8EE411A00E0E5
:1025600008E071EE200A80EE201ABCEEC10A80ED70
:10257000020A10BD344A283A1468A4061ED512680F
:10258000C2F3C104334AE24001EE902AF8EE612A18
:1025900001EE901A1968F8EE611A82EEA12AC1F3D1
:1025A000080101EE901AF8EE611A40EE011A31EEC0
:1025B000A00A22EE000AADE741E016E001EE901A13
:1025C000DFED252A1968F8EE611A82EEA12AC1F31F
:1025D000080101EE901AF8EE611A40EE011A31EE90
:1025E000A00A22EE000A95E713E001EE901A19689E
:1025F000F8EE611AC2EE212AC1F3080101EE901A29
:10260000F8EE611A40EE011A31EEA00A22EE800ABD
:1026100080E701EE901ADFED112A1968F8EE611AD1
:1026200082EEA12AC1F3080101EE901AF8EE611AB8
:1026300040EE011A31EEA00A22EE000A6AE70021FC
:1026400001604160816010BD2844025800000039DB
:102650000024744A0090D0030024744C001B374BB4
:1026600010B569490A6802F003020968C1F305510F
:10267000654B1B1D1B68C3F30023634C1C3424688B
:10268000C4F3CC0414FB03F300EE103AB8EE400A96
:10269000002971D09FED5D1A5B4BF7EE000A1833ED
:1026A000F2B39FED5B2A012A7FD0022A7CD001EE93
:1026B000901A1968F8EE611AC2EE212AC1F30801D6
:1026C00001EE901AF8EE611A40EE011A31EEA00AFE
:1026D00022EE800A1968C1F3462101EE101AB8EE05
:1026E000411A31EE201AC0EE011ABCEEE11A80ED5B
:1026F000001A1968C1F3064101EE101AB8EE411A2A
:1027000031EE201AC0EE011ABCEEE11A80ED011A7A
:102710001968C1F3066101EE101AB8EE411A00E023
:1027200008E071EE200A80EE201ABCEEC10A80EDAE
:10273000020A10BD344A283A1468A4061ED512684D
:10274000C2F3C104334AE24001EE902AF8EE612A56
:1027500001EE901A1968F8EE611A82EEA12AC1F30F
:10276000080101EE901AF8EE611A40EE011A31EEFE
:10277000A00A22EE000AADE741E016E001EE901A51
:10278000DFED252A1968F8EE611A82EEA12AC1F35D
:10279000080101EE901AF8EE611A40EE011A31EECE
:1027A000A00A22EE000A95E713E001EE901A1968DC
:1027B000F8EE611AC2EE212AC1F3080101EE901A67
:1027C000F8EE611A40EE011A31EEA00A22EE800AFC
:1027D00080E701EE901ADFED112A1968F8EE611A10
:1027E00082EEA12AC1F3080101EE901AF8EE611AF7
:1027F00040EE011A31EEA00A22EE000A6AE700213B
:1028000001604160816010BD284402580000003919
:102810000024744A0090D0030024744C001B374BF2
:102820002DE9FC5F044600250026F94F2068DFF8FB
:10283000E483C043010104F10800019004F1280081
:1028400000900DD4A06EB8B1B0F5801F19D0B0F5CE
:10285000001F1CD0B0F5401F00D00125EDB12E4661
:102860002088C043C00535D4A06D05282FD2DFE8ED
:1028700000F01D22282F2F00386840F40030386007
:10288000ECE70198022102F05FFF0546E6E70098B9
:10289000022102F0EBFF0546E0E7D8F80000A16E48
:1028A00020F440100843C8F80000D9E7386840F425
:1028B000003038600CE00198002102F045FF054629
:1028C00006E00098002102F0D1FF054600E0012556
:1028D00065B12E462088C043800518D4E06D80285D
:1028E00031D00CDC20B340280ED126E0D8F800000F
:1028F000A16D20F007000843C8F80000EAE7C028EF
:1029000003D0B0F5807F00D0012515B32E46208876
:10291000DFF80493C04340052DD4D4F8A800B0F5E7
:10292000800F43D01EDCA8B3B0F5001F20D137E0E4
:10293000386840F400303860E7E70198002102F081
:1029400003FF0546E1E70098002102F08FFF0546EE
:10295000DBE7D8F80000E16D20F4E0700843C8F828
:102960000000D4E7B0F5C00F03D0B0F5000F00D0E1
:1029700001250DB32E462088C04300052FD4D4F87E
:10298000AC00B0F1007F54D020DCE8B3B0F1807F20
:1029900022D148E0FFE7386840F400303860E8E7CB
:1029A0000198002102F0D0FE0546E2E700980021E0
:1029B00002F05CFF0546DCE7D9F80000D4F8A81067
:1029C00020F460000843C9F80000D4E7B0F1407F6C
:1029D00003D0B0F1806F00D0012585B32E4620686A
:1029E000C04380010AD4E06C30B1102832D02028D6
:1029F00036D0302800D001258DB32E462088C04324
:102A0000C00446D4206E00E008E0B0F5005F5CD062
:102A100036DCA0B3B0F5805F38D150E0386840F4C0
:102A200000303860D9E70198002102F08DFE05469C
:102A3000D3E70098002102F019FF0546CDE7FFE734
:102A4000D9F80000D4F8AC1020F0E0600843C9F8D1
:102A50000000C4E7386840F400303860CCE705E097
:102A60000198022102F070FE0546C5E76948001F83
:102A70000168E26C21F0300111430160BEE719E00A
:102A8000B0F5405F03D0B0F5804F00D0012515B3FD
:102A90002E462088C04380042FD4606EB0F5403F9E
:102AA00029D021DC38B3B0F5803F38D0B0F5003FF5
:102AB00020D13AE0386840F400303860E7E7019808
:102AC000002102F041FE0546E1E70098002102F0F6
:102AD000CDFE0546DBE7D8F80000216E20F4E0408B
:102AE0000843C8F80000D4E7B0F5802F03D0B0F554
:102AF000A02F00D00125F5B12E462088C043400408
:102B00002BD4D4F8B000B0F1405F24D01CDC10B35B
:102B1000B0F1805F4ED0B0F1005F1BD151E0019861
:102B2000012102F011FE0546E5E70098012102F0BF
:102B30009DFE0546DFE7D8F80000616E20F4E02036
:102B40000843C8F80000D8E7B0F1804F03D0B0F1D7
:102B5000A04F00D001259DB32E462088C04300041D
:102B60000AD4206F30B1B0F1805F3CD0B0F1005F8B
:102B70003ED00125ADB32E462068C043C0010AD423
:102B8000A06C30B101284DD0022850D0032800D0CD
:102B900001253DB32E462068DFF880B0C0434002D7
:102BA00061D41F48016841F480710160FFF716FB92
:102BB000824652E00198012102F0C6FD0546CAE7AF
:102BC00005E00098012102F051FE0546C3E7D9F85F
:102BD0000000D4F8B01020F0E0400843C9F800002D
:102BE000BBE70BE029E0386840F400303860C1E70B
:102BF0000198012102F0A8FD0546BBE7D8F80000C6
:102C0000216F20F040500843C8F80000B4E70000EE
:102C10002C44025850440258584402581044025858
:102C200000480258386840F400303860B1E7019835
:102C3000022102F089FD0546ABE7FE480168A26C5F
:102C400021F0030111430160A5E7FFF7C7FAA0EBEC
:102C50000A00642801D9032503E0F7480068C0058D
:102C6000F3D53DB12E462078DFF8D0A3C043C0078E
:102C700055D065E0F1481C300068B4F8B41000F499
:102C8000407001F4407188420DD0EC481C3001685E
:102C900021F44071026842F480320260026822F43A
:102CA000803202600160D4F8B400B0F5807F12D1A8
:102CB000FFF794FA824609E0FFF790FAA0EB0A01C9
:102CC00041F28830814201D9032504E0DB481C3001
:102CD00000688007F0D50DB12E46C4E7D4F8B400E3
:102CE000C0F3012103290FD0DBF8000020F47C5051
:102CF000CBF80000D1481C300168B4F8B420C2F30E
:102D00000B0211430160AEE7DBF80010CC4A21F45E
:102D10007C51104041EA1010CBF80000EAE7E06F68
:102D200018280BD005DC48B1082815D0102804D18C
:102D300018E0202802D0282800D00125C5B12E4651
:102D40002078C04380072BD4A06F062825D2DFE867
:102D500000F025181E2525250198012102F0F4FC1C
:102D60000546EBE70098012102F080FD0546E5E706
:102D7000DAF80000E16F20F038000843CAF80000DC
:102D8000DEE70198012102F0DFFC054606E000982D
:102D9000012102F06BFD054600E001256DB12E46D4
:102DA0002078C043400720D4D4F89400062819D2D4
:102DB000DFE800F0190C12191919DAF80000A16FF8
:102DC00020F007000843CAF80000E9E70198012154
:102DD00002F0BAFC054606E00098012102F046FD2B
:102DE000054600E0012595B12E462078C0438006B7
:102DF00020D4D4F89000B0F1405F19D011DCB8B104
:102E0000B0F1805F28D0B0F1005F10D12AE0D9F88E
:102E10000000D4F8941020F007000843C9F800001F
:102E2000E3E7B0F1804F03D0B0F1A04F00D001250F
:102E3000F5B12E462078C04340062CD4D4F89C002F
:102E4000B0F5406F25D01DDC18B3B0F5806F34D0DD
:102E5000B0F5006F1CD136E00198002102F074FC3F
:102E60000546E5E70098022102F000FD0546DFE790
:102E7000DAF80000D4F8901020F0E0400843CAF8D7
:102E80000000D7E7B0F5805F03D0B0F5A05F00D0B9
:102E90000125F5B12E462078C04300062CD4D4F885
:102EA000A000B0F5C04F25D01DDC18B3B0F5005F11
:102EB0002CD0B0F5804F1CD12EE00198002102F0FB
:102EC00043FC0546E5E70098022102F0CFFC0546E9
:102ED000DFE7D9F80000D4F89C1020F4E050084354
:102EE000C9F80000D7E7B0F5004F03D0B0F5204F88
:102EF00000D00125B5B12E462078C04300072AD462
:102F0000D4F88400B0F5805F16D01BE00198002152
:102F100002F01AFC0546EDE70098022102F0A6FC3B
:102F20000546E7E7D9F80000D4F8A01020F4604087
:102F30000843C9F80000DFE70098022102F096FC80
:102F400000B10126DAF80000D4F8841020F44050D3
:102F50000843CAF800002078C043C00613D4D4F850
:102F60009800B0F5807F05D10098022102F07EFC28
:102F700000B10126D9F80000D4F8981020F4407070
:102F80000843C9F800002068C04300030BD4D4F8FC
:102F9000A400E8B3B0F5803F7DD0B0F5003F00D08D
:102FA0000125B5B32E462068C04340030DD4D4F8A4
:102FB0008800B0F5801F70D0B0F5001F6ED0B0F55E
:102FC000401F00D00125EDB32E462068C043C0034A
:102FD00007D4206DB8B3B0F5803F7CD001259DB3F8
:102FE0002E462068C043800005D40098022102F0DC
:102FF0003DFC00B101262068C043800311D4D4F801
:10300000800060B1B0F5807F66D0B0F5007F01E050
:1030100070E07BE003D0B0F5407F00D00125DDB348
:103020002E462068C043C00213D4D8F8000020F018
:1030300000400AE04C4402580048025854440258E8
:10304000FFFCFF0F77E080E08AE0616F0843C8F87B
:1030500000002068C043C00008D4DBF80000D4F8AA
:10306000B81020F480400843CBF800002068C0432B
:10307000800207D4D8F80000E16E20F08070084389
:10308000C8F800002068C043400011D4DBF80000FD
:1030900020F4004003E033E06FE041E045E0CBF88E
:1030A0000000DBF80000D4F8BC100843CBF80000A7
:1030B0002068C04306D45A480168626D21F040512F
:1030C000114301602068C04300020BD4DAF800000D
:1030D00020F4400001E03DE04AE0D4F88C100843C1
:1030E000CAF8000020790025C04300F00100284301
:1030F0004DD052E00198002102F026FB054650E732
:103100000098022102F0B2FB05464AE7D9F8000018
:10311000D4F8A41020F440300843C9F8000042E776
:10312000386840F4003038604DE70098012102F023
:103130009DFB054647E7DAF80000D4F8881020F434
:1031400040100843CAF800003FE7386840F40030F8
:10315000386044E70198022102F0F6FA05463EE79E
:103160002F480168226D21F480311143016038E756
:10317000386840F40030386051E7DAF80000D4F8DD
:10318000801020F440700843CAF8000049E7019815
:10319000002102F0D9FA00B106462079C04300F0C0
:1031A0000200284305D10198012102F0CDFA00B1B7
:1031B00006462079C04300F00400284305D1019859
:1031C000022102F0C1FA00B106462079C04300F0A6
:1031D0000800284305D10098002102F047FB00B108
:1031E00006462079C04300F01000284305D100981E
:1031F000012102F03BFB00B106462079C04300F0FC
:103200002000054305D10098022102F02FFB00B1F8
:10321000064616B10120BDE8FC9F0020FBE7000038
:103220004C4402582DE9F05F04460D46002C17D09F
:10323000DFF84C82D8F8000000F00F00A84211D24D
:10324000D8F8000020F00F002843C8F80000D8F894
:10325000000000F00F00A84204D00120BDE8F09F5C
:103260000120FBE72078874E40070AD520693168A6
:1032700001F07001884204D9316821F070010143E6
:1032800031602078804F00070AD56069396801F005
:103290007001884204D9396821F070010143396016
:1032A0002078C0060AD5A069396801F4E061884237
:1032B00004D9396821F4E061014339602078DFF8EE
:1032C000CC9180060DD5E069D9F8001001F07001AD
:1032D000884206D9D9F8001021F070010143C9F8DD
:1032E0000010207880070AD5E068316801F00F01EE
:1032F000884204D9316821F00F0101433160207800
:10330000C00743D03068A16820F470600843306083
:103310005C4960681839022808D003280BD00128BE
:103320000ED00968490710D4012097E7096889037E
:103330000BD4012092E70968890106D401208DE7AA
:103340000968C90501D4012088E7DFF838A1AAF18E
:10335000080ADAF8001021F007010143CAF800104A
:10336000FEF73CFF834609E0FEF738FFA0EB0B01B8
:1033700041F28830814201D903206FE7DAF800007A
:10338000616800F03800B0EBC10FEDD12078800704
:103390000AD5E068316801F00F01884204D2316833
:1033A00021F00F0101433160D8F8000000F00F0058
:1033B000A8420ED9D8F8000020F00F002843C8F822
:1033C0000000D8F8000000F00F00A84201D0012052
:1033D00044E7207840070AD52069316801F0700180
:1033E000884204D2316821F07001014331602078B5
:1033F00000070AD56069396801F07001884204D27B
:10340000396821F07001014339602078C0060AD57F
:10341000A069396801F4E061884204D2396821F476
:10342000E06101433960207880060DD5E069D9F864
:10343000001001F07001884206D2D9F8001021F086
:1034400070010143C9F8001000F0A0F83168C1F321
:1034500003220F498A5C02F01F02D040326802F05A
:103460000F02895C0B4A01F01F0120FA01F1116083
:103470000949086009480068BDE8F05FFEF7EABE48
:1034800000200052184402581C440258204402589C
:10349000EA6C0008100000240C0000240400002442
:1034A0003F220260144A126802F007024260124A88
:1034B0000832136803F470638360136803F00F032A
:1034C000C360126802F0700202610B4A0C3213688A
:1034D00003F070034361126802F4E0628261064AFD
:1034E0001032126802F07002C2610448006800F0F5
:1034F0000F0008607047000010440258002000527E
:1035000000B500F043F80B490A68C2F303230A4AE6
:10351000D35C03F01F03D840096801F00F01515C30
:10352000064A01F01F0120FA01F11160044A1060FF
:10353000084600BD18440258EA6C00081000002438
:103540000C00002400B5FFF7DBFF05490968054AB8
:10355000C1F30211515C01F01F01C84000BD000021
:103560001C440258EA6C000800B5FFF7C9FF054982
:103570000968054AC1F30221515C01F01F01C840EE
:1035800000BD00001C440258EA6C000830B56448D5
:103590000068654C10F03801624808D00211082913
:1035A0000DD010290DD018290DD0104630BD21683E
:1035B0008906FBD52168C1F3C101C84030BD104662
:1035C00030BD5A4830BD564918310A6802F003022E
:1035D0000968C1F30511524B1C331B6803F001034A
:1035E0004F4D24352D68C5F3CC0515FB03F300EED4
:1035F000103AB8EE400A002977D0DFED4D0A484B6B
:10360000B7EE001A20333AB39FED4A2A012A58D068
:10361000022A6CD001EE901A1868F8EE611AC2EE18
:10362000212AC0F3080001EE900AF8EE611A40EE7C
:10363000201A31EE810A22EE800A1868C0F3462073
:10364000401C00EE900AF8EE600A80EE201ABCEEF4
:10365000C10A10EE100A30BD226892061BD52268FE
:10366000C2F3C102D04001EE900A1868F8EE612A58
:1036700001EE901AF8EE611A82EEA12AC0F308005A
:1036800001EE900AF8EE611A40EE201A31EE810A3E
:1036900022EE000AD1E701EE901ADFED272A186822
:1036A000F8EE611A82EEA12AC0F3080001EE900A3A
:1036B000F8EE611A40EE201A31EE810A22EE000A7D
:1036C000BBE701EE901A1868F8EE611AC2EE212AE3
:1036D000C0F3080001EE900AF8EE611A40EE201ADD
:1036E00031EE810A22EE800AA7E716E0FFE701EE3D
:1036F000901ADFED122A1868F8EE611A82EEA12AFC
:10370000C0F3080001EE900AF8EE611A40EE201AAC
:1037100031EE810A22EE000A8FE7002030BD000062
:10372000104402580090D00300440258001BB70018
:10373000000000390024744A0024744C001B374BED
:103740002DE9F05F0446002C10D02078DFF8F883D4
:10375000FE4EFF4DC0075DD0D8F8000000F03800E5
:10376000316810281FD0182803D006E00120BDE8DA
:10377000F09F01F00300022815D06068B0F5803F8B
:1037800018D0E0B1B0F5A02F22D0286820F4803006
:103790002860286820F480202860606860B3FEF705
:1037A0001DFD074624E02868800333D5606810BB00
:1037B0000120DCE7286840F480302860EDE72868C5
:1037C00020F480302860286820F480202860E4E716
:1037D000286840F480202860286840F48030286001
:1037E000DBE7FEF7FBFCC01B642801D90320BEE722
:1037F00028688003F5D50DE0FEF7F0FC074606E0EB
:10380000FEF7ECFCC01B642801D90320AFE7286851
:103810008003F5D4207841F2030ACE4F80073DD5CE
:10382000D8F8000000F03800316870B1182801D1D4
:1038300088070AD0E06890B3296821F01901014394
:103840002960FEF7CBFC814641E02868400701D59E
:10385000E06848B12868E16820F019000843286052
:10386000FEF7BCFC814609E0012080E7FEF7B6FCCC
:10387000A0EB0900022801D9032078E72868400757
:10388000F4D5FEF7A5FC504511D82069402807D093
:10389000396821F47C3141EA003038604AE036E092
:1038A000386820F47C3040F40030386042E03868FA
:1038B000217C20F0FE4040EA016038603AE0FEF7EB
:1038C0008DFCA0EB0900022801D903204FE72868EE
:1038D0004007F4D5FEF77CFC504510D820694028FD
:1038E00006D0396821F47C3141EA0030386021E0AB
:1038F000386820F47C3040F4003038601AE03868D2
:10390000217C20F0FE4040EA0160386012E0286827
:1039100020F001002860FEF761FC814607E0FEF719
:103920005DFCA0EB0900022801D903201FE72868ED
:103930004007F4D42078C0062FD5D8F8000000F056
:1039400038003168DFF800B20828ABF1040B0FD063
:10395000182803D101F00300012809D0E06978B3E9
:10396000286840F080002860FEF738FC814630E08F
:103970002868C00504D5E069802801D00120F6E65A
:10398000FEF726FC504510D8206A202806D039685A
:1039900021F0F84141EA806038604FE0386820F05B
:1039A000F84040F08040386048E0DBF8000094F8D0
:1039B000201020F07C5040EA0160CBF800003DE090
:1039C0002AE0FEF70BFCA0EB0900022801D9032036
:1039D000CDE62868C005F4D5FEF7FAFB504510D8AF
:1039E000206A202806D0396821F0F84141EA806039
:1039F000386023E0386820F0F84040F080403860BC
:103A00001CE0DBF8000094F8201020F07C5040EA25
:103A10000160CBF8000011E0286820F080002860E9
:103A2000FEF7DCFB074606E0FEF7D8FBC01B0228CA
:103A300001D903209BE62868C005F5D4207800074B
:103A400030D5DFF80891606909F14C09A8B1D9F8BF
:103A5000000040F00100C9F80000FEF7BFFB074678
:103A600006E0FEF7BBFBC01B022801D903207EE65F
:103A7000D9F800008007F4D514E0D9F8000020F050
:103A80000100C9F80000FEF7A9FB074606E0FEF7B3
:103A9000A5FBC01B022801D9032068E6D9F8000065
:103AA0008007F4D42078800626D5A06990B12868D4
:103AB00040F480502860FEF791FB074606E0FEF7D1
:103AC0008DFBC01B022801D9032050E62868800422
:103AD000F5D511E0286820F480502860FEF77EFBC1
:103AE000074606E0FEF77AFBC01B022801D9032037
:103AF0003DE628688004F5D42078400768D5164F45
:103B0000386840F480703860FEF768FB814607E053
:103B1000FEF764FBA0EB0900642801D9032026E628
:103B20003868C005F4D5094FA068483701281DD072
:103B300008B3052828D0386820F0010038603868BC
:103B400020F00400386009E010440258284402586C
:103B5000004402580444025800480258A06841F248
:103B6000883A30B3FEF73AFB81461EE0386840F0F1
:103B700001003860E7E7386820F0010038603868F5
:103B800020F004003860DEE7386840F00400386058
:103B9000386840F001003860D5E7FEF71FFBA0EB66
:103BA0000900504501D90320E1E538688007F4D5C4
:103BB0000EE0FEF713FB814607E0FEF70FFBA0EBDC
:103BC0000900504501D90320D1E538688007F4D4B5
:103BD000616AE1B3D8F800004FF6F87BDFF8E0A1A6
:103BE000C0F3C20003280AF10409AAF104087DD039
:103BF000022907D0286820F080702860FEF7EEFACE
:103C000004468BE0286820F080702860FEF7E6FA12
:103C1000074606E0FEF7E2FAC01B022801D903209E
:103C2000A5E528688001F5D4306840F2F331884377
:103C3000E16A40EA0110A16A08433060208E4FF625
:103C4000FF72616B401E491EC0F3080000E0B5E042
:103C500002EA41210843218F4FF4FE02491E02EA85
:103C60000141084394F83C10491E120202EA016126
:103C70000843CAF80000D8F8000020F00100C8F896
:103C80000000D9F80000A16C20EA0B0040EAC10056
:103C9000C9F80000D8F80000216C20F00C0008439F
:103CA000C8F80000D8F80000616C20F0020008435A
:103CB000C8F80000D8F8000040F48030C8F80000D0
:103CC000D8F8000040F40030C8F80000D8F8000030
:103CD00040F48020C8F80000D8F8000040F001004F
:103CE000C8F80000286840F0807000E01AE0286002
:103CF000FEF774FA044606E0FEF770FA001B02288D
:103D000001D9032033E528688001F5D556E0FEF798
:103D100065FA001B022801D9032028E528688001E4
:103D2000F5D44BE03268DAF80000012921D0A36A0B
:103D300002F0030199421CD1E16AC2F305129142DB
:103D400017D1216BC0F30802491E8A4211D1616B61
:103D5000C0F34622491E91420BD1A16BC0F306422B
:103D6000491E914205D1E16BC0F30660491E8142B4
:103D700001D00120FBE4D9F80000C0F3CC00A16C15
:103D800081421BD0D8F8000020F00100C8F80000E4
:103D9000FEF724FA0546FEF721FAA842FBD0D9F82F
:103DA0000000A16C20EA0B0040EAC100C9F8000045
:103DB000D8F8000040F00100C8F800000020D6E468
:103DC000304402587047704770470000F0B590F8D3
:103DD0003C20012A3AD0012680F83C60022280F87B
:103DE0003D2003685A689C68194FDFF868C0BB42E1
:103DF00001D0634503D122F470054A682A4322F0BA
:103E000070020D6815435D600268BA4213D0B2F1CA
:103E1000804F10D0104B9A420DD0104B9A420AD0CE
:103E20000F4B9A4207D0624505D00E4B9A4202D002
:103E30000D4B9A4204D124F08003896819439160A4
:103E40003C304670002101700020F0BD0220F0BD22
:103E50000000014000040140000400400008004050
:103E6000000C0040001800400040014010B504461E
:103E7000002C03D094F83D0010B107E0012010BDE4
:103E8000002084F83C00204600F018F8022084F856
:103E90003D002068211D01F05DFE01203D34E072EF
:103EA0006070A070E07020716071A071E07120728C
:103EB0006072A0722070002010BD000008B500687C
:103EC0001D4A1E49904208D1086840F0020008606F
:103ED000086800F00200009008BD194A904208D11D
:103EE000086840F004000860086800F004000090D2
:103EF00008BD1249134A0831904208D1086840F4BD
:103F000000300860086800F40030009008BD0E4AD8
:103F10009042FBD1086840F480200860086800F4F3
:103F200080200090002203217620FEF749FABDE8A8
:103F300008407620FEF736BA00040040E8440258F4
:103F400000080040004401400048014090F83D1046
:103F5000012901D001207047022180F83D1001683D
:103F6000CA6842F00102CA6000681549884214D04C
:103F7000B0F1804F11D0134988420ED012498842C7
:103F80000BD01249884208D01149884205D0114906
:103F9000884202D0104988420CD181680F4A1140F2
:103FA00006290BD0B1F5803F08D0016841F001012E
:103FB000016003E0016841F00101016000207047E9
:103FC000000001400004004000080040000C0040D8
:103FD00000040140001800400040014007000100BB
:103FE00070B50446002594F83C00012815D0012640
:103FF00084F83C60022084F83D0020688268394BD8
:104000001A4022F47F4282600868702802462ED04F
:1040100010DC10F00F0F03D022E04FF0020070BD53
:104020004FEA201007281BD2DFE800F057575757F8
:104030004D394300B0F1101F4FD009DCB0F5805F5F
:104040000FD0B0F5005F1ED0B0F5801F08D144E05E
:10405000A0F58010203840D010283ED020283CD039
:1040600001253C34667000202070284670BDCB6866
:104070002068D1E9012101F0DEFD2068816841F06E
:1040800077018160EDE7CB682068D1E9012101F07B
:10409000D2FD2068816841F480418160E1E7CA680F
:1040A0004968206801F06AFF2068502101F0CEFDC8
:1040B000D7E7CA684968206801F071FF206860216D
:1040C00001F0C4FDCDE7CA684968206801F056FFD9
:1040D0002068402101F0BAFDC3E72068114601F0D5
:1040E000B5FDBEE788FFCEFF2DE9F04104460D4641
:1040F000002C03D094F83D0018B108E00120BDE881
:10410000F081002084F83C00204600F049F80220AD
:1041100084F83D0020688168204A11408160206851
:10412000211D01F017FD293454F8290C816882699A
:10413000066A2B680B4340F203318A43AF69A968D2
:1041400042EA0722114340F60C4291434FF2F0023B
:104150009143EF69EA6841EA07210A4329692F6A16
:10416000090141EA0731114326F0220222F08806B4
:104170006A686D6946EA05152A43836054F8290C7C
:10418000816154F8290C02620120E0776075A07506
:10419000E076207720750020B1E70000F8BFFEFF31
:1041A00030B587B00446142102A8FCF7C2F9234DAC
:1041B00000222068022422490123A8421ED120485F
:1041C0001030056845F001050560006800F0010049
:1041D0000190086840F010000860086800F01000C6
:1041E00001904FF42060029003940492059206938C
:1041F00002A91448FDF7D2FE07B030BDB0F1804FE0
:10420000FAD10F480830056845F0010505600068DF
:1042100000F001000190086840F0010008600868A3
:1042200000F0010001900320029003940492059293
:10423000069302A90448FDF7B1FEDDE70000014046
:10424000E0440258001002580000025870B50446BD
:1042500014F83E0F6278A379E5793E3C02260029E6
:1042600004D004290DD001281CD115E0012801D16A
:10427000012B01D0012070BD84F83E6084F84460B9
:1042800018E0012A01D1012D01D0012070BD84F870
:104290003F6084F845600DE0012A03D1012B01D174
:1042A000012D01D0012070BD04F83E6F6670A6712B
:1042B000E6713E3C91B1042916D02068012200210C
:1042C00001F0ACFC20680122042101F0A7FC206869
:1042D000016841F001010160002070BD20680122E9
:1042E000002101F09BFCF2E720680122042101F08B
:1042F00095FCECE770472DE9F04104462068C6685C
:1043000005694FF00007A90714D5B10712D5F91EAA
:1043100001610120207720688069800703D0204652
:10432000FFF7E8FF05E0204600F0D2F8204600F055
:1043300093F92777680717D5700715D521686FF0AF
:1043400004000861022020772068806910F4407F13
:1043500003D02046FFF7CEFF05E0204600F0B8F876
:10436000204600F079F92777280716D5300714D5AD
:1043700021686FF008000861042020772068C06978
:10438000800703D02046FFF7B5FF05E0204600F088
:104390009FF8204600F060F92777E80617D5F00669
:1043A00015D521686FF0100008610820207720687B
:1043B000C06910F4407F03D02046FFF79BFF05E063
:1043C000204600F085F8204600F046F92777E807F8
:1043D00008D0F00706D021686FF001000861204680
:1043E00000F0D0F9280601D4A80408D5300606D577
:1043F00021686FF4025008612046FFF7E4FCE805ED
:1044000008D5300606D521686FF480700861204613
:10441000FFF7D8FC680608D5700606D521686FF04E
:1044200040000861204600F0B7F9A8060AD5B0069A
:1044300008D521686FF0200008612046BDE8F041F2
:10444000FFF7C2BCBDE8F08110B586B00446142168
:1044500001A8FCF76EF820680023184C02221849C6
:10446000A04213D1086840F002000860086800F01C
:10447000020000903320019002920393049305926E
:1044800001A91048FDF78AFD06B010BD0E4CA042F0
:10449000FAD1086840F008000860086800F00800D9
:1044A00000904FF4704001900292039304930592A0
:1044B00001A90648FDF772FDE6E700000004004090
:1044C000E04402580004025800080040000C025862
:1044D000704770B504460D46002694F83C0001284C
:1044E0000BD0012084F83C000C2A4FD007DC82B1AD
:1044F000042A22D0082A06D134E0022070BD102AF6
:1045000059D0142A6BD00126002084F83C00304694
:1045100070BD2068294601F0A3FB2068816941F045
:10452000080181612068816921F0040181612068AE
:1045300081692A6911438161E6E72068294601F013
:10454000DFFB2068816941F4006181612068816935
:1045500021F480618161206881692A6941EA022130
:104560008161D1E72068294601F014FC2068C16907
:1045700041F00801C1612068C16921F00401C161F5
:104580002068C1692A691143C161BDE720682946D5
:1045900001F04AFC2068C16941F40061C1612068F2
:1045A000C16921F48061C1612068C1692A6941EA59
:1045B0000221C161A8E72068294601F06FFC20684C
:1045C000416D41F0080141652068416D21F0040111
:1045D00041652068416D2A691143416594E720686F
:1045E000294601F093FC2068416D41F4006141656A
:1045F0002068416D21F4806141652068416D2A6920
:1046000041EA022141657FE710B50446002C03D042
:1046100094F83D0010B107E0012010BD002084F89F
:104620003C00204600F017F8022084F83D00206886
:10463000211D01F08FFA01203D34E0726070A070FE
:10464000E07020716071A071E07120726072A072E0
:104650002070002010BD70477047000030B5044640
:1046600000290DD004290ED008290FD00C2910D014
:10467000102911D094F84300012810D0012030BD3A
:1046800094F83E00F8E794F83F00F5E794F840000E
:10469000F2E794F84100EFE794F84200ECE70220DB
:1046A000E9B3042947D0082948D00C2949D010295A
:1046B0004AD084F843000122206801F0AFFA27496C
:1046C0002068274A274B884209D0904207D0984259
:1046D00005D0254DA84202D0244DA84203D1456CF7
:1046E00045F4004545642068884212D0B0F1804FFF
:1046F0000FD01F4988420CD01E49884209D01E495C
:10470000884206D0904204D01C49884201D0984289
:104710001DD181681A4A114006291CD000E007E02B
:10472000B1F5803F17D0016841F00101016012E04E
:1047300084F83E00BFE784F83F00BCE784F84000FF
:10474000B9E784F84100B6E784F84200B3E70168AE
:1047500041F001010160002030BD00000000014077
:104760000004014000400140004401400048014075
:104770000004004000080040000C00400018004009
:104780000700010000680349884201D1FDF72CBDF4
:1047900070470000000C0040704790F88410012919
:1047A00018D0012180F884102421C0F888100168F5
:1047B0000A680B6823F001030B6022F0005100220D
:1047C0004266036819602021C0F8881080F88420B0
:1047D00000207047022070477047704770B504464C
:1047E00094F8840001281DD0012084F8840024203E
:1047F000C4F8880020680568026822F0010202609F
:104800002068826822F060620A438260204601F0DC
:10481000D9FB206805602020C4F88800002084F8B7
:10482000840070BD022070BD70B5044694F8840009
:1048300001281DD0012084F884002420C4F88800B9
:1048400020680568026822F0010202602068826820
:1048500022F060420A438260204601F0B3FB2068E8
:1048600005602020C4F88800002084F8840070BD12
:10487000022070BD704770470068284988424BD1BC
:1048800027482849006888423AD02649183188428A
:1048900036D024493031884232D0224948318842CA
:1048A0002ED02049603188422AD01E497831884272
:1048B00026D01C499031884222D01A49A83188421A
:1048C0001ED0194988421BD017491831884217D089
:1048D00015493031884213D01349483188420FD0EE
:1048E0001149603188420BD00F497831884207D096
:1048F0000D499031884203D00B49A831884201D13B
:10490000406800E0406810B90849012008702C2276
:104910000749084800F0F8BB704700000044004019
:10492000C806002410000240100402405400002475
:104930008C070024CC04002470B50446206850E89D
:10494000001F21F4907140E80012002AF6D12B4A92
:104950002068083050E8001F114040E80013002B89
:10496000F6D1E06E012808D1206850E8001F21F040
:10497000100140E80012002AF6D1206881684FF04B
:1049800000034FF00F054FF02006490629D5206897
:10499000083050E8001F21F0400140E80012002AD2
:1049A000F5D1D4F8800058B115490165D4F88000DC
:1049B000FCF754FAF8B1D4F88000016D88471AE08A
:1049C000A4F85E30A365206805622068816941F023
:1049D00008018161C4F88C60E3662046FFF74CFF54
:1049E00009E0A4F85E30A3650562C4F88C60E36654
:1049F0002046FFF741FF002070BD0000FEFFFFEFE3
:104A000083620008704700002DE9F04104462368E6
:104A1000D86919689A6840F60F0500EA0507002F63
:104A20000ED185060CD501F0200502F080563543E5
:104A300006D0616F00297DD02046BDE8F0410847CF
:104A400000260225002F76D0D54FDFF858C3174037
:104A500001EA0C0C57EA0C0C6DD05FEAC07C0CD05C
:104A60005FEAC15C09D54FF0010CC3F820C0D4F84F
:104A7000903043F00103C4F89030830709D5D30781
:104A800007D023681D62D4F8903043F00403C4F8C3
:104A9000903043070AD5D30708D0256804232B623A
:104AA000D4F8903043F00203C4F8903003070CD5DB
:104AB00001F020033B4308D0256808232B62D4F87B
:104AC000903043F00803C4F8903003050BD54B0138
:104AD00009D525684FF400632B62D4F8903043F079
:104AE0002003C4F89030D4F89030002B3CD08006DE
:104AF00009D501F0200002F08051084303D0616F16
:104B000009B120468847D4F8900021688968490691
:104B100002D410F0280F2DD0204601F0C7FB2068EA
:104B20008068400622D52068083050E8001F21F038
:104B3000400101E018E023E040E80012002AF2D131
:104B4000D4F8800068B198490165D4F88000FCF77A
:104B500085F9002808D0D4F88000016DBDE8F04147
:104B600008472046FFF74EFFBDE8F0812046FFF7DB
:104B700049FFF9E72046FFF745FFC4F89060F3E7E7
:104B8000E76E012F7ED1C7067CD5CF067AD51020DF
:104B90001862206880684FF02003400673D5D4F86F
:104BA00080208249106888423AD080491831884272
:104BB00036D07E493031884232D07C4948318842F3
:104BC0002ED07A49603188422AD07849783188429B
:104BD00026D076499031884222D07449A831884243
:104BE0001ED0734988421BD071491831884217D0B2
:104BF0006F493031884213D06D49483188420FD017
:104C00006B49603188420BD069497831884207D0BE
:104C100067499031884203D06549A831884201D163
:104C2000406800E0406880B24FF4807760B3B4F829
:104C30005C10814240D9A4F85E00D069B84230D0FF
:104C4000206850E8001F21F4807140E80012002A1B
:104C5000F6D12068083050E8001F21F0010140E83B
:104C60000012002AF5D12068083050E8001F21F01A
:104C7000400140E80012002AF5D1C4F88C30E66605
:104C8000206802E056E023E016E050E8001F21F023
:104C9000100140E80012002AF2D1D4F88000FBF79E
:104CA0001FFF2567B4F85C00B4F85E10401A81B2AB
:104CB0002046FFF791FD57E7B4F85C108142FAD126
:104CC000D069B842F7D125672046FFF785FD4BE74D
:104CD00034F85C0F6188401A81B260885C3C00281F
:104CE000E9D00029E7D0206850E8002F22F4907224
:104CF00040E80027002FF6D1294FFF4320680830F5
:104D000050E8002F3A4040E8002CBCF1000FF5D1EC
:104D1000C4F88C30E6666667206850E8002F22F001
:104D2000100240E80023002BF6D125672046FFF74C
:104D300053FD19E7C50209D5550207D54FF4801078
:104D400018622046BDE8F041FFF795BD03060CD57B
:104D500001F0800302F40002134306D0A16F002982
:104D6000A9D02046BDE8F0410847420606D54A06CC
:104D700004D52046BDE8F04101F0C2BA020206D5D2
:104D80004A0004D52046BDE8F041FFF773BDC001DD
:104D900091D500298FDA2046BDE8F041FFF71DBD0F
:104DA00001000010200100047F6100081000024093
:104DB0001004024010B50446002C03D0D4F888003B
:104DC00010B107E0012010BD002084F884002046C7
:104DD00000F028F82420C4F888002068016821F039
:104DE00001010160A06A10B1204601F00FF92046D0
:104DF00001F0B0FA012813D02068416821F49041F5
:104E000041602068816821F02A0181602068016882
:104E100041F0010101602046BDE8104001F05AB99F
:104E2000012010BD2DE9F04FB7B00446142132A87F
:104E3000FBF77FFBC02102A8FBF77BFBA84E0227F4
:104E4000A64900252068083EDFF894924FF4806858
:104E5000DFF890B288424FF0010A4FD102210020C2
:104E6000CDE90210209502A8FDF7DAFC08B1FBF7A6
:104E700026FED9F8000040F48010C9F80000D9F8E7
:104E8000000000F480100190306840F002003060B3
:104E9000306800F0020001904FF480503290339758
:104EA000CDF8D0A035950E26369632A95846FDF796
:104EB00075F84FF400503290339734953595369607
:104EC00032A95846FDF76AF8884E8748306041207D
:104ED0007060B560F560C6F810807561B561F56108
:104EE000356275623046FCF7E5FC08B1FBF7E7FD7B
:104EF000C4F88060B46337B0BDE8F08F7C49884265
:104F00004ED102210020CDE90210209502A8FDF724
:104F100087FC08B1FBF7D3FDD9F8000040F0004052
:104F2000C9F80000D9F8000000F000400190306896
:104F300040F010003060306800F010000190CDF8B3
:104F4000C8A03397CDF8D0A035950826369632A95B
:104F5000DFF8A0914846FDF721F832973397349552
:104F60003595369632A94846FDF718F85E485F4EEB
:104F700048387836306051207060B560F560C6F80A
:104F800010807561B561F561356275623046FCF778
:104F900091FC08B1FBF793FDC4F88060B463AAE705
:104FA000554988424AD101210020CDE902102195BE
:104FB00002A8FDF735FC08B1FBF781FD4848083031
:104FC000016841F010010160006800F010000190DC
:104FD000306840F002003060306800F0020001905C
:104FE0004FF44040329033973495359504203690F5
:104FF00032A95846FCF7D2FF3B483C4E3038F036D9
:10500000306029207060B560F560C6F81080756169
:10501000B561F561356275623046FCF74BFC08B14D
:10502000FBF74DFDC4F88060B46300220621252003
:10503000FDF7C6F92520FDF7B5F95CE72F49884251
:10504000ADD102210020CDE90210209502A8FDF784
:10505000E7FB08B1FBF733FDD9F8000040F400305E
:10506000C9F80000D9F8000000F400300190306861
:1050700040F008003060306800F0080001906020C7
:1050800032903397349535950720369032A91C48D5
:10509000FCF784FF1B4E1448183830602B207060DA
:1050A000B560F560C6F810807561B561F5614FF4C3
:1050B0000030306275623046FCF7FCFB08B1FBF74C
:1050C000FEFCC4F88060B463002202212620FDF7B4
:1050D00077F92620FDF766F90DE700000050004043
:1050E000E8440258000402585800024060050024B9
:1050F000007C0040001002580010014000440040B5
:10510000000C0258C806002430B4D0F88C30202B94
:1051100002D0022030BC7047A9B1A2B10023C366FF
:105120000A4C0368A3420BD05B681B0208D50368D6
:1051300053E8004F44F0806443E80045002DF6D169
:1051400030BC01F04FBB0120E4E70000000C005828
:10515000704770477047FEE71FB500240094019424
:1051600002940394FDF7E8F801208DF800008DF813
:10517000014001941F218DF8081087218DF8091036
:105180008DF80A408DF80B408DF80C008DF80D005D
:105190008DF80E408DF80F406846FDF7A3F8042007
:1051A000FDF7D8F81FBD000008B51548016841F0AB
:1051B00001010160006800F001000090002201215F
:1051C0000B20FDF7FDF80B20FDF7ECF800220C207A
:1051D0001146FDF7F5F80C20FDF7E4F800220D204C
:1051E0001146FDF7EDF80D20FDF7DCF800220E204A
:1051F0001146FDF7E5F8BDE808400E20FDF7D2B8EE
:10520000D84402582DE9F04186B0142101A8FBF7DB
:1052100090F92748016841F080010160016801F0C0
:1052200080010091016841F001010160016801F015
:1052300001010091016841F002010160016801F083
:1052400002010091016841F010010160016801F064
:1052500010010091016841F008010160006800F050
:1052600008000090DFF84C804FF4E0440022214613
:105270004046FCF7A5FF104F4FF400660022314670
:105280003846FCF79DFF0194012402940394002505
:10529000049501A94046FCF781FE0196029403940F
:1052A000049501A93846FCF779FE06B0BDE8F08107
:1052B000E044025800100258000C025810B50C4887
:1052C0000A49016040F65F1141600021816063225C
:1052D000C260016141618161FEF7C8FD002803D011
:1052E000BDE81040FBF7EBBB10BD000000440140DF
:1052F0007802002410B50C480A49016040F65F119D
:1053000041600021816040F2F312C260016141619D
:105310008161FEF7ABFD002803D0BDE81040FBF72C
:10532000CEBB10BD00480140C402002410B58CB0B3
:10533000242103A8FBF7FDF80024009401940294B3
:10534000164815490160446084604FF6FF71C160E2
:105350000461446184610320039004940121059158
:1053600006940A200790089409910A940B9003A9C7
:105370000A48FEF7B9FE08B1FBF7A1FB00940194BF
:10538000029469460548FEF721FD002801D0FBF78D
:1053900096FB0CB010BD0000000001404801002445
:1053A00010B58CB0242103A8FBF7C3F800240094A7
:1053B000019402944FF0804113480160446084607E
:1053C000611EC16004618461032003900494012183
:1053D000059106940A200790089409910A940B906D
:1053E00003A90948FEF780FE08B1FBF768FB0094AB
:1053F000029469460448FEF7E9FC002801D0FBF757
:105400005EFB0CB010BD00009401002410B58EB0FE
:1054100000240A940B940C940D9407940894099416
:105420001C216846FBF785F82A482949016040F6A7
:105430005F11416084606321C16004618461FEF793
:1054400015FD08B1FBF73BFB4FF480500A90214853
:105450000AA9FEF7C5FD08B1FBF731FB1D48FFF7B0
:10546000D3F808B1FBF72BFB0794099407A9194857
:10547000FEF7ACFC08B1FBF722FB60200090019422
:1054800002940494002213486946FFF722F808B1F9
:10549000FBF715FB0F4804226946FFF71AF808B11D
:1054A000FBF70DFB0B4808226946FFF712F808B11D
:1054B000FBF705FB07480C226946FFF70AF808B11D
:1054C000FBF7FDFA0348FEF7BFFF0EB010BD00006A
:1054D00000040040E001002410B58EB000240A94BE
:1054E0000B940C940D940794089409941C2168461D
:1054F000FBF71FF82A482949016040F65F11416017
:10550000846040F2CF71C16004618461FEF7AEFC3B
:1055100008B1FBF7D4FA4FF480500A9020480AA94A
:10552000FEF75EFD08B1FBF7CAFA1D48FFF76CF8FD
:1055300008B1FBF7C4FA0794099407A91848FEF7C5
:1055400045FC08B1FBF7BBFA60200090019402947F
:105550000494002212486946FEF7BBFF08B1FBF72E
:10556000AEFA0F4804226946FEF7B3FF08B1FBF715
:10557000A6FA0B4808226946FEF7ABFF08B1FBF715
:105580009EFA07480C226946FEF7A3FF08B1FBF715
:1055900096FA0348FEF758FF0EB010BD0008004011
:1055A0002C02002410B51848164901604FF4E1316F
:1055B000416000218160C16001610C224261816112
:1055C000C161016241628162FFF7F4FB08B1FBF740
:1055D00076FA0D480021FFF727F908B1FBF76FFABB
:1055E00009480021FFF7FAF808B1FBF768FA064806
:1055F000FFF7D3F8002803D0BDE81040FBF75FBAEF
:1056000010BD0000005000401003002410B51848E1
:10561000164901604FF41651416000218160C1605C
:1056200001610C2242618161C1610162416281625A
:10563000FFF7C0FB08B1FBF742FA0D480021FFF766
:10564000F3F808B1FBF73BFA09480021FFF7C6F869
:1056500008B1FBF734FA0648FFF79FF8002803D09B
:10566000BDE81040FBF72BBA10BD0000007C0040E5
:10567000A403002410B51848164901604FF4E13125
:10568000416000218160C16001610C224261816141
:10569000C161016241628162FFF78CFB08B1FBF7D7
:1056A0000EFA0D480021FFF7BFF808B1FBF707FA23
:1056B00009480021FFF792F808B1FBF700FA064805
:1056C000FFF76BF8002803D0BDE81040FBF7F7B9EF
:1056D00010BD0000001001403804002410B5184827
:1056E000164901604FF4E131416000218160C160E1
:1056F00001610C2242618161C1610162416281628A
:10570000FFF758FB08B1FBF7DAF90D480021FFF766
:105710008BF808B1FBF7D3F909480021FFF75EF8D1
:1057200008B1FBF7CCF90648FFF737F8002803D09B
:10573000BDE81040FBF7C3B910BD000000440040B5
:10574000CC040024FEE7FEE72DE9F0470446884636
:105750000027DFF81491D9F80000C043800709D072
:10576000414D283D286820F080602860FCF736FD18
:10577000064609E00120BDE8F087FCF72FFD801BFD
:10578000022801D90320F6E728680001F5D4D9F8EA
:105790000000216820F47C3040EA0130C9F80000A4
:1057A000A0884FF6FF72A168401E491EC0F3080092
:1057B00002EA41210843A1894FF4FE02491E02EA90
:1057C00001410843217C1202491E02EA016108439B
:1057D0002549103108602448001D0168626921F0E4
:1057E000C001114301600168A26921F02001114349
:1057F0000160016821F0100101601B4914310A6841
:105800004FF6F8739A43E36942EAC3020A600168FB
:1058100041F010010160B8F1000F0ED0B8F1010F96
:1058200010D0016841F400110160286840F08060E8
:105830002860FCF7D3FC044610E0016841F4002125
:105840000160F2E7016841F480110160EDE7FCF7C7
:10585000C5FC001B022801D903208CE72868000141
:10586000F5D5384687E70000284402582DE9F0476F
:10587000044688460027DFF81491D9F80000C04399
:10588000800709D0414D283D286820F080502860CD
:10589000FCF7A4FC064609E00120BDE8F087FCF710
:1058A0009DFC801B022801D90320F6E728688000B0
:1058B000F5D4D9F80000218820F07C7040EA01502E
:1058C000C9F80000A0884FF6FF72A168401E491E6B
:1058D000C0F3080002EA41210843A1894FF4FE0207
:1058E000491E02EA01410843217C1202491E02EAD4
:1058F000016108432549183108602448001D0168EA
:10590000626921F44061114301600168A26921F4D8
:10591000007111430160016821F4807101601B492D
:105920001C310A684FF6F8739A43E36942EAC302EE
:105930000A60016841F480710160B8F1000F0ED077
:10594000B8F1010F10D0016841F080710160286842
:1059500040F080502860FCF741FC044610E00168EC
:1059600041F480010160F2E7016841F40001016047
:10597000EDE7FCF733FC001B022801D903208CE77C
:1059800028688000F5D5384687E70000284402588B
:1059900010B501F0E5F8012803D0BDE8104001F092
:1059A000C7B810BD10B59CB04C2109A8FAF7C1FDCD
:1059B000202101A8FAF7BDFD0220FCF733FD0024E9
:1059C0001F48016841F44041016001681D490A68AF
:1059D00042F001020A60096801F0010100910168CA
:1059E0008904FCD50121099108040A900220129033
:1059F00013901491502115911690179018900C2027
:105A000019901A941B9409A8FDF79AFE08B1FBF7A8
:105A100056F83F2001900320029003940820049040
:105A2000402005900690010107910890042101A8EB
:105A3000FDF7F8FB002801D0FBF741F81CB010BDC2
:105A4000184802582C04005810B53248016841F437
:105A500070010160304A106800F00F00072804D27E
:105A6000106820F00F00C01D10602C49086840F03D
:105A700001000860294B0020103318600B68284C87
:105A800023400B60136803F00F03072B04D913683E
:105A900023F00F03DB1D1360204A18321060121D23
:105AA0001060121D10601D4B1E4A28331A601B1D0A
:105AB0001D4A1A601B1D1D4A1A601B1D18601B1D04
:105AC0001A601B1D18601B1D1A601A1D10600A68E1
:105AD00022F480220A60114960310860144800688D
