:020000040800F2
:10000000C0600024210400082D970008A18D00087D
:1000100029970008B5250008E1BA00080000000093
:100020000000000000000000000000005D03000868
:10003000A12D000800000000B9030008B9A00008C5
:100040003F0400083F0400083F0400083F04000884
:100050003F0400083F0400083F0400083F04000874
:100060003F0400083F0400083F04000895270008EB
:10007000A5270008B5270008C52700083F04000889
:100080003F0400083F0400083F0400083F04000844
:100090003F0400083F0400083F0400083F04000834
:1000A0003F0400083F0400083F0400083F04000824
:1000B0003F0400083F0400083F0400083F04000814
:1000C0003F0400083F0400083F0400083F04000804
:1000D0003F040008A9BA0008D1BA00083F0400088C
:1000E0003F0400083F040008000000003F0400082F
:1000F0003F0400083F0400083F0400083F040008D4
:100100003F0400083F040008D1A200083F04000893
:100110003F0400083F0400083F0400083F040008B3
:100120003F0400083F0400083F0400083F040008A3
:100130003F0400083F0400083F0400083F04000893
:1001400000000000000000000000000000000000AF
:100150003F0400083F0400083F0400083F04000873
:100160003F0400083F0400083F0400083F04000863
:100170003F0400083F0400083F0400083F04000853
:100180003F0400083F0400083F0400083F04000843
:100190003F0400083F0400083F0400083F04000833
:1001A0003F0400083F0400083F0400083F04000823
:1001B0003F0400083F0400083F0400083F04000813
:1001C0003F0400083F0400083F0400083F04000803
:1001D0003F0400083F0400083F0400083F040008F3
:1001E0003F0400083F0400083F0400083F040008E3
:1001F0003F0400083F0400083F0400083F040008D3
:100200003F0400083F0400083F0400083F040008C2
:100210003F0400083F040008C1A200083F04000892
:100220003F0400083F0400083F04000800000000ED
:100230003F0400083F040008000000003F040008DD
:100240003F0400083F0400083F0400083F04000882
:100250003F0400083F0400083F0400083F04000872
:100260003F0400083F0400083F0400083F04000862
:100270003F0400083F0400083F040008000000009D
:100280003F0400083F0400083F040008000000008D
:10029000000000003F04000800F002F800F04FF8F2
:1002A0000AA090E8000C82448344AAF10107DA45D1
:1002B00001D100F044F8AFF2090EBAE80F0013F0D4
:1002C000010F18BFFB1A43F001031847D4E10000E7
:1002D000F4E10000103A24BF78C878C1FAD8520778
:1002E00024BF30C830C144BF04680C6070470000B0
:1002F0000023002400250026103A28BF78C1FBD82F
:10030000520728BF30C148BF0B60704766290DF007
:10031000CD87002070471FB50DF0BBFF00F090FFA8
:100320000400002000210DF0C5FA401C6060002090
:1003300000210DF0A9FAE0601FBD10B510BD01F05D
:1003400045FA1146FFF7E7FF0CF0B0F901F096FC13
:1003500003B4FFF7F2FF03BC01F0F0FC2D4B19686A
:100360000868B0E8F04F80F30988BFF36F8F4FF053
:10037000000080F311887047000000000848006802
:10038000006880F308884FF0000080F3148862B69C
:1003900061B6BFF34F8FBFF36F8F00DF00BF00BFA9
:1003A00008ED00E0DFF80C00016841F47001016025
:1003B000704700BF88ED00E0EFF30980BFF36F8F57
:1003C000144B1A681EF0100F08BF20ED108A20E9A8
:1003D000F04F106009B44FF0500072B680F31188EE
:1003E000BFF34F8FBFF36F8F62B60CF005FF4FF076
:1003F000000080F3118809BC19680868B0E8F04F64
:100400001EF0100F08BFB0EC108A80F30988BFF30C
:100410006F8F704714000024EFF3058070470000D1
:100420000A4880470A4880470A480047FEE7FEE737
:10043000FEE7FEE7FEE7FEE7FEE7FEE7FEE7FEE794
:1004400005480649064A074B70470000492F000837
:1004500099A1000899020008C05A0024C060002435
:10046000C05C0024C05C002453EA020C00F06980E8
:100470002DE9F04B4FF00006002B1FBFB3FA83F5B8
:1004800003FA05F424FA05F65E4012BF1643B2FAE9
:1004900082F502FA05F4C5F120051EBF22FA05FC1B
:1004A00044EA0C04203556EA044C4FEA144418BFC1
:1004B000641C4FF000084FF00009904271EB030CF0
:1004C00039D3002919BFB1FA81F701FA07F6B0FA5A
:1004D00080F700FA07F6C7F120071EBF20FA07FCD5
:1004E00046EA0C062037B6FBF4FCA7EB0507103FE5
:1004F00007F01F0BCBF120060CFA0BFB2CFA06F6CB
:1005000044BFB3460026202FA4BF5E464FF0000B29
:100510005BEA060C08BF4FF0010B19EB0B09ABFBB4
:10052000027C48EB0608C01B06FB02CC0BFB03CC8D
:1005300071EB0C01C1E70B46024641464846BDE857
:10054000F08B13B54FF000004FF00001AFF30080C7
:10055000BDE81C40704700000FB4044910B503AA61
:10056000029800F0A9FB10BC5DF814FB9000002479
:100570002DE9F0474FF0000A89460446C0F820A054
:100580002046E1688847002876D0252806D0D4E99F
:1005900001219047206A401C2062F1E7E168204673
:1005A00000258847C4F81CA006460027C4F818A0F8
:1005B0002A2E09D030460BF0C7FF38B304EB87086A
:1005C000303EC8F8186019E059F8041B204604EBC7
:1005D00087029161E1688847012F064618D1E069DA
:1005E000002820DA25F020051DE0D8F8180000EBDF
:1005F000800006EB40003038C8F818002046E1685B
:10060000884706460BF0A0FF0028EED1012F0AD044
:100610002E2E08D12046E16888477F1C0646022F0F
:1006200045F02005C4DBA069002803DA404245F00C
:100630000105A061E80701D025F01005B6B1A6F1CB
:100640004100192802D8203645F400654A46314653
:10065000204625604D46FFF759FE58B1012806D0C7
:10066000ED1D25F0070000F1080989E704E005F118
:10067000040985E730468AE7206ABDE8F087000074
:100680000FB400B58DB010A9099000910B904FF0F8
:10069000FF300A9000200C900648784406900648E7
:1006A00078446A4607900F9909A800F099FD0DB0AB
:1006B0005DF814FB630B00007B0B0000032A40F283
:1006C000308010F0030C00F0158011F8013BBCF1F4
:1006D000020F624498BF11F801CB00F8013B38BF0C
:1006E00011F8013BA2F1040298BF00F801CB38BF1A
:1006F00000F8013B11F0030300F02580083AC0F038
:10070000088051F8043B083A51F804CBA0E80810DF
:10071000F5E7121D5CBF51F8043B40F8043BAFF312
:100720000080D20724BF11F8013B11F801CB48BF6C
:1007300011F8012B24BF00F8013B00F801CB48BFA2
:1007400000F8012B704710B5203AC0F00B80B1E8DB
:100750001850203AA0E81850B1E81850A0E81850F6
:10076000BFF4F5AF5FEA027C24BFB1E81850A0E8FF
:10077000185044BF18C918C0BDE810405FEA827C19
:1007800024BF51F8043B40F8043B08BF7047D20730
:1007900028BF31F8023B48BF11F8012B28BF20F8D1
:1007A000023B48BF00F8012B704702F0FF0343EA09
:1007B000032242EA024200F002B84FF0000204298C
:1007C000C0F0128010F0030C00F01B80CCF1040C80
:1007D000BCF1020F18BF00F8012BA8BF20F8022BB4
:1007E000A1EB0C0100F00DB85FEAC17C24BF00F85A
:1007F000012B00F8012B48BF00F8012B70474FF088
:10080000000200B5134694469646203922BFA0E860
:100810000C50A0E80C50B1F12001BFF4F7AF09076C
:1008200028BFA0E80C5048BF0CC05DF804EB89005D
:1008300028BF40F8042B08BF704748BF20F8022BA0
:1008400011F0804F18BF00F8012B704770477047B8
:10085000704710B500F0F8FC006810BD10B50446F4
:1008600000F0F2FC046010BD70472DE9FF4F0C460C
:100870001E464FF0FF378BB0D2E90001DDF86080F3
:100880000A908A46C1F30A5505B93D46002108463B
:100890004FF00000BAF1000F00F4400005DA00EB61
:1008A00080004FF4400101EA50004FEA9059B9F13D
:1008B000010F00DDB9460A9850EA4A000ED044F60E
:1008C0001050A5F2FF3545432F14B8F1000F1ED08C
:1008D0007542291E1EDDC9F100021CE0B8F1010FAE
:1008E0004FF0000001D0302103E0F24305E0215435
:1008F000401CB042FBDB30460022002121540B9902
:10090000C1F80880C1E900200FB0BDE8F08FBD1B21
:100910006D1CDEE74A4600DA694206A800F0E0FEF8
:1009200006AB93E8070003AB83E8070050460A993B
:1009300001F00BFA8DE80700A0F500501F38009079
:100940000398002D0ADD42F21F014A4608440023A5
:1009500003A90390684601F0B7FC09E0A0F5005038
:100960004A461F38002303A90390684601F0D6FCCD
:100970008DE807000004000C03D04FF0FF30410861
:1009800000E01046B8F1000F03D000220092154697
:100990001EE0751E05D400F05BFC303262556D1E02
:1009A000F9D5B3460122084302D000227F1C04E09F
:1009B0002078302801D100227F1E002A099784D098
:1009C0001DE0112D07DA00F043FC303262556D1C3A
:1009D00050EA0102F5D1084302D00098C8B10EE0F8
:1009E0000021681E05E0235C625C63542254401EB3
:1009F000491C8142F7DBAB46A81B401E0990002032
:100A000004F80B000B98099AC0F80880C0E9002B85
:100A10007AE711264FF0000857E72DE9F04F884696
:100A20000446D21D22F0070191B0D1E90001CDE9C1
:100A30000A010BF057F802460B98C00F01D02D2089
:100A400007E02068810701D52B2002E0202101EA80
:100A5000C000032A099001D0072A05DB034641465E
:100A6000204600F043FC0BE12078800601D5E069C8
:100A700000E00620B8F1650F814606D0B8F1660F98
:100A800018D0B8F1670F70D131E00020B9F1110F23
:100A9000009001DB112301E009F101030AAA01A979
:100AA0000CA8FFF7E2FEDDE90C70002609F1010554
:100AB000834647E001204B4600904FF000470AAACA
:100AC00001A90CA8FFF7D1FEDDE90DB00C995D4638
:100AD000002610B909F101000D18B9EB050003D487
:100AE000C0F1FF3609F10105A5EB09002BE0B9F1D2
:100AF000010F01DA4FF001090020B9F1110F009048
:100B0000484601DD112300E003460AAA01A90CA80A
:100B1000FFF7ABFEDDE90C704D46002683462078DA
:100B200000070AD4AB4500DA5D4601A8012D04DDBB
:100B3000411911F8011C302907D04F4502DA17F18D
:100B4000040F04DA012082460FE06D1EEEE7002F4D
:100B500002DCED1B3E4403E0781CA84200DD7D1C56
:100B6000B81B00F1010A4FF000472078000703D4BA
:100B7000AA4501DB4FF0FF3A0021B7F1004F0DF11C
:100B800043088DF8431024D002202B23002F01DAD4
:100B90007F422D230A21021EA0F1010000DC5FB17B
:100BA00097FBF1FC97FBF1F201FB1C7C17460CF163
:100BB000300C08F801CDEEE7A8F1010003702188A0
:100BC000090501D5452100E06521A0F1010800F8E3
:100BD000011C09980FA9A1EB0807FF1D00B1012016
:100BE000411901EBEA70A1693844081A401EA0615E
:100BF0002078C00602D42046AFF30080099828B1BF
:100C0000D4E901219047206A401C20622078C00668
:100C100022D52046AFF300801EE0002E04DBB34552
:100C200002DD01A8805D00E03020D4E90121904779
:100C3000206A401C2062761CAAF101005FEA000ACB
:100C40000AD100F0FDFAC0680168405CD4E90121D6
:100C50009047206A401C2062281EA5F10105DCDCBB
:100C600007E0D4E9012118F8010B9047206A401CE5
:100C70002062381EA7F10107F3DC2046AFF30080A5
:100C8000032011B041E6000001694A1C02610878A6
:100C9000704700B58FB0CDE90131002105910549BC
:100CA0007944CDE9031011466846FFF761FC0FB0A7
:100CB00000BD0000E5FFFFFF074B70B50D467B440C
:100CC000FFF7E7FF044628460BF098FC10B14FF001
:100CD000FF3070BD204670BD43B900002DE9FF4FC5
:100CE00006468BB00878FF2806D0491C2D2805D071
:100CF00000244FF0000908E000200CE00124F8E790
:100D000009EB8903491C00EB43090878FF28F7D158
:100D100014B1C9F100008146107800252C46AA467E
:100D200029462D2801D02B2804D1521C2D2813D060
:100D3000002082468B461078FF280FD04FF0000C21
:100D40000A21521CA5FB017804FB018105FB0C1153
:100D5000C5194BEB0104EEE70120EAE70021084644
:100D60004FF00000BAF1000F02D000EB8000400805
:100D7000C0F38157012F01DD4FF0FF370E9955EA7F
:100D8000040009EB01080BD04FF0020918F5FA7FB7
:100D900016DA4FEACA70002F706008DD012007E004
:100DA0004FEACA70C6E900B00FB0BDE8F08F00206E
:100DB000306000F049FAC0F800901821084616E0AB
:100DC000B8F5FA7F18DD002F02DAF748784401E021
:100DD000F6487844D0E90010C6E9001040EACA702D
:100DE000706000F031FAC0F80090142108460FB08E
:100DF000BDE8F04F0DF057BA002108464FF0000053
:100E0000B8F10001099002DAC7F1000200E03A46A9
:100E100001DAC8F1000106A800F062FC06AB93E815
:100E2000070003AB83E8070044F23E005BEA0401DD
:100E30000090584604D144F21E012C465D460091B4
:100E4000210C0904014306D10099240444EA154405
:100E50002D041039009104F07F41014306D100991F
:100E6000240244EA15642D020839009104F070410F
:100E7000014306D10099240144EA15742D01091F8C
:100E8000009104F04041014306D10099A40044EAD6
:100E90009574AD00891E009104F00041084304D10F
:100EA00000986D196441401E00904FF001033A46CE
:100EB0006846B8F1000FCDE9014503A902DD01F054
:100EC00042FA01E001F015FABAF1000F04460D46AE
:100ED00001D084F00044002108464FF00000099939
:100EE00040F2FF77484010F00C0F07D124F000408B
:100EF000284303D0C4F30A50B84212D100F0A4F939
:100F0000C0F80090C4F30A50B8420AD1A848784407
:100F1000D0E90010C6E9001004F0004108437060F9
:100F200042E7C6E900543FE72DE9FF4F1F464FF067
:100F3000000A4FF0FF38454691B0D7E90146CDF899
:100F40003CA000F07DF9C0680168405C1090B96970
:100F500012986D1C8847396A814688470028F6D167
:100F6000B9F1FF3F0AD0002E24F4D06411DDB9F1AD
:100F70002B0F08D0B9F12D0F0BD102E0404615B070
:100F800013E744F48064B96912986D1C8847761E93
:100F90008146600504A901D52D2000E02B20002EFC
:100FA00001F1010B0DF130088DF810003FDDB9F1B2
:100FB000690F08D0B9F1490F05D0B9F16E0F02D011
:100FC000B9F14E0F1CD13B4601A8009580E85002B4
:100FD000DDE912126FF002000DF0CEF9C11CCED186
:100FE0000EE0B96912986D1C884781461398761EE9
:100FF00044F4007405600F98401C002E0F9016DD1D
:10100000B9F1300FEDD0B9F1780F02D0B9F1580F26
:101010000DD10F9801280AD13B46CDE90054DDE9F6
:101020001212001F02960DF0A5F9C11CA7D110994C
:1010300089453ED144F0800406E01399681CAAF16A
:10104000010A44F400740860B9696D1C1298761E98
:10105000884730288146F0D02BE01099894505D18A
:10106000200603D4761E44F0800418E048460BF0B6
:101070006BFA08B3761E0DF123018B4544F400741E
:1010800008D2A9F130000BF8010B200607D5AAF110
:10109000010003E0200602D40AF101008246A00507
:1010A00002D51399681C0860B96912986D1C8847AD
:1010B0008146002ED1DC53E0002E51DDB9F1650FE1
:1010C00002D0B9F1450F4BD1A00549D5B9696D1CC6
:1010D0001298761E24F440748847002E81460CDD59
:1010E0002B2804D0B9F12D0F07D144F48074B969CD
:1010F00012986D1C8847761E8146E00501D52D218A
:1011000000E02B2108F8011BCDF8008021E0761EBD
:101110000DF13901884544F400740CD2A9F1300076
:1011200010F0FF0088F8000002D10099884509D925
:1011300008F1010806E0E00501D51E4801E042F291
:101140000F708246B96912986D1C884781461398C2
:101150000560002E04DD48460BF0F6F90028D6D1D4
:10116000F96912988847FF2053468BF8000088F8E9
:10117000000000200A900B9004AA0CA90AA8FFF70F
:10118000ADFDA00502D46FF00100F8E614F0240FC5
:1011900012D0E0071CD13868DDE90A12031D3B605C
:1011A0000068C0E9001213E0F8D60000EAD600009B
:1011B000AED50000F1D8FFFF0AA968460BF006F98A
:1011C000E00705D13868009A011D396000680260A7
:1011D0002846D4E602681144137801601846704727
:1011E000D160054979445161044979441162002173
:1011F0001161114600F0BAB8EDFFFFFFED000000ED
:10120000426842B1016811F8013B23B1521EC0E9A6
:101210000012184670470121C160881E704742685D
:101220005AB1C368016843B983688B4205D0491E2F
:10123000521CC0E90012002070474FF0FF30704789
:1012400000487047805A002400487047605A0024C4
:1012500030B5B0F10A024FEA900E71F100034EEA88
:10126000817EB0EB0E0061EB91014FEA101E4EEA59
:10127000017E10EB0E0041EB11114FEA102E4EEAE9
:10128000016E10EB0E0041EB11214FEA104E4EEAB9
:10129000014E10EB0E0041EB1141401841F10001ED
:1012A0004FEAD00040EA41704FEAD10110EB8005CF
:1012B0004FEA810444EA907444EB01046D1944EB55
:1012C0000404521BA3414FF0000348BF0A3200D56B
:1012D00030BD401C41F1000130BD10B5044600F0A6
:1012E0009BFA0068005D00F0010010BD2DE9F0419F
:1012F0001F46044603260168072A01F4006004DB48
:1013000008B116A505E016A503E008B115A500E093
:1013100015A521F010002060A069C01EA0610FB1CA
:10132000401EA0612046AFF300804FB1D4E90121F7
:1013300038469047206A401C2062C01C206206E0AC
:10134000206AFAE7D4E9012115F8010B9047761ECF
:10135000F8D22046AFF30080BDE8F0814E414E0048
:101360006E616E00494E4600696E66002DE9F34FCE
:101370004FF0000A0C4656468DB001200C9001F14A
:101380000C000B9062690B9801219047051E2DD02F
:10139000252D2CD0216A8847C0B162690B980121A4
:1013A0009047216A88470028F7D16269411E0B984F
:1013B000904700E0761CA1690D988847216A88470C
:1013C0000028F7D1E1690D988847DBE7A1690D98FE
:1013D0008847A842074601D1761CD3E7E1690D98FA
:1013E00088477F1C02D1BAF1000F6FD06CE16269AF
:1013F0000B9800273D46394690472A2804D1626958
:101400000B98012190470125DFF8D08262690B9883
:1014100001219047A0F130010A290AD24745E5DCB5
:1014200007EB870100EB4107303FDFD445F01005A3
:10143000ECE7E90601D46FF000476C280AD04C288D
:1014400014D0682815D06A280DD074281CD07A28AA
:101450001AD01DE062690B98012190476C2802D0D8
:1014600045F0040514E045F002050DE045F02005C7
:101470000AE062690B9801219047682802D045F084
:10148000080505E045F4006562690B980121904765
:10149000C4E9015765283DD019DC58287AD00CDC06
:1014A000452837D004DC252826D041289ED131E0BC
:1014B00046282FD0472899D12CE05B2877D0612887
:1014C00028D063287CD0642823D15AE0F7E06F2825
:1014D00048D008DC66281DD067281BD0692821D099
:1014E0006E2816D127E0702845D0732868D075285B
:1014F00047D078280DD14DE0A1690D98884725285F
:1015000005463FF469AFE1690D9888476D1C3FF4CB
:101510006AAFD9E00D9923466A466FF001000CF0DE
:1015200027FFC6E045F0400023464FF00002606010
:10153000A80736D43EE0E8077FF447AF2068011DD6
:1015400021600068290501D506701BE7290701D530
:10155000068017E7A90703D5F117C0E9006111E775
:1015600006600FE745F0400023464FF00802606038
:10157000A80716D41EE040F60E0125EA01006060BF
:1015800016E045F0400023464FF00A026060A807CD
:1015900007D40FE045F040006060A80708D5234657
:1015A00010220D996FF00100AFF3008081E007E099
:1015B000102223460D996FF00100AFF3008078E010
:1015C0004FF0000963284F46C8464B46CB4602D031
:1015D0005B2807D039E02079C00601D40120A06043
:1015E000012732E06269D4F80CB00B9801219047D2
:1015F0005E2807D14FF0010949466269D4F80CB062
:101600000B989047216939B900210A4603AB43F88A
:101610002120491C0829FADBD8B3216949B308F114
:10162000010862690B98012190475D28F4D1B9F156
:10163000000F09D0002003A951F82020D24341F81F
:101640002020401C0828F7DB03AB20690028207904
:101650004FEA40701ED05B462246CDF80080CDE9AF
:1016600001970D9900286FF0010020DAAFF3008098
:101670001FE0C11703AA00EBD1614B1121F01F013C
:1016800002EB8302411A1368012088400343136070
:10169000C7E719E00D99224600286FF00100009776
:1016A00002DAAFF3008004E0AFF3008001E0AFF3B3
:1016B000008000280ADA401C06D10C9820B14FF0B7
:1016C000FF300FB0BDE8F08F5046FAE7E90701D1CF
:1016D0000AF1010A064400200C9053E6CCCCCC0C55
:1016E0002DE9F047814616468AB0354878440DC842
:1016F0008DE80D0032487844801C03AC0DC884E8A6
:101700000D0041F69B300844372190FBF1F290FB2D
:10171000F1F5A5F1800501FB12041B3C02D56442E2
:10172000012000E00020DFF898A080460027FA445E
:10173000AAF1BE0A0EE0E0070AD03246684607EB7F
:10174000470101230AEB810100F0E8FD8DE8070065
:1017500064107F1C002CEED1194F7F44AE3F19E07E
:10176000E80715D007EB04100DF1180A90E80E00F9
:101770008AE80E00C068F04201D1981908903246FC
:10178000012306A903A800F0C9FD03AB83E8070005
:101790006D10641C002DE3D14FF001033246694601
:1017A000B8F1000F03A802D000F08EFD01E000F0B8
:1017B000B5FDC9E90001C9F808200AB0BDE8F08705
:1017C00098CD000000487047605A00247546FFF726
:1017D000F9FFAE4605006946534620F007008546EE
:1017E00018B020B5FEF72CFEBDE820404FF00006F3
:1017F0004FF000074FF000084FF0000B21F00701F9
:10180000AC46ACE8C009ACE8C009ACE8C009ACE83B
:10181000C0098D467047000010B5FFF711FD001D8F
:1018200010BD00BF91C000002DE9FF4F1F464FF0D3
:101830003C0987B04FF00042DDE9141001F10108C6
:10184000DDF858A002EA405003900020059083463E
:10185000054604460490B969461E08988847AAF1CF
:10186000010A0290BAF1000F3BDD02982E2815D034
:10187000102100F054FA00282EDB4FF0010B0599DF
:10188000014317D0B9F1000F0BDB4A46C11700F036
:1018900033FA05430C43A9F1040905E00120049043
:1018A0000BE008B145F0010501200590049820B92E
:1018B000361D02E0049800B1361FB969089808F196
:1018C00001088847BBF1000FAAF1010A0290C9D0B4
:1018D0000999C1F80080C5E70298702808D05028FF
:1018E00006D0F96908988847BBF1000F14D04FE083
:1018F000002002900120BBF1000F049009D0B969CB
:10190000089808F101088847AAF10109B9F1000F08
:1019100007DCF969089888476FF001000BB0BDE853
:10192000F08F2B2804D02D280CD14FF0FF300490DD
:10193000B969089808F101088847A9F10109B9F1C6
:10194000000FE6DD411CE4D00A2100F0E8F9002890
:10195000DFDB029908F1010801EB810100EB410096
:101960000290B969089888470A2100F0D8F9099AC5
:10197000A9F10109B9F1000FC2F8008001DD0028CA
:10198000E7DAF969089888470499029800FB01662C
:1019900055EA040004D004F04041090002D006E0FA
:1019A000039898E0A40044EA9574AD00B61E04F0D4
:1019B0000041080002D16D196441761E159810F09F
:1019C000240F03D04FF00B095C4803E04FF02809C7
:1019D0006FF07D008246564507DAAAEB060189447E
:1019E000B9F1410F01DD4FF0410901200021A9F1BA
:1019F000010200F081F9024628400B4621400843CD
:101A000001D0012100E00021501E029143F1FF317D
:101A100028402140084301D0012000E00020029925
:101A2000834651EA0B014FD0002108464FF00000D9
:101A3000039900F4400039B100EB80004FF44001FD
:101A400000EBD07001EA60008015012802DD4FF044
:101A5000FF3000E013D0401C36D0029860B3BBF1D9
:101A6000000F0CD14A460120002100F045F9284022
:101A70002140084301D0012000E00020E0B1012016
:101A80004A46002100F038F9034640190A466141F0
:101A90002D1A8C4111D3B9F1400F09DD159810F0C2
:101AA000240F02D0AAF1340603E0AAF1170600E0E1
:101AB000761C00254FF0004406E05B1E42F1FF3229
:101AC00020EA030521EA0204CAF10100B04206DA65
:101AD0001B49039808430190002000900EE0039AF0
:101AE000C4F3D321E80A0A43164940EA44500A43A2
:101AF0003146CDE9000268460AF01CFD159810F049
:101B0000240F0BD01598C00715D13868DDE90012F5
:101B1000031D3B600068C0E900120CE002A86946A2
:101B20000AF054FC1598C00705D13868029A011DC7
:101B30003960006802604046F0E6000002FCFFFFEA
:101B40000000F07F0000F03F2DE9FF4F92461D4658
:101B500085B04FF00041DDE9124BDDE914727F1EC4
:101B600001EA4B50414940F0FF4940EA0108002199
:101B700022F020004928049102D04E2828D04CE0C1
:101B80003BA0012607C88DE80700A9690698641CD8
:101B900088477F1E014606D41DF8060018B121F0C3
:101BA000200181420BD0E96906988847032E34D082
:101BB000082E32D06FF0010009B0BDE8F08F761C1E
:101BC000032E01D0082EE0D1601CCAF80000DCE72B
:101BD000A9690698641C88477F1E2AD420F020003B
:101BE000412826D1A9690698641C88477F1E20D405
:101BF00020F020004E281CD1A9690698641C884753
:101C00007F1E48F4002849F48009CAF8004001D436
:101C1000282806D0E969069888475FEACB7012D079
:101C200022E0A9690698641C88477F1E01D4002819
:101C300003DAE96906988847BCE72928F1D1641CD2
:101C4000CAF80040E9E71BF0240F07D02868049980
:101C5000031D2B600068C0E9001805E02868021D1C
:101C60002A600068C0F800902046A5E70000F07FD9
:101C7000494E46494E4954590000000010B50446EB
:101C8000AFF300802046BDE81040FEF761BB0000C6
:101C90004FF0013C50F8042B51F8043B9A4215D107
:101CA000A2EB0C03934313EACC130BD150F8042B93
:101CB00051F8043B9A4209D1A2EB0C03934313EA77
:101CC000CC13E7D04FF00000704700BFD01A01BA24
:101CD000B1FA81F101F0180122FA01F0CB40C1F113
:101CE0002001DBB2C0B2C01A2CFA01F3D11A914321
:101CF00011EAC311E6D17047B2F120030AD5C2F14F
:101D0000200301FA02F120FA03F300FA02F041EA9B
:101D10000301704700FA03F14FF0000070473A28C2
:101D200000D2303820F02002412A01D3A2F137003E
:101D3000884201D34FF0FF3070470000014918205E
:101D4000ABBEFEE72600020070475FEA400C08BF0A
:101D500091F0000F4FEA8C234FEAC12243EA515120
:101D60004FEA1C5018BF00F5F0404FEA300018BF92
:101D700041F000415FEA6C5C00F02980BCF1FF3F5C
:101D800008BF40F080407047130C06BF12044FF0AC
:101D9000100C4FF0000C130E04BF12020CF1080CD3
:101DA000130F04BF12010CF1040C930F04BF920037
:101DB0000CF1020CD30F04BF52000CF1010C1146C0
:101DC0004FF00002A0F11F00A0EB0C00704711F0D3
:101DD000004F08BF704731F000413FF4D5AF0B0C06
:101DE00006BF09044FF0100C4FF0000C0B0E04BF9F
:101DF00009020CF1080C0B0F04BF09010CF1040CD3
:101E00008B0F04BF89000CF1020CCB0F04BF4900FB
:101E10000CF1010CCCF12003A0EB0C0022FA03F32F
:101E200002FA0CF241EA030100F10100704720F0D0
:101E30007F4C80EA030023F07F47ACEB070303F5F8
:101E40007C5300F0004003F1FF032DE980494FEA85
:101E5000154B09B44FEA144325EA0B4E24EA034814
:101E60000FF2042606EB132749083E785FEA320298
:101E700003FB0667C7F5000707FB06F64FEA543772
:101E80004FEAD64606F1020607FB066CCCF1005C71
:101E90004FEA1C472CEA074C07FB06F40CFB06F53F
:101EA00004EB15464FEA961634BF00204FF0004071
:101EB0004FEAD13706FB07FC4FEA1C4C0CFB0BF733
:101EC000D21B03FB0CF761EB07010CFB0EF7B0EB29
:101ED000074072EB17420CFB08F734BFA2EB074236
:101EE000B2EB074261EB17414FEA0C444FEA91070E
:101EF00006FB07FC4FEA1C4C0CFB0BF7B0EBC74092
:101F000072EB573203FB0CF734BFA2EBC742B2EBC4
:101F1000C74261EB57310CFB0EF7B0EBC70072EB19
:101F200057720CFB08F734BFA2EBC702B2EBC70233
:101F300061EB5771039F4FEA816141EA921104EB13
:101F4000CC044FEAD1374FEA826206FB07FC42EA33
:101F500090124FEA80604FEA1C4C0CFB0BF7D21B2F
:101F600003FB0CF761EB07010CFB0EF7B0EB07402E
:101F700072EB17420CFB08F734BFA2EB0742B2EB3F
:101F8000074261EB17414FEA8C554FEA910704EB8A
:101F90009C2406FB07FC4FEA1C4C0CFB0BF7B0EB38
:101FA000C74072EB573203FB0CF734BFA2EBC742BA
:101FB000B2EBC74261EB57310CFB0EF7B0EBC70039
:101FC00072EB57720CFB08F734BFA2EBC702B2EBFF
:101FD000C70261EB577115EB4C254FEA816141EA6D
:101FE00092114FEA82624FEAD13742EA901206FB21
:101FF00007FC44F100044FEA80604FEA1C4C0CFBE4
:102000000BF7D21B03FB0CF761EB07010CFB0EF780
:10201000B0EB074072EB17420CFB08F734BFA2EBA2
:102020000742B2EB074261EB174115EB1C154FEA73
:10203000813141EA92414FEA823242EA90424FEACC
:1020400080304FEA0C7644F1000448EA03434EEA3C
:102050000B484FF0000EB2EB080C71EB030724BFE6
:10206000624639464EEB0E0E4FF0000B00185241FF
:1020700049414BEB0B0BB2EB080C71EB03077BF107
:10208000000B24BF624639464EEB0E0E4FF0000B9C
:102090000018524149414BEB0B0BB2EB080C71EBB2
:1020A00003077BF1000B24BF624639464EEB0E0E50
:1020B00051EA020718BF46F0010616EB0E7655F1FD
:1020C000000254F1000103D5BDE88901BDE8008894
:1020D000BDE88901BDE80048B619524141EB010154
:1020E000A3F10103704780807F7E7D7C7B7A7978C5
:1020F000777676757473727171706F6E6E6D6C6CCD
:102100006B6A6A696868676666656464636362616E
:102110006160605F5F5E5E5D5D5C5C5B5B5A5A59EF
:10212000595858575756565555555454535352525B
:102130005251515050504F4F4F4E4E4D4D4D4C4CB3
:102140004C4B4B4B4A4A4A494949484848474747FC
:102150004746464645454544444444434343434239
:10216000424242414141000046EA0646A3F570530F
:102170004FEA164646EA42564FEAD22242EA415216
:1021800010B54FEAD121A3F1010300F02FF820F0A0
:10219000004000F1020C00F0004701EB0050114636
:1021A000BCF5006F40EA070000D210BDBAF1000F85
:1021B0000AD01CB503B44FF004004FF004014FF0F7
:1021C00000000FBCBDE810404FF00001BBF1010F53
:1021D000B9BF04484FF0FF310348002140EA07002F
:1021E00010BD00BFFFFFEF7F0000F07F002B9C467B
:1021F00030D477002BD01CB54FEA370703B44FF02B
:1022000010004FF01001BAF1000F06D0BCF1000F22
:10221000DCBF40F0080040F008014FF000000FBCA8
:10222000BDE810400BF1010BBBF1010F08BF5FEAE5
:10223000170722BF12F1010211F101014FF0004115
:1022400043F1000300F0004043EA00007047F9D377
:102250005708D0E746EA064613F1400F4FEA164604
:102260001FDD13F1200FDFBF16430A460021203384
:102270005B42BED0C3F1200746EA064602FA07F7E2
:102280004FEA164646EA0706C3F1200722FA03F290
:1022900001FA07F721FA03F14FF0000342EA0702BF
:1022A000A7E746EA020646EA06464FEA164646EA27
:1022B0000106BCBF46EA0646360C4FF000034FF05D
:1022C00000024FF0000194E72DE9804C9A469346B6
:1022D00070B491E8380007C831EA400C48BF34EACE
:1022E000430C03D5FFF7A3FDFFF780FFF0BCBDE86B
:1022F000008C2DE9804C9A46934670B491E83800E2
:1023000007C831EA400C48BF34EA430C03D5FFF755
:102310008EFDFFF729FFF0BCBDE8008C2DE9804C55
:102320009A46934670B491E8380007C810F0804F81
:1023300008BF13F0804F03D100F01AF8FFF756FFE3
:10234000F0BCBDE8008C2DE9804C9A46934670B4F1
:1023500091E8380007C810F0804F08BF13F0804F95
:1023600003D100F005F8FFF7FFFEF0BCBDE8008CDC
:1023700020F07F4780EA030023F07F4C07EB0C033B
:10238000A3F57C5300F00040A3F1FE0392F0000F90
:1023900000F0B38095F0000F00F077802DE901493F
:1023A0004FEA11404FEA144621EA004800FB06FCC0
:1023B00024EA064708FB06F607FB08F800FB07F7C8
:1023C00018EB06484CEB164C4FEA124B18EB07483B
:1023D0004FEA15464CEB174022EA0B4E0BFB06FC6E
:1023E00025EA06470EFB06F607FB0EFE0BFB07F77A
:1023F0001EEB064E4CEB164C4FF000061EEB074E44
:102400004CEB174B18EB0B0840F1000018EB0E0BD0
:1024100058EB000840F100008F1A4FF000013CBF5C
:10242000C943661B14BFB5EB040C00213CBFC94374
:10243000F61B4FEA17444EEA8E0E27EA04454FEA90
:102440001C4704FB07622CEA074C05FB07F70CFB53
:1024500005F604FB0CFC16EB074642EB174216EBA5
:102460000C4642EB1C421BEB060658EB02024141B4
:1024700046EA9E0601D5BDE80189B619524141EBF5
:102480000101A3F10103BDE801894FEA14454FEAB8
:10249000114724EA054621EA074C05FB07F406FB31
:1024A00007F70CFB06F105FB0CFC11EB074144EBB5
:1024B00017444FEA124711EB0C4144EB1C4422EA4B
:1024C000074C05FB07F206FB07F70CFB06F605FBBE
:1024D0000CFC16EB074642EB174216EB0C4642EBA0
:1024E0001C456A1854F1000148BF7047B6195241A3
:1024F00041EB0101A3F10103704795F0000F37D0C4
:102500004FEA11424FEA144721EA024624EA074CF7
:1025100002FB07F106FB07F70CFB06F402FB0CFCC1
:1025200014EB074441EB17414FEA154714EB0C44F9
:1025300041EB1C4125EA074C02FB07F506FB07F7B8
:102540000CFB06F602FB0CFC16EB074645EB1745A9
:1025500016EB0C4645EB1C42121951F1000148BF25
:102560007047B619524141EB0101A3F101037047D5
:102570004FEA14454FEA114724EA054621EA074C81
:1025800005FB07F106FB07F70CFB06F24FF0000610
:1025900005FB0CFC12EB074241EB174112EB0C421E
:1025A00051EB1C4148BF7047921841EB0101A3F168
:1025B0000103704700BFFEE72DED048B82B00AF0E7
:1025C000BFFF0190DFED5A1A9FED591ADFED590A4E
:1025D0009FED590A594807F00FF9DFED551AB0EE93
:1025E000001ADFED570AB1EE0C0A564807F004F95D
:1025F000DFED4F1A9FED4E1ADFED530A9FED530AA0
:10260000534807F0F9F85348D0ED001A524890EDBE
:10261000001ADFED520A9FED520A524807F0ECF81B
:102620009FED510A4F4880ED040A7FE04F48007843
:10263000A0B14F48D0ED001A4E4890ED001A454821
:10264000D0ED000A444890ED000A464807F0F0F843
:10265000F0EE409A3948C0ED039A00BF4648B0F901
:1026600000004649B1F90010084400EE900AF8EE67
:10267000E00AB0EE600A314807F008FAB0EE408A8E
:102680003F4890ED101BB0EE410AF0EE610A51ECAC
:10269000100B0BF025F909EE900AB0EE690A2C48F0
:1026A00007F082F9B0EE409AB1EE490A254880ED74
:1026B000030A334890ED0A1BB0EE410AF0EE610ABE
:1026C00051EC100B0BF00CF909EE900AB0EE690A10
:1026D0001C4807F043F8F0EE408A38EE280A2948F3
:1026E00080ED000A38EE680A274880ED000A9FED69
:1026F000271ADFED270A234890ED000A07F018F8A3
:102700009FED221ADFED220A1F4890ED000A07F024
:102710000FF81D48D0ED000A1A4890ED000A07F0A6
:10272000D1FB0A2101A80AF089FE00BF7EE7000064
:10273000000000006666264100004043C0590024A6
:102740003D0A173FE0590024C3642A3B6666864071
:10275000005A0024D8000024D40000240AD7233CC7
:10276000CDCC0C40205A002400007A44A000002464
:10277000AC000024A8000024C8000024CA000024E3
:1027800078590024DC000024E00000240020994552
:10279000002099C510B5024801F072F910BD000083
:1027A0001C57002410B5024801F06AF910BD000062
:1027B0009457002410B5024801F062F910BD0000E2
:1027C0000C58002410B5024801F05AF910BD000061
:1027D000A45600240146374A0868904249D0354A39
:1027E00018320868904244D0324A30320868904229
:1027F0003FD0304A4832086890423AD02D4A603281
:102800000868904235D02B4A78320868904230D020
:10281000284A9032086890422BD0264AA83208688D
:10282000904226D0244A0868904222D0224A183288
:10283000086890421DD0204A30320868904218D073
:102840001D4A48320868904213D01B4A603208681B
:1028500090420ED0184A78320868904209D0164A41
:1028600090320868904204D0134AA8320868904217
:1028700001D1012000E00020B0B10A78103A1823FD
:10288000B2FBF3F000F007020C4B9A5CCA65032818
:1028900005D90A686FF30902121D8A6503E00A6808
:1028A0006FF309028A6503E0086820F0FF0088657D
:1028B000886D70471000024010040240ACE300082D
:1028C00010B502682B4C0368A34222D0294C143463
:1028D0000368A3421DD0274C28340368A34218D0B4
:1028E000244C3C340368A34213D0224C5034036878
:1028F000A3420ED01F4C64340368A34209D01D4C80
:1029000078340368A34204D01A4C8C340368A34281
:1029100001D1012300E000238BB10378083B14248C
:10292000B3FBF4F1144B03EB81030366124B8033CA
:10293000436601F01F040123A340836618E0037877
:10294000103B1824B3FBF4F10C4B9A4204D80B4B08
:10295000A83B9A4200D30831094B03EB810303667D
:10296000074B8033436601F01F040123A3408366B5
:1029700010BD00000854025800580258B804024024
:10298000000802400179A9B3082940D8204B026809
:102990009A4222D01E4B143302689A421DD01C4B1F
:1029A000283302689A4218D0194B3C3302689A4285
:1029B00013D0174B503302689A420ED0144B643335
:1029C00002689A4209D0124B783302689A4204D0C6
:1029D0000F4B8C3302689A4201D1012200E00022A1
:1029E0004AB14A1E0B4B03EB8202C266094A4032CF
:1029F000026708E00BE04A1E074B03EB8202C26647
:102A0000054A403202674A1E0123934043677047DC
:102A1000085402580059025800090240014600209B
:102A20008A69D2B98A6A32B1012A0DD0022A03D04A
:102A3000032A10D10EE000BFCA6A02F08072B2F120
:102A4000807F00D1012007E0CA6AB2F1C07F00D1C7
:102A5000012001E000E000BF36E08A69B2F5005FC6
:102A60001BD18A6A32B1012A07D0022A03D0032A75
:102A700011D10AE000BF01200EE0CA6A02F08072A4
:102A8000B2F1807F00D1012006E0CA6AB2F1C07FB6
:102A900000D1012000E000BF16E08A6A32B1012AAD
:102AA00005D0022A04D0032A0CD103E000BF00BFE6
:102AB000012008E0CA6A02F08072B2F1807F00D182
:102AC000012000E000BF00BF70470000F0B5856D39
:102AD000846D984F0668BE4270D0964F18370668CE
:102AE000BE426BD0934F30370668BE4266D0914FDE
:102AF00048370668BE4261D08E4F60370668BE42D6
:102B00005CD08C4F78370668BE4257D0894F9037DB
:102B10000668BE4252D0874FA8370668BE424DD0E5
:102B2000854F0668BE4249D0834F18370668BE42BB
:102B300044D0814F30370668BE423FD07E4F483781
:102B40000668BE423AD07C4F60370668BE4235D038
:102B5000794F78370668BE4230D0774F9037066895
:102B6000BE422BD0744FA8370668BE4226D0734FA2
:102B70000668BE4222D0714F14370668BE421DD08F
:102B80006E4F28370668BE4218D06C4F3C37066837
:102B9000BE4213D0694F50370668BE420ED0674F11
:102BA00064370668BE4209D0644F78370668BE4273
:102BB00004D0624F8C370668BE4201D1012600E086
:102BC00000263EB1D0E919767E60C66E16B1D0E916
:102BD0001C767E60574F0668BE4249D0554F183765
:102BE0000668BE4244D0534F30370668BE423FD0DD
:102BF000504F48370668BE423AD04E4F603706689D
:102C0000BE4235D04B4F78370668BE4230D0494F70
:102C100090370668BE422BD0464FA8370668BE42A2
:102C200026D0454F0668BE4222D0434F183706686B
:102C3000BE421DD0404F30370668BE4218D03E4FCE
:102C400048370668BE4213D03B4F60370668BE4225
:102C50000ED0394F78370668BE4209D0364F9037CC
:102C60000668BE4204D0344FA8370668BE4201D180
:102C7000012600E00026DEB190F85C6006F01F0738
:102C80003F26BE40AE600668366826F48026076898
:102C90003E60066873608668402E04D10668B260A4
:102CA0000668F16044E00668B1600668F2603FE0E3
:102CB000224F0668BE4222D0204F14370668BE421B
:102CC0001DD01E4F28370668BE4218D01B4F3C3718
:102CD0000668BE4213D0194F50370668BE420ED068
:102CE000164F64370668BE4209D0144F783706681D
:102CF000BE4204D0114F8C370668BE4201D1012676
:102D000000E00026A6B190F85C6006F01F070126DF
:102D1000BE406660066873608668402E04D106680F
:102D2000B2600668F16003E00668B1600668F260B0
:102D3000F0BD000010000240100402400854025888
:102D400094B00AF0FDFB13901EE0104806F02AF83C
:102D50000F49104800F08AF90F4810494022CDE988
:102D600010100A4908316846FDF7EDFC07480CC809
:102D70000748B0F900100748B0F9000000F0BAF9B0
:102D80000A2113A80AF05AFBDFE700007859002453
:102D9000CA000024C8000024D8000024D400002465
:102DA000704700002DED048B82B0A3E0524890EDF7
:102DB000030A10EE101A08460BF0FAF941EC180B52
:102DC0004E4800680BF0F4F941EC190B8DED008BC7
:102DD00053EC192B4AA0FDF7BFFB4C4800780128A3
:102DE0007DD14B480078702806D1434A49A1484814
:102DF000401CFDF745FC77E045480078692807D17D
:102E00003D4A121D43A14248401CFDF739FC6BE0CE
:102E10003F480078642807D1374A08323DA13C4832
:102E2000401CFDF72DFC5FE03948007828285BD175
:102E300001203A4908703A4B3A4A3BA13448401CB9
:102E4000FDF71EFC364890ED001A3948D0ED001A07
:102E500031EE611AF0EE410A324890ED001A354821
:102E6000D0ED001A31EE611AB0EE410A08F000FF11
:102E7000DFED310A20EE200A304880ED030A2D48AC
:102E800090ED000A2748D0ED000A30EE600A20EEEF
:102E9000000A2748D0ED000A214890ED001A70EE94
:102EA000C10A234890ED001A1D48D0ED001A31EEFA
:102EB000611A00EE810A10EE101A08460BF078F93C
:102EC00041EC190BB0EE490AF0EE690A09F008FA74
:102ED000B0EE408AF0EE608A51EC180B00E006E09C
:102EE0000AF0FEFC0449C86000200849087064200C
:102EF0000AF07EF85AE70000205A0024A4000024BB
:102F0000252E32662C252E32660D0A00E4000024A0
:102F1000405A00242534662C00000000A000002444
:102F2000AC000024A800002425662C2566000000C3
:102F3000D8000024D40000241B2F6542005A00242E
:102F400072B600BFFEE700000748006840F00200CC
:102F50000549086000BF04480838006800F40050C4
:102F60000028F8D0704700000C4802582DE9F04FB7
:102F700087B0044600260020069000270590804672
:102F8000049081460390002500BF35E0215C0A29AA
:102F900000D10125215C752903D1012D01D1411CEE
:102FA000CEB2215C642906D1012D04D1411EC9B2E3
:102FB0000691411CCFB2215C782907D1012D05D1A2
:102FC000411EC9B20591411C01F0FF08215C79291D
:102FD00007D1012D05D1411EC9B20491411C01F058
:102FE000FF09215C212905D1012D03D1411EC9B260
:102FF000039103E0411CC8B2C828C7DB00BF069894
:10300000801B401C00F0FF0A0598C01B401C00F00C
:10301000FF0B0498A0EB0800401CC0B2029003987C
:10302000A0EB0900401CC0B2019022463146504638
:1030300009F0D0FA0C49088022463946584609F072
:10304000C9FA0949488022464146029809F0C2FA65
:103050000549888022464946019809F0BBFA024991
:10306000C88007B0BDE8F08F96000024094A1268B6
:10307000526A524212B20280074A1268526A12B26F
:103080000A800022034B1B685A62034B1B685A627A
:10309000704700008C520024D852002410B5129CB6
:1030A00001EE100AB8EEC11ADFED101A81EE212AE6
:1030B0009FED0F1A22EE011AB0EE410A01EE101A2E
:1030C000B8EEC11A9FED092AC1EE021A9FED081A47
:1030D00021EE811AF0EE410A30EE801AF0EE001A6D
:1030E00081EE212A84ED002A10BD00009A997941D1
:1030F000295CA3410FB42DE9F0412DED0A8B92B06C
:1031000006460F46DDE936459DED341BB0EE410A1B
:10311000F0EE610A9FED391B53EC112B51EC100BB3
:103120000AF05CFD41EC190B0AF0DAFB08EE100A1C
:1031300011A8402226A910906846FDF704FB3946E5
:103140003046DDE92423FFF7A9FFB0EE480A08F076
:10315000E5FEDDED110A20EE200A10EE108A404651
:103160000BF026F841EC1C0B9FED260B53EC102BBB
:103170000AF034FD41EC1A0B95ED000A10EE101A1E
:1031800008460BF015F841EC1B0B53EC1A2B0AF018
:10319000D9FB41EC190B0AF0A3FB2860B0EE480AFA
:1031A00008F0D6FFDDED110A20EE200A10EE108A9D
:1031B00040460AF0FDFF41EC1C0B9FED120B53EC57
:1031C000102B0AF00BFD41EC1A0B94ED000A10EEE7
:1031D000101A08460AF0ECFF41EC1B0B53EC1A2BBB
:1031E0000AF0B0FB41EC190B0AF07AFB206012B038
:1031F000BDEC0A8BBDE8F0015DF814FBCAC342AD1B
:1032000069DE913F7B14AE47E17A843F2DE9F041BE
:10321000044601F04FFF804614B90120BDE8F0815B
:1032200094F83500022808D08020606500BF002097
:1032300084F8340000BF0120F0E7FE49206888428E
:1032400049D0FC4918312068884244D0F9493031CE
:10325000206888423FD0F7494831206888423AD0F8
:10326000F44960312068884235D0F24978312068CD
:10327000884230D0EF499031206888422BD0ED4908
:10328000A8312068884226D0EB492068884222D0A5
:10329000E9491831206888421DD0E749303120685B
:1032A000884218D0E44948312068884213D0E24966
:1032B0006031206888420ED0DF497831206888422A
:1032C00009D0DD4990312068884204D0DA49A8311C
:1032D0002068884201D1012000E0002068B1206808
:1032E000006820F01E00216808602068406920F016
:1032F000800021684861256806E02068006820F0A9
:103300000E00216808602568CA492068884270D08C
:10331000C8491831206888426BD0C64930312068CE
:10332000884266D0C34948312068884261D0C1498B
:103330006031206888425CD0BE497831206888427C
:1033400057D0BC4990312068884252D0B949A83141
:10335000206888424DD0B8492068884249D0B64993
:1033600018312068884244D0B349303120688842FF
:103370003FD0B1494831206888423AD0AE496031E7
:103380002068884235D0AC4978312068884230D0F6
:10339000A9499031206888422BD0A749A8312068DC
:1033A000884226D0A5492068884222D0A3491431FA
:1033B000206888421DD0A14928312068884218D051
:1033C0009E493C312068884213D09C495031206886
:1033D00088420ED0994964312068884209D09749C3
:1033E00078312068884204D094498C312068884222
:1033F00001D1012000E0002028B1206E006820F4F7
:103400008070216E08608B492068884249D08949C4
:1034100018312068884244D086493031206888427B
:103420003FD084494831206888423AD08149603190
:103430002068884235D07F4978312068884230D072
:103440007C499031206888422BD07A49A831206885
:10345000884226D078492068884222D0764918319F
:10346000206888421DD0744930312068884218D0C5
:10347000714948312068884213D06F496031206813
:1034800088420ED06C4978312068884209D06A4958
:1034900090312068884204D06749A831206888426A
:1034A00006D12068006820F001002168086005E06E
:1034B0002068006820F001002168086011E001F038
:1034C000F9FDA0EB080005280BD92020606503203A
:1034D00084F8350000BF002084F8340000BF0120CC
:1034E0009CE6286800F001000028E8D151492068D6
:1034F000884249D04F4918312068884244D04D490C
:103500003031206888423FD04A494831206888429B
:103510003AD0484960312068884235D045497831F1
:103520002068884230D043499031206888422BD0AF
:103530004049A8312068884226D03F492068884207
:1035400022D03D491831206888421DD03A49303197
:103550002068884218D0384948312068884213D002
:1035600035496031206888420ED03349783120686F
:10357000884209D0304990312068884204D02E49D1
:10358000A8312068884201D1012000E0002040B12C
:10359000A66D94F85C0000F01F013F208840B060E9
:1035A00007E0A76D94F85C0000F01F01012088403F
:1035B000786020492068884276D01E4918312068FA
:1035C000884271D01B493031206888426CD019493B
:1035D00048312068884267D01649603120688842A7
:1035E00062D014497831206888425DD01149903109
:1035F0002068884258D00F49A8312068884253D0AB
:103600000D49206888424FD00B4918312068884204
:103610004AD0094930312068884245D006494831AE
:103620002068884240D004496031206888423BD0FD
:10363000014905E0100002401004024008540258FD
:103640007831206888422FD02549206888422BD0C5
:10365000234918312068884226D0224920688842B0
:1036600022D020491431206888421DD01D492831BC
:103670002068884218D01B493C312068884213D00A
:1036800018495031206888420ED0164964312068AC
:10369000884209D0134978312068884204D0114902
:1036A0008C312068884201D1012000E0002068B1FF
:1036B000D4E919104860E06E40B1E06E006820F473
:1036C0008070E16E0860D4E91C104860012084F825
:1036D000350000BF002084F8340000BF00BF9DE526
:1036E000A00402400854025870B504460CB90120E9
:1036F00070BD94F83500022803D080206065012059
:10370000F6E7DC492068884249D0DA491831206858
:10371000884244D0D7493031206888423FD0D549CB
:103720004831206888423AD0D249603120688842C6
:1037300035D0D04978312068884230D0CD49903199
:10374000206888422BD0CB49A8312068884226D0F7
:10375000C9492068884222D0C74918312068884268
:103760001DD0C54930312068884218D0C24948313F
:103770002068884213D0C0496031206888420ED04A
:10378000BD4978312068884209D0BB499031206812
:10379000884204D0B849A8312068884201D101206C
:1037A00000E00020F0B3042084F83500B14920681F
:1037B00088424BD0AF4918312068884246D0AD4985
:1037C00030312068884241D0AA4948312068884277
:1037D0003CD0A84960312068884237D0A54978316B
:1037E0002068884232D0A3499031206888422DD089
:1037F000A049A8312068884228D09F492068884283
:1038000024D09D491831206888421FD09A49303110
:10381000206888421AD0984948312068884215D0DB
:10382000954900E020E06031206888420ED092493E
:1038300078312068884209D08F49903120688842C9
:1038400004D08D49A8312068884206D120680068DC
:1038500020F001002168086009E12068006820F07C
:1038600001002168086002E12068006820F00E0075
:10387000216808607F492068884249D07D49183115
:103880002068884244D07B493031206888423FD04C
:1038900078494831206888423AD0764960312068BA
:1038A000884235D0734978312068884230D07149D8
:1038B0009031206888422BD06E49A8312068884218
:1038C00026D06D492068884222D06B491831206883
:1038D00088421DD0684930312068884218D0664936
:1038E00048312068884213D063496031206888429B
:1038F0000ED0614978312068884209D05E49903104
:103900002068884204D05C49A8312068884206D1EA
:103910002068006820F001002168086005E0206848
:10392000006820F001002168086052492068884240
:1039300070D050491831206888426BD04D493031E1
:103940002068884266D04B4948312068884261D05F
:1039500048496031206888425CD046497831206807
:10396000884257D0434990312068884252D041491B
:10397000A831206888424DD03F492068884249D00C
:103980003D4918312068884244D03B493031206895
:1039900088423FD038494831206888423AD0364979
:1039A00060312068884235D03349783120688842B8
:1039B00030D031499031206888422BD02E49A8312F
:1039C0002068884226D02D492068884222D02B4981
:1039D0001431206888421DD0284928312068884247
:1039E00018D026493C312068884213D023495031F1
:1039F000206888420ED0214964312068884209D06D
:103A00001E4978312068884204D01C498C312068D6
:103A1000884201D1012000E00020D8B1206E00686A
:103A200020F48070216E0860A56D94F85C0000F0B1
:103A30001F01012088406860D4E919104860E06ED9
:103A400040B1E06E006820F48070E16E0860D4E957
:103A50001C104860012084F8350000BF002084F865
:103A6000340000BF206D10B12046216D8847002032
:103A70003EE60000100002401004024008540258C4
:103A80002DE9F84F044600200090FE4800684FF4EE
:103A90001651B0FBF1FAA66DD4F858803768D8F803
:103AA0000090F9492068884249D0F74918312068C8
:103AB000884244D0F4493031206888423FD0F249EE
:103AC0004831206888423AD0EF4960312068884206
:103AD00035D0ED4978312068884230D0EA499031BC
:103AE000206888422BD0E849A8312068884226D037
:103AF000E6492068884222D0E4491831206888428B
:103B00001DD0E24930312068884218D0DF49483161
:103B10002068884213D0DD496031206888420ED089
:103B2000DA4978312068884209D0D8499031206834
:103B3000884204D0D549A8312068884201D10120AB
:103B400000E0002000287DD094F85C0000F01F0108
:103B5000082088403840002868D0CB492068884237
:103B600049D0C94918312068884244D0C64930310B
:103B7000206888423FD0C4494831206888423AD002
:103B8000C14960312068884235D0BF49783120680A
:103B9000884230D0BC499031206888422BD0BA4945
:103BA000A8312068884226D0B8492068884222D0AF
:103BB000B6491831206888421DD0B4493031206898
:103BC000884218D0B14948312068884213D0AF49A3
:103BD0006031206888420ED0AC4978312068884234
:103BE00009D0AA4990312068884204D0A749A83159
:103BF0002068884204D12068006800F0040003E0D7
:103C00002068006800F0080080B12068006820F09B
:103C100004002168086094F85C0000F01F0108208F
:103C20008840B060606D40F00100606594F85C0011
:103C300000F01F01012088403840E8B39249206815
:103C4000884200E0B7E24BD08F49183120688842A3
:103C500046D08D4930312068884241D08A49483168
:103C6000206888423CD0884960312068884237D03B
:103C7000854978312068884232D083499031206864
:103C800088422DD08049A8312068884228D07F49B9
:103C90002068884224D07D491831206888421FD08E
:103CA0007A493031206888421AD0784948312068F2
:103CB000884215D0754900E026E0603120688842CE
:103CC0000ED0724978312068884209D06F4990310E
:103CD0002068884204D06D49A8312068884204D108
:103CE0002068406900F0800002E020680068002041
:103CF00050B194F85C0000F01F0101208840B060D2
:103D0000606D40F00200606594F85C0000F01F01F7
:103D1000042088403840E8B35B49206888424BD093
:103D2000594918312068884246D0574930312068B7
:103D3000884241D054494831206888423CD0524999
:103D400060312068884237D04F49783120688842F6
:103D500032D04D499031206888422DD04A49A8314F
:103D60002068884228D049492068884224D04749A1
:103D70001831206888421FD0444930312068884279
:103D80001AD0424948312068884215D03F496031F5
:103D9000206800E024E088420ED03C497831206859
:103DA000884209D0394990312068884204D0374987
:103DB000A8312068884204D12068006800F0020021
:103DC00002E020680068002050B194F85C0000F028
:103DD0001F0104208840B060606D40F00400606501
:103DE00094F85C0000F01F01102088403840E8B3D0
:103DF00025492068884251D02349183120688842DB
:103E00004CD0214930312068884247D01E49483182
:103E10002068884242D01C496031206888423DD0E9
:103E2000194978312068884238D017499031206884
:103E3000884233D01449A831206888422ED01349D3
:103E4000206888422AD0114918312068884225D03C
:103E50000E4930312068884220D00C494831206812
:103E600088421BD009496031206800E04DE088425B
:103E700014D006497831206888420FD00349903128
:103E8000206805E00C0000241000024010040240ED
:103E9000884203D0FE492068884204D12068006827
:103EA00000F0080003E02068006800F0040060B340
:103EB00094F85C0000F01F0110208840B06020687A
:103EC000006800F4802080B12068006800F40020C1
:103ED00028B9206CC8B12046216C884715E0A06C39
:103EE00098B12046A16C88470FE02068006800F474
:103EF000807028B92068006820F0080021680860F8
:103F0000206C10B12046216C884794F85C0000F0CA
:103F10001F0120208840384000287DD0DD492068DE
:103F2000884249D0DB4918312068884244D0D949B9
:103F30003031206888423FD0D649483120688842D5
:103F40003AD0D44960312068884235D0D14978319F
:103F50002068884230D0CF499031206888422BD0E9
:103F6000CC49A8312068884226D0C949A8392068A0
:103F7000884221D0C6499039206888421CD0C44963
:103F800078392068884217D0C14960392068884252
:103F900012D0BF494839206888420DD0BC49303919
:103FA0002068884208D0BA4918392068884203D06E
:103FB000B7492068884204D12068006800F01000EA
:103FC00003E02068006800F0020028B394F85C0069
:103FD00000F01F0120208840B06094F835000428CC
:103FE0002DD12068006820F0160021680860206844
:103FF000406920F0800021684861206C08B9A06CFD
:1040000028B12068006820F008002168086094F852
:104010005C0000F01F0100E03FE03F208840B060FE
:10402000012084F8350000BF002084F8340000BF70
:10403000206D10B12046216D8847BDE8F88F2068BB
:10404000006800F4802080B12068006800F400203F
:1040500028B9606C08B32046616C88471DE0E06BAE
:10406000D8B12046E16B884717E02068006800F46B
:10407000807068B92068006820F01000216808602E
:10408000012084F8350000BF002084F8340000BF10
:10409000E06B10B12046E16B8847606D00287AD054
:1040A000606D00F00100E8B3042084F83500794920
:1040B000206888424BD0774918312068884246D022
:1040C000744930312068884241D0724948312068B3
:1040D00088423CD06F4960312068884237D06D49B2
:1040E00078312068884232D06A499031206888420D
:1040F0002DD06849A8312068884228D06449A83961
:104100002068884223D062499039206888421ED0B6
:104110005F4978392068884219D05D496039206844
:10412000884200E040E012D059494839206888426E
:104130000DD0574930392068884208D05449183981
:104140002068884203D052492068884206D12068FE
:10415000006820F001002168086005E02068006820
:1041600020F001002168086000BF0098401C00900A
:10417000504500D905E02068006800F001000028E3
:10418000F3D100BF2068006800F0010020B10320D7
:1041900084F8350003E00DE0012084F8350000BF0D
:1041A000002084F8340000BFE06C002802D02046D4
:1041B000E16C8847D9E138492068884222D03649E5
:1041C0001431206888421DD0334928312068884244
:1041D00018D031493C312068884213D02E495031E3
:1041E000206888420ED02C4964312068884209D06A
:1041F000294978312068884204D027498C312068C9
:10420000884201D1012000E000200028D2D020689F
:10421000056894F85C0000F01F010420884000EA63
:104220000900D8B305F00400C0B394F85C0000F0B6
:104230001F0104208840C8F8040005F4004080B144
:1042400005F4803030B9A06C0028B3D02046A16CB2
:1042500088478AE1206C0028ACD02046216C884732
:1042600083E105F02000E8BB0A492068884253D06A
:1042700008491831206888424ED0064930312068FC
:10428000884249D0034948312068884244D006E03A
:10429000B804024010000240085402584FE0B449EC
:1042A00060312068884237D0B1497831206888422F
:1042B00032D0AF499031206888422DD0AC49A83126
:1042C0002068884228D0AB492068884224D0A94978
:1042D0001831206888421FD0A649303120688842B2
:1042E0001AD000E025E0A34948312068884213D065
:1042F000A0496031206888420ED09E4978312068FC
:10430000884209D09B4990312068884204D099495D
:10431000A8312068884206D12068006820F0080093
:104320002168086005E02068006820F0040021682A
:104330000860206C10B32046216C884715E194F882
:104340005C0000F01F010220884000EA0900E8B389
:1043500005F00200D0B394F85C0000F01F010220C9
:104360008840C8F8040005F4004070B105F48030BE
:1043700028B9606C10B12046616C8847F5E0E06BAD
:10438000F0B32046E16B8847EFE005F02000C0BBAA
:104390007749206888424ED0754918312068884294
:1043A00049D0734930312068884244D0704948313F
:1043B000206888423FD06E496031206888423AD0F8
:1043C0006B4978312068884235D000E04EE068497A
:1043D0009031206888422ED06549A83120688842F3
:1043E00029D064492068884225D062491831206864
:1043F000884220D05F493031206888421BD001E0DC
:104400006EE02DE05B4948312068884213D059495D
:104410006031206888420ED0564978312068884241
:1044200009D0544990312068884204D05149A831BC
:104430002068884206D12068006820F014002168B6
:10444000086005E02068006820F00A002168086024
:10445000012084F8350000BF002084F8340000BF3C
:10446000E06BE8B32046E16B88477EE094F85C009F
:1044700000F01F010820884000EA090080B305F021
:10448000080068B33A49206888424BD0384918314F
:104490002068884246D0364930312068884241D071
:1044A00033494831206888423CD031496031206826
:1044B000884237D02E4978312068884232D02C4942
:1044C0009031206888422DD02949A831206888423F
:1044D00028D028492068884224D02649183100E095
:1044E00043E0206888421DD022493031206888424C
:1044F00018D0204948312068884213D01D496031C6
:10450000206888420ED01B4978312068884209D043
:10451000184990312068884204D01649A831206893
:10452000884206D12068006820F01C0021680860DD
:1045300005E02068006820F00E002168086094F80B
:104540005C0000F01F0101208840C8F80400012031
:10455000606584F8350000BF002084F8340000BF97
:10456000E06C10B12046E16C884700BF65E50000B3
:1045700010000240100402402DE9F041044600F012
:1045800099FD804614B90120BDE8F081FE492068FC
:10459000884249D0FC4918312068884244D0FA4901
:1045A0003031206888423FD0F7494831206888423E
:1045B0003AD0F54960312068884235D0F2497831E7
:1045C0002068884230D0F0499031206888422BD052
:1045D000ED49A8312068884226D0EC4920688842FD
:1045E00022D0EA491831206888421DD0E74930318D
:1045F0002068884218D0E54948312068884213D0A5
:10460000E2496031206888420ED0E0497831206864
:10461000884209D0DD4990312068884204D0DB49C6
:10462000A8312068884201D1012000E00020002844
:1046300073D0606A00B100BF022084F8350000BF6B
:10464000002084F8340000BFCF492068884249D058
:10465000CD4918312068884244D0CB493031206898
:1046600088423FD0C8494831206888423AD0C6497C
:1046700060312068884235D0C3497831206888424B
:1046800030D0C1499031206888422BD0BE49A83132
:104690002068884226D0BD492068884222D0BB4984
:1046A0001831206888421DD0B849303120688842CE
:1046B00018D0B64948312068884213D0B3496031D8
:1046C000206888420ED0B14978312068884209D0EC
:1046D000AE4990312068884204D0AC49A8312068A6
:1046E000884206D12068006820F001002168086037
:1046F00005E02068006820F00100216808600DE0F6
:1047000000F0D8FCA0EB0800052807D92020606540
:10471000032084F83500012036E76AE0206800684D
:1047200000F001000028EBD120680568984805409A
:10473000D4E9020108432169084361690843A1697A
:104740000843E1690843216A08430543606A042875
:1047500003D1D4E90B01084305438E4800686FF389
:104760000F00B0F1005F1DD36068292802D3606894
:104770002E2811D960683F2802D3606842280BD9DF
:104780006068472802D36068482805D960684F28C8
:1047900004D36068522801D8012000E0002008B14D
:1047A00045F48015206805602068456925F00705F7
:1047B000606A0543606A04280DD1A06A0543E06A77
:1047C00048B12046FEF72AF928B140206065012053
:1047D00084F83500D8E6206845612046FDF7FAFFE9
:1047E000064694F85C0000F01F013F208840B0604E
:1047F0009EE069492068884222D0674914312068C8
:1048000088421DD0644928312068884218D0624906
:104810003C312068884213D05F495031206888427B
:104820000ED05D4964312068884209D05A497831F8
:104830002068884204D058498C312068884201D1D0
:10484000012000E00020E0B353492068884222D0D4
:1048500051491431206888421DD04F4928312068C1
:10486000884218D04C493C312068884213D04A49CC
:104870005031206888420ED0474964312068884210
:1048800009D0454978312068884204D042498C31AA
:104890002068884201D1012000E0002000B100BF63
:1048A000022084F8350000BF002084F8340000BFE7
:1048B0002068056839480540A068402802D11021C9
:1048C00006E02EE0A068802801D1C10100E00021AF
:1048D000E06841EAD001206941EAD001606941EA1B
:1048E000D001A06941EAD001E06941EAD001206A23
:1048F00041EA101005432068056027492068401AE6
:104900001421B0FBF1F08000E0652046FDF762FF66
:10491000074694F85C0000F01F0101208840786091
:1049200006E040206065032084F8350001202BE676
:104930001549206888427FD0134918312068884281
:104940007AD0114930312068884275D00E494831FB
:104950002068884270D00C496031206888426BD052
:10496000094978312068884266D00749903120682B
:10497000884261D00449A831206888425CD003494C
:104980002068884258D00BE010000240100402401A
:104990003F8010FE0010005C085402580F00FEFF1C
:1049A0003B4918312068884246D039493031206867
:1049B000884241D036494831206888423CD0344949
:1049C00060312068884237D0314978312068884288
:1049D00032D02F499031206888422DD02C49A831FF
:1049E0002068884228D02B492068884224D0294951
:1049F0001431206888421FD0264928312068884217
:104A00001AD024493C312068884215D021495031C0
:104A10002068884210D01F496431206888420BD03A
:104A20001C4978312068884206D01A498C312068A8
:104A3000884200E000E001D1012000E0002000B346
:104A40002046FDF73DFFA068802801D1002060606E
:104A50002079216E0860D4E919104860606860B15F
:104A60006068082809D82046FDF78CFF0020E16E19
:104A70000860D4E91C10486003E00020E06620676D
:104A8000606700206065012084F8350000207BE528
:104A900010040240085402582DE9F04104460D4626
:104AA00016461F464FF0000814B90120BDE8F081FA
:104AB00000BF94F83400012801D10220F6E701205C
:104AC00084F8340000BF94F8350001287ED102201C
:104AD00084F8350000206065E4492068884249D0A8
:104AE000E24918312068884244D0E04930312068DA
:104AF00088423FD0DD494831206888423AD0DB49BE
:104B000060312068884235D0D849783120688842A1
:104B100030D0D6499031206888422BD0D349A83173
:104B20002068884226D0D2492068884222D0D049C5
:104B30001831206888421DD0CD4930312068884224
:104B400018D0CB4948312068884213D0C849603119
:104B5000206888420ED0C64978312068884209D042
:104B6000C34990312068884204D0C149A8312068E7
:104B7000884206D12068006820F0010021680860A2
:104B800005E02068006820F00100216808603B46CD
:104B9000324629462046FDF799FFB44920688842ED
:104BA0004BD0B24918312068884246D0AF493031E5
:104BB0002068884241D0AD494831206888423CD0C5
:104BC000AA4960312068884237D000E042E1A74915
:104BD00078312068884230D0A449903120688842DA
:104BE0002BD0A249A8312068884226D0A04920684D
:104BF000884222D09E491831206888421DD09C49A5
:104C000030312068884218D099494831206888425C
:104C100013D097496031206888420ED0944978318A
:104C20002068884209D0924990312068884204D097
:104C30008F49A8312068884201D1012000E000207E
:104C400080B12068006820F01E0040F01600216846
:104C50000860206CB0B12068006840F0080021684E
:104C600008600FE02068006820F00E0040F00A00A5
:104C700021680860206C28B12068006840F00400BA
:104C80002168086079492068884270D077491831D6
:104C9000206888426BD0754930312068884266D0E0
:104CA000724948312068884261D07049603120687B
:104CB00088425CD06D4978312068884257D06B4972
:104CC00090312068884252D06849A83120688842D3
:104CD0004DD067492068884249D06549183120681D
:104CE000884244D062493031206888423FD06049D0
:104CF0004831206888423AD05D4960312068884256
:104D000035D05B4978312068884230D0584990319D
:104D1000206888422BD05649A8312068884226D086
:104D200054492068884222D0524914312068884270
:104D30001DD0504928312068884218D04D493C3157
:104D40002068884213D04B495031206888420ED0E9
:104D5000484964312068884209D046497831206842
:104D6000884204D043498C312068884201D1012017
:104D700000E0002090B1206E006800F4803028B17F
:104D8000206E006840F48070216E0860E06E28B1EB
:104D9000E06E006840F48070E16E0860334920687E
:104DA000884249D0314918312068884244D02F497F
:104DB0003031206888423FD02C49483120688842F1
:104DC0003AD02A4960312068884235D02749783165
:104DD0002068884230D025499031206888422BD005
:104DE0002249A8312068884226D02149206888427B
:104DF00022D01F491831206888421DD01C4930310B
:104E00002068884218D01A4948312068884213D057
:104E100017496031206888420ED0154978312068E2
:104E2000884209D0124990312068884204D0104944
:104E3000A8312068884206D12068006840F001004F
:104E40002168086010E02068006840F001002168D7
:104E5000086009E04FF40060606500BF002084F83E
:104E6000340000BF4FF0010840461FE6100002402A
:104E7000100402400854025870B5044600F01AF9B4
:104E800006462546681C10B104480078054400BF5A
:104E900000F010F9801BA842FAD370BD080000246E
:104EA000F8B502460B4600216F4DD7E001278F4031
:104EB0001E6806EA0704002C72D01E7906F003066D
:104EC000012E04D01E7906F00306022E13D190683D
:104ED0004F000326BE40B0434F00DE68BE40304363
:104EE0009060506801268E40B0431E79C6F30016CC
:104EF0008E40304350601E7906F00306032E09D021
:104F0000D0684F000326BE40B0434F009E68BE40AD
:104F10003043D0601E7906F00306022E13D1CF086D
:104F200002F1200656F827004E07F70E0F26BE4066
:104F3000B0434F07FF0E1E69BE403043CF0802F159
:104F4000200646F8270010684F000326BE40B043F5
:104F50001E7906F003064F00BE40304310605E68C5
:104F600006F44036002E78D000BF404E366846F03A
:104F700002063E4F3E603E46366806F00206009648
:104F800000BF00BF3A4E8F0856F827008E07370F34
:104F90000F26BE40B043374EB24202D100262EE06B
:104FA0005BE0354EB24201D1012628E0334EB242D9
:104FB00001D1022623E0324EB24201D103261EE087
:104FC000304EB24201D1042619E02F4EB24201D137
:104FD000052614E02D4EB24201D106260FE02C4EDC
:104FE000B24201D107260AE02A4EB24201D1082678
:104FF00005E0294EB24201D1092600E00A268F07BA
:105000003F0FBE4030431A4E8F0846F827004FF03E
:10501000B0463068A0435E6806F4801606B12043AF
:105020004FF0B04630607068A0435E6806F400162A
:1050300006B120434FF0B04670606868A0435E68D8
:1050400006F4003606B1204368602868A0435E6815
:1050500006F4803606B120432860491C1E68CE4005
:10506000002E7FF423AFF8BD80000058F4440258AE
:1050700008040058000002580004025800080258B2
:10508000000C025800100258001402580018025870
:10509000001C025800200258002402580AB1816105
:1050A00001E00B048361704701480068000C704701
:1050B0000010005C014800687047000000000024F8
:1050C00003480068034909780844014908607047AB
:1050D000000000240800002410B5032000F04AF965
:1050E00001F092FC10490968C1F303210F4A515C99
:1050F00001F01F0120FA01F40B48006800F00F00D6
:105100001146085C00F01F0024FA00F0084908600E
:1051100008480460012000F00FF808B1012010BD1C
:1051200000F0BEF80020FAE718440258DCE300085B
:10513000100000240C000024F0B58BB00446102CA5
:105140000AD200222146322000F0D6F8322000F0A8
:10515000BFF81C48046002E001200BB0F0BD00BFA6
:105160001948006840F008001749086008460068C0
:1051700000F00800019000BF00BF02A903A801F0E1
:10518000C3FB089E1EB901F01BFC054602E001F0BE
:1051900017FC45000D48B5FBF0F0471E0C480D49C3
:1051A000086040F2E7310B48C160476000210161AF
:1051B000816002F0D5F918B9064802F06BFACCE725
:1051C0000120CAE704000024E844025840420F00CE
:1051D000000C0040845800244178154A116014499D
:1051E0000831096821F00101114A08321160121FCB
:1051F00041681160017B0907C27A41EA0261827A43
:1052000041EAC241427B41EA8241827B41EA42411A
:10521000C27B41EA0241427A41EA0221027A41EA32
:10522000420102781143024A0832116070470000BF
:1052300098ED00E000BF00BF00BFBFF35F8F00BF6D
:1052400000BF00BF0548006820F4803003490860B3
:1052500000200249703108607047000024ED00E032
:1052600040F001010D4A11600C497039096841F4A0
:1052700080310A4A703A116000BF00BF00BFBFF31F
:105280004F8F00BF00BF00BF00BF00BF00BFBFF314
:105290006F8F00BF00BF00BF7047000094ED00E0BB
:1052A00008B500BF0948006840F0020007490860DF
:1052B0000846006800F00200009000BF00BF002216
:1052C0000F21901E00F018F808BD0000F4440258A9
:1052D0000146084600280DDB00BF00BF00F01F0399
:1052E00001229A4043099B0003F1E023C3F8002107
:1052F00000BF00BF00BF70472DE9F05F80460D463C
:10530000164606F01BFC074639462A46334601F08E
:105310000700C0F1070ABAF1040F02D94FF0040ADE
:1053200001E0C0F1070AD14600F1040ABAF1070F03
:1053300002D24FF0000A01E0A0F1030AD4464FF078
:10534000010A0AFA09FAAAF1010A0AEA020A0AFAA1
:105350000CFA4FF0010B0BFA0CFBABF1010B0BEA53
:10536000030B4AEA0B042146404606F0EFFBBDE87A
:10537000F09F000000BF00F00702064B19684FF6CF
:10538000FF031940044B0B4343EA0221014B196010
:1053900000BF70470CED00E00000FA0570B5044650
:1053A00015480068C0F3800048B91348006800F051
:1053B0000700A04201D0012070BD0020FCE70E488C
:1053C000006820F0070020430B490860FFF772FED9
:1053D000054607E0FFF76EFE401BB0F57A7F01D966
:1053E0000120E9E7044808380068C0F3403000288D
:1053F000F0D00020E0E700000C48025810B501F0A2
:10540000B9FA05490968C1F30211044A515C01F077
:105410001F01C84010BD000020440258DCE3000812
:1054200070B50146844D2D6805F00303824D2D684B
:10543000C5F30530804D2D1D2D68C5F300147E4D3C
:1054400014352D68C5F3CC0515FB04F501EE105A93
:10545000B8EE411AF0EE410A00286FD023B1012BBB
:105460004ED0022B6BD16BE0734D283D2D68C5F3F8
:1054700040153DB3704D283D2D68C5F3C1066F4DF5
:1054800025FA06F201EE102AF8EE411A01EE100A92
:10549000B8EE411A81EE812A9FED691AC0EE811A99
:1054A000654D10352D68C5F3080501EE105AB8EEAC
:1054B000411A31EE811AF7EE001A31EE211A22EE6E
:1054C000010A1CE001EE100AB8EE411ADFED5D1A88
:1054D00081EE812A9FED5A1AC0EE811A564D103581
:1054E0002D68C5F3080501EE105AB8EE411A31EEE9
:1054F000811AF7EE001A31EE211A22EE010A5BE062
:1055000001EE100AB8EE411ADFED4F1A81EE812A42
:105510009FED4B1AC0EE811A474D10352D68C5F32B
:10552000080501EE105AB8EE411A31EE811AF7EE75
:10553000001A31EE211A22EE010A3DE077E01DE06B
:1055400001EE100AB8EE411A9FED402AC2EE011A90
:105550009FED3B1A80EE812A374D10352D68C5F33B
:10556000080501EE105AB8EE411A32EE011AB7EEF4
:10557000002A31EE021A21EE810A1DE001EE100A26
:10558000B8EE411ADFED301A81EE812A9FED2C1A18
:10559000C0EE811A284D10352D68C5F3080501EEBF
:1055A000105AB8EE411A31EE811AF7EE001A31EEB8
:1055B000211A22EE010A00BF00BF1F4D10352D68D1
:1055C000C5F3462501EE105AB8EE411AF7EE001A5F
:1055D00031EE211AC0EE011ABCEEE11A81ED001A7B
:1055E000154D10352D68C5F3064501EE105AB8EE7D
:1055F000411AF7EE001A31EE211AC0EE011ABCEE84
:10560000E11A81ED011A0C4D10352D68C5F30665C0
:1056100001EE105AB8EE411AF7EE001A31EE211AD7
:10562000C0EE011ABCEEE11A81ED021A03E000257A
:105630000D604D608D6070BD284402580090D0030D
:10564000000000460024744C0024744A001B374BB1
:1056500070B50146844D2D6805F00303824D2D6819
:10566000C5F30550804D2D1D2D68C5F300247E4DDA
:105670001C352D68C5F3CC0515FB04F501EE105A59
:10568000B8EE411AF0EE410A00286FD023B1012B89
:105690004ED0022B6BD16BE0734D283D2D68C5F3C6
:1056A00040153DB3704D283D2D68C5F3C1066F4DC3
:1056B00025FA06F201EE102AF8EE411A01EE100A60
:1056C000B8EE411A81EE812A9FED691AC0EE811A67
:1056D000654D18352D68C5F3080501EE105AB8EE72
:1056E000411A31EE811AF7EE001A31EE211A22EE3C
:1056F000010A1CE001EE100AB8EE411ADFED5D1A56
:1057000081EE812A9FED5A1AC0EE811A564D183546
:105710002D68C5F3080501EE105AB8EE411A31EEB6
:10572000811AF7EE001A31EE211A22EE010A5BE02F
:1057300001EE100AB8EE411ADFED4F1A81EE812A10
:105740009FED4B1AC0EE811A474D18352D68C5F3F1
:10575000080501EE105AB8EE411A31EE811AF7EE43
:10576000001A31EE211A22EE010A3DE077E01DE039
:1057700001EE100AB8EE411A9FED402AC2EE011A5E
:105780009FED3B1A80EE812A374D18352D68C5F301
:10579000080501EE105AB8EE411A32EE011AB7EEC2
:1057A000002A31EE021A21EE810A1DE001EE100AF4
:1057B000B8EE411ADFED301A81EE812A9FED2C1AE6
:1057C000C0EE811A284D18352D68C5F3080501EE85
:1057D000105AB8EE411A31EE811AF7EE001A31EE86
:1057E000211A22EE010A00BF00BF1F4D18352D6897
:1057F000C5F3462501EE105AB8EE411AF7EE001A2D
:1058000031EE211AC0EE011ABCEEE11A81ED001A48
:10581000154D18352D68C5F3064501EE105AB8EE42
:10582000411AF7EE001A31EE211AC0EE011ABCEE51
:10583000E11A81ED011A0C4D18352D68C5F3066586
:1058400001EE105AB8EE411AF7EE001A31EE211AA5
:10585000C0EE011ABCEEE11A81ED021A03E0002548
:105860000D604D608D6070BD284402580090D003DB
:10587000000000460024744C0024744A001B374B7F
:105880002DE9F04104460025A8464FF00062D4E916
:10589000001011400020134659404040014331D1CF
:1058A000A06E48B1B0F5801F0DD0B0F5001F11D02B
:1058B000B0F5401F16D114E0F948006840F40030FC
:1058C000F749086010E0022104F1080004F01CF917
:1058D000054609E0022104F1280004F0C7F9054655
:1058E00002E001E0012500BF00BF55B9EC482430BB
:1058F000006820F44010A16E0843E9492431086093
:1059000000E0A8464FF48073D4E90010194000204D
:105910005940404001432ED1A06D05281BD2DFE83D
:1059200000F0030A11181900DD48006840F4003047
:10593000DB49086011E0002104F1080004F0E4F8FC
:1059400005460AE0002104F1280004F08FF905461D
:1059500003E002E001E0012500BF00BF55B9D048D7
:105960002430006820F00700A16D0843CC492431A1
:10597000086000E0A8464FF40073D4E90010194015
:10598000002059404040014334D1E06D802818D0B8
:1059900003DC40B140281DD10CE0C02818D0B0F580
:1059A000807F17D115E0BE48006840F40030BC4944
:1059B000086011E0002104F1080004F0A5F8054694
:1059C0000AE0002104F1280004F050F9054603E044
:1059D00002E001E0012500BF00BF55B9B048243006
:1059E000006820F4E070E16D0843AD49243108609F
:1059F00000E0A8464FF48063D4E90010194000206D
:105A000059404040014339D1D4F8A800B0F5800F87
:105A10001AD004DC50B1B0F5001F1ED10DE0B0F576
:105A2000C00F18D0B0F5000F17D115E09C480068E2
:105A300040F400309A49086011E0002104F10800A8
:105A400004F062F805460AE0002104F1280004F0A1
:105A50000DF9054603E002E001E0012500BF00BFAB
:105A60005DB98F482C30006820F46000D4F8A8108D
:105A700008438B492C31086000E0A8464FF40062CF
:105A8000D4E9001011400020134659404040014322
:105A900039D1D4F8AC00B0F1007F1AD004DC50B199
:105AA000B0F1807F1ED10DE0B0F1407F18D0B0F191
:105AB000806F17D115E07A48006840F400307849CB
:105AC000086011E0002104F1080004F01DF805460B
:105AD0000AE0002104F1280004F0C8F8054603E0BC
